:020000041000EA
:1000000000B5324B212058609868022188439860DF
:10001000D860186158612E4B002199600221596106
:100020000121F02299502B49196001219960352056
:1000300000F044F80222904214D00621196600F024
:1000400034F8196E01211966002018661A6600F04E
:100050002CF8196E196E196E052000F02FF8012189
:100060000842F9D1002199601B49196000215960AB
:100070001A491B48016001219960EB211966A021F2
:10008000196600F012F800219960164914480160C1
:100090000121996001BC002800D000471248134993
:1000A000086003C880F30888084703B5996A0420EC
:1000B0000142FBD001200142F8D103BD02B5186610
:1000C0001866FFF7F2FF186E186E02BD00000240BE
:1000D000000000180000070000035F00212200005C
:1000E000F4000018222000A00001001008ED00E03C
:1000F00000000000000000000000000074B24E7A12
:1001000000200420F7010010CB010010CD010010E9
:10011000C9010010C9010010C9010010C901001077
:10012000C9010010C9010010C9010010CF01001061
:10013000C9010010C9010010D1010010D301001045
:10014000C1010010C1010010C1010010C101001067
:10015000C1010010C1010010C1010010C101001057
:10016000C1010010C1010010C1010010C101001047
:10017000C1010010C1010010C1010010C101001037
:10018000C1010010C1010010C1010010C101001027
:10019000C1010010C1010010C1010010C101001017
:1001A000C1010010C1010010C1010010C101001007
:1001B000C1010010C1010010C1010010C1010010F7
:1001C000EFF30580103800BE00BE00BE00BE00BECA
:1001D00000BE00BEF2EB887128520510485205108F
:1001E0003802001090A31AE71E481F49086006C88D
:1001F00081F3088810471D480068002801D019487D
:10020000F3E70DA40ECC002902D000F012F8F9E7B4
:100210001749184A002000E001C19142FCD116495B
:100220008847164988471649884700BEFDE701C937
:1002300001C29A42FBD3704748520510E0000020EB
:10024000C0120020286405100000042000000420D3
:100250002864051000100420001004200000000095
:10026000704700000000000008ED00E0000000D032
:10027000C0120020C4230120615C00102D07001073
:10028000595C0010F8B5C04606480749091A8B109A
:10029000C90FC91810B5491003D0044B002B00D06A
:1002A000984710BDC0120020C012002000000000BE
:1002B000054B10B5002B03D00449054800E000BFF2
:1002C000FFF7E2FF10BDC046000000008C020120D5
:1002D000CCA0011010B5354805F04EFE344805F0AD
:1002E0004BFE344805F048FE334805F045FE334CDC
:1002F000200005F041FE324805F03EFE0121314864
:1003000005F0BEFE0021304805F0BAFE2F4805F08A
:1003100033FE0F212E4805F0B3FE2E4805F02CFECB
:10032000092208212C4805F0ABFE0B220A212B489C
:1003300005F0A6FE200005F01FFE1E22022128481F
:1003400005F09EFE0F21274805F09AFE03236E223A
:100350003221254805F094FE0A21244805F090FE3C
:10036000234805F009FE234805F006FE22492348EC
:1003700005F086FE2249234805F082FE22492348E3
:1003800005F07EFE2249234805F07AFE22492348E3
:1003900005F076FE2249234805F072FE22492348E3
:1003A00005F06EFE200005F0E7FD10BDD0A00110A5
:1003B000FCA0011020A101103CA1011064A10110BA
:1003C00090A10110A4A10110B8A10110CCA10110AD
:1003D000DCA10110F0A1011000A2011020A2011067
:1003E00040A201105CA2011088A20110B8A2011065
:1003F000D4A2011000A3011010A3011028A3011022
:1004000040A3011058A3011070A3011088A301108C
:10041000A4A30110BCA30110D4A30110E8A30110F0
:1004200000A4011010A4011020A4011034A4011094
:1004300000B5502095B000F0C9FA322000F02AFB38
:100440000021012002AA00F015FA011E19D1029A1A
:10045000039B154805F014FE039B002B05D01348A1
:1004600005F08AFD012015B000BD029B0F2BF6D8C8
:100470000F4805F081FD01F0A7FB002805D1002001
:10048000F1E70C4805F0FCFDECE7029803990A4AF5
:1004900000900191402104A805F09EFB04A801F002
:1004A00047FB0020DFE7C0464CA401108CA40110DC
:1004B00060A4011098A4011074A40110F0B5C64600
:1004C00000B5794C0A20A54405F00CFD774805F0ED
:1004D00053FD774805F050FD764805F04DFD0A20A4
:1004E00005F000FD744805F047FD744805F044FD33
:1004F0000F21734805F0C4FD724805F03DFD7248B8
:1005000005F03AFD714805F037FD714800F0C2FA78
:10051000704805F031FD1E2209210820524201F0E9
:10052000B3FB22220B210A20524201F0ADFB012332
:10053000694E1E216948337005F0A2FD01F044FBAD
:10054000002800D0A5E0664805F016FD0024654DA2
:1005500004E0642000F09EFA322C4DD001342100DA
:10056000280005F08DFDFFF763FF0028F1D15E48FC
:1005700005F002FD0921082001F048FC0B210A20AA
:1005800001F044FC02235948337005F0F5FC01F0FA
:100590001BFB002800D080E0554805F0EDFCFA2058
:1005A000400000F077FA03239AAF3800337000F070
:1005B000ADFA9E9C9F9DF0229EA952006846A19E86
:1005C00003F0B0FE9D9B9A989B999C9A00F08CFF3B
:1005D000A0235B00FB58002B29DC464805F0CCFC2F
:1005E000454805F0C9FC454805F0C6FC8B23DB00F7
:1005F0009D4480BCB846F0BD414805F0BDFC414873
:1006000005F0BAFC0921082001F000FC0B210A20AA
:1006100001F0FCFB02233548337005F0ADFC01F01E
:10062000D3FA0028D9D0384801F082FAD5E7374804
:1006300005F0A2FC301C03F071FD02000B003448F1
:100640007892799305F01CFD22002B00314805F0CB
:1006500017FD9A9B9B9A9B18A12B22DC2E4B984648
:1006600041462E4805F00CFD01F0AEFA0028B4D04A
:1006700043460294039504938021789B799C284AF1
:10068000009301947AA805F0A7FA7AA801F050FA2D
:10069000A3E7244801F04CFA55E71B4801F048FA5B
:1006A0007AE7214B9846DBE7A8FBFFFF34A5011052
:1006B000D8A5011014A60110B8A60110C8A60110F3
:1006C000FCA6011028A7011054A7011070A7011063
:1006D000B80B00008CA70110B0230120F0A401107A
:1006E000B4A70110ECA7011030AA0110B4A40110A6
:1006F000F8A70110ACA8011050A901108CA9011095
:1007000054AA011084AA0110CCA4011024A801103D
:1007100048A8011058A801102CA501106CA80110C0
:1007200080A8011014A5011024A5011010B505F032
:10073000D5FBFA20C00000F0ADF9FFF7CBFD2E4845
:1007400005F01AFC00F08AF900F0BEF92B4805F01C
:1007500013FC0921082001F055FA0B210A2001F0B1
:1007600051FA274805F008FC264805F005FC264903
:10077000264800F033FF011E37D1254805F0FCFB69
:10078000244805F0F9FB244801F0D2F900F0B2F951
:10079000224805F0F1FB224805F0EEFB214805F068
:1007A000EBFB214805F0E8FB204805F0E5FB20487D
:1007B00005F0E2FB1F4805F0DFFB1F4805F0DCFBFE
:1007C0001E4800F067F9FFF779FE1D4805F0D4FBDD
:1007D0001C4805F0D1FB01F0F7F9002801D001F029
:1007E00005FA642000F056F9F5E7174805F048FCD3
:1007F000164805F0C1FBCBE7A4AA0110C0AA01105E
:10080000D8AA0110F0AA011014AB011024AB0110FA
:1008100040AB011070AB011090AB0110D0A00110E3
:10082000F0AB0110D4A2011000AC011010AC01100B
:1008300044AC011064AC01108CAC0110B80B00008A
:10084000B4AC0110D4AC0110A4AB0110CCAB0110BE
:1008500070B50C00050001F0B1FB200001F0AEFB0B
:1008600001231900D022A940A340120651629362CD
:1008700070BDC046F0B54F46D6464646C0B50D00E1
:10088000914684B01D2860D81D295ED888425CD06E
:100890000124D02326001B06864098465E610A206C
:1008A0000021AC4002F054FB4346A2469E61002565
:1008B00001267642F7172A4C08E0A4197D41012051
:1008C000002102F045FB23002B4347D0434652460C
:1008D0005B681A42F1D002F0C7FCD0231B0600254A
:1008E000984601267642F7171D4C0090019108E0CA
:1008F000A4197D410120002102F02AFB23002B4393
:100900002CD0434652465B681342F1D102F0ACFC56
:10091000009B019C3A22C01AA141002303F04AF82F
:100920004B46029003910298039918605960022285
:100930005242D31712184B411100002B0CD1C72380
:100940005B00994208D8002000E0022004B0E0BC1F
:10095000BA46B146A846F0BD0320F7E70120F5E707
:100960003175000010B50400042101F087FA630816
:100970001F2C1AD807221A4001210E4B0C401A6076
:100980000D4B0E481C6080240D4BE4001860930052
:100990009B180C4A9B009A1854601061126891438E
:1009A000094A94466344196010BD03221A40083274
:1009B000E2E7C0463C220120382201209598000041
:1009C00040220120000005400010054070B50400E1
:1009D000B4282CDDB424194B60011B68001B9D005A
:1009E000ED18174B80009C460019B421AD000001A2
:1009F000654402F079FF0300124AF5331068FF33B3
:100A00005843114902F098FF104B00041B68000C7A
:100A1000002B10D00E4B00042A6842401340802265
:100A20005201944665442B600A4B1C6070BDC34361
:100A3000DB171C40CFE7084BEEE7C0463C22012005
:100A40000C00054040220120204E000038220120E9
:100A50000000FFFF98110020FFFF00000022282166
:100A60000A4B5A5418315A5418315A5418315A549E
:100A700018315A5418315A5418315A5418315A549A
:100A800018311A745A54024B1A607047B01500207E
:100A900078230120F8B5060002F0E6FBFA220400F4
:100AA0000D00300000230021920003F0BFFA070080
:100AB0000E0002F0D9FB001BA9418E42F9D801D1EA
:100AC0008742F6D8F8BDC04610B500210120FFF7D7
:100AD000BFFE0F20FFF746FF5020FFF777FFFA20F9
:100AE0004000FFF7D7FF0022014B1A6010BDC0463F
:100AF00060310020012210B5024B03481A7005F046
:100B00003BFA10BDC1230120F0AC0110F0B5DE4668
:100B100057464E464546F822E0B5D54C0021A5443F
:100B20001090520014A803F0F7FBD24805F024FA05
:100B3000D14B05931B78002B00D0F0E2CF4B002463
:100B40009846002342461360CD4B0022994600236D
:100B500049460A604B608A60CB600A614B612F2373
:100B60009A4600239B460B93C64B0F9300230D938D
:100B70000E930793C44B0C93C44B119365E05A1C1E
:100B8000002800D07AE0129E139F14A98C46934649
:100B90002933DB0063441E605F604B469868D96868
:100BA0001C685D68186159611E605F609C60DD6053
:100BB00043461A68022A00DC88E1A4197D41059B9E
:100BC000089409951B780A93089B099C1B184C41B3
:100BD0000893099408980999D31702F0EBFE0224B0
:100BE0006442E51702900391029A039BA4185D41A9
:100BF0000A9B002B00D0F6E1029A039B514600921B
:100C00000193A34832003B0005F03AFA002D00D0D2
:100C1000BFE01C2C00D9BCE0079B002B00D0E9E111
:100C20009C4805F0A9F9059B1B780793002B00D081
:100C300003E2029B039C0F9353460E9301230D94F2
:100C40000024079353466E2B38D053460693032354
:100C50009C46E2445046FFF7B9FE6420FFF71AFFB6
:100C60000021012012AAFFF705FE5B46282B00DCBD
:100C700085E700280CD1129E139F8EE714A98C469D
:100C80000020002193462933DB006344186059603B
:100C90000134220051460C9805F0F2F9012C00D1E4
:100CA0002AE1059B1D78002DCCD000F08DFF002897
:100CB000C8D000F09BFF53466E2BC6D1079B002B7C
:100CC00005D053460E9D5E1B092E00DDC4E172481F
:100CD00005F052F971480B9905F0D2F9059B1B7884
:100CE000002B00D034E20B9B002B2CDD6C4B00253D
:100CF0009B466C4B14AC9A466B4B99466B4B984693
:100D000001352900584605F0BBF92168A3686268DF
:100D1000504605F0B5F922696369484605F0B0F917
:100D2000A06903F0FBF90600E0690F0003F0F6F993
:100D30003B00009001913200404605F0A1F90B9B69
:100D400020349D42DCD15020FFF740FE1021A0232B
:100D500010AA52180B995B00D150F822109852003B
:100D600014A903F0DFFA1098514B9D44F0BCBB4628
:100D7000B246A946A046F0BD002B00D02CE10022CF
:100D80000023514600920193414832003B0005F098
:100D900077F9079B002B00D139E1069E0E9B454851
:100DA000F71A05F0E9F805990D78092F00DC0FE135
:100DB0000D990F9803F0A8F90E9A041C503A1000F0
:100DC00003F078F93C4903F068F93C4903F051F924
:100DD00003F0AAF93300503B07901800069603F081
:100DE00069F9354903F059F9344903F042F903F040
:100DF0009BF9011C201C03F050F90799061C201CCC
:100E000003F04BF9011C301C03F02DF9400044089D
:100E100007942B4C2B49206803F03FF92A49061C04
:100E2000079803F03AF9011C301C03F01FF9206009
:100E30000B9C061C132C00DDCAE01022EC4610A906
:100E400089180E9A6301CA50069A63445A650F9A2C
:100E50009F651A660D9AD8665A66079A9A66002D9B
:100E600000D04EE1002301340B9407930024E9E6FF
:100E70002CFBFFFF0CAD0110C1230120A028002096
:100E800088140020E7030000B8AD0110D8AD0110B0
:100E900034AD01106CAD0110F4AD01100CAE0110B9
:100EA00034AE01104CAE011070AE01108CAE0110CA
:100EB000D4040000A0AD0110DB0F49400000344312
:100EC000603100209A99993E3333333F01321A60E2
:100ED000059B1B780A93002A00DC4DE708960997CA
:100EE000012A00D176E6A4197D4108940995032AC8
:100EF00000D169E602226DE6079B002B00D1D0E607
:100F0000069B0E9F1198DE1B079605F035F8059A93
:100F10001578092E5DDD0D990F9803F0F5F8503F17
:100F2000061C380003F0C6F8814903F0B6F8814981
:100F300003F09FF803F0F8F8071C0698503803F008
:100F4000B9F87B4903F0A9F87A4903F092F803F065
:100F5000EBF8011C301C03F0A0F8391C0890301C81
:100F600003F09BF8011C089803F07DF8724E4000D6
:100F7000430872493068089303F08FF87049071CE2
:100F8000089803F08AF8011C381C03F06FF80B9BDB
:100F9000071C3060132B1CDC1020EC4610A909182C
:100FA0000E981A005B01C850069963445965079969
:100FB000DF6699650F9919660D99596608999966C2
:100FC000002D00D01BE2002301320B92079339E67B
:100FD00000240023079366E60022002302246442D3
:100FE000E5170292039300F0EFFD00281FD1129E37
:100FF000139F01E60D9A029B039CA24212D80DD0CA
:10100000504804F0B9FF059B00241D784BE64E487C
:1010100004F0B2FF059B00241D7844E60F9B029A62
:101020009342EDD9029B039C0F930D94E8E7504641
:10103000029A039B00F002FCD9E700F0C5FD041EF4
:1010400000D0CEE1059B1D78029B039C0F93534675
:101050000D940E93002426E60F9B180099460D9BD5
:101060001900984603F050F82B00503B041C180060
:1010700003F020F82E4903F010F82E4902F0F9FF92
:1010800003F052F8FC21071C8905201C03F005F829
:10109000391C051C201C03F000F8011C281C02F060
:1010A000E2FF254D25494400286802F0F6FF640858
:1010B000071C2349201C02F0F0FF011C381C02F021
:1010C000D5FF0B9A071C2860132A00DDFFE51021CD
:1010D00053010E9D10AA5218EC46D5505246634457
:1010E0005A654A461A6642469E655A669C66D866A6
:1010F000059B1B78002B00D0AAE10B9B01330B93BF
:10110000E5E500F061FD002800D084E1059B0024A6
:101110001D780B9B01330B9300230793C3E500F06D
:1011200053FD002800D109E5084800F001FD05E560
:10113000DB0F494000003443603100209A99993E0A
:101140003333333F8CAD0110ACAD011024AD011031
:1011500000F03AFD002800D1C5E50B9E90AC3000B0
:1011600000F02CFB909602F07FF8FFABCC331860B8
:101170005960002E00DCABE10023A360149BE36008
:10118000159B2361169B6361189A199BA261E36109
:101190001A9B23621B9B6362012E00D11AE101237B
:1011A000A3621C9BE3621D9B23631E9B6363209AC7
:1011B000219BA263E363229B2364239B6364022E2F
:1011C00000D107E10223A364249BE364259B2365EC
:1011D000269B6365289A299BA265E3652A9B236663
:1011E0002B9B6366032E00D1F4E00323A3662C9BA4
:1011F0008021E3662D9B23672E9B6367309A319B8A
:10120000A267E3678422329B6350339BA350042E72
:1012100000D1DFE0882304201025E05010A84019F9
:1012200040580C31605010A9491989580C32A1500E
:1012300010AA5219D2580C33E250389A399BB69200
:10124000B7939823A02110AA5219D358A42263500F
:101250009C2310A84019C358A350052E00D1B9E013
:10126000A8230520E05010A8401940580C316050C8
:1012700010A9491989580C32A15010AA5219D258F4
:101280000C33E250409A419BBE92BF93B823C021D9
:1012900010AA5219D358C4226350BC2310A8401975
:1012A000C358A350062E00D194E0C8230620E05076
:1012B00010A8401940580C31605010A9491989589C
:1012C0000C32A15010AA5219D2580C33E250489A4D
:1012D000499BC692C793D82310AA5219D2580833F3
:1012E000E25010AA043B5219D2580833E250072E9C
:1012F00070D0072210A80433E2504119D93289581E
:101300000C32A150083A411989580C32A1504219A7
:10131000D2580C33E250509A519BCE92CF93F8237F
:1013200080214219D35849006350FC23822240197E
:10133000C3585200A350082E4CD0842308205B00D1
:10134000E05010A8401940580C31605010A94919BC
:1013500089580C32A15010AA5219D2580C33E250BD
:10136000589A599BD692D7938C23902110AA521940
:101370005B00D358490063508E23922210A85B0073
:101380004019C3585200A350092E23D0942309209A
:101390005B00E05010A8401940580C31605010A973
:1013A000491989580C32A15010AA5219D2580C333D
:1013B000E250609A619BDE92DF939C2310AA5B004F
:1013C0005219D2580833E25010AA043B5219D2588D
:1013D0000833E250200000F01DFB414800F0A8FB5C
:1013E00084E4404800F0A4FB059B07941D78029A12
:1013F000039B0D93534600240F920E9353E400F089
:10140000E3FB002846D1059B1D780B9B01330B9312
:101410000023079347E40B9C0799321C200000F03F
:101420007FF90E9D3B0029002000069A00F04AFA41
:10143000069B90A8909483600F9B456003610D9B71
:10144000C7604361079BC661836100F081FA5DE676
:1014500000F0BAFB002800D14FE60B9D3A1C211C7E
:10146000280000F05DF90E99330088466E222800AE
:1014700000F028FA434690A8909543605346836055
:101480000F9BC66003610D9B84614361C76100F0DF
:101490005FFA32E60B9D08993A1C280000F040F9EB
:1014A0000E9E079B069A3100280000F00BFA079B5E
:1014B00090A89095C3600F9B069A03610D9B4660B0
:1014C0004361089B82608361C76100F041FA9AE73B
:1014D000200000F09FFA024800F02AFB33E4C046E7
:1014E00024AE011078AD011084B0F0B5DE4645465B
:1014F00057464E46E0B585B00E9022480F911092A7
:10150000119304F039FD5E9B1F489846190004F0C2
:10151000B7FD4346002B2BDD00251C4B0EAC9B4634
:101520001B4B9A461B4B99461B4B039301352900D5
:10153000584604F0A5FD2168A3686268504604F08F
:101540009FFD22696369484604F09AFDA06902F094
:10155000E5FD0600E0690F0002F0E0FD32000090BA
:1015600001913B00039804F08BFD2034A845DDD1A8
:1015700005B0F0BCBB46B246A946A046F0BC08BCCC
:1015800004B01847B4AE0110CCAE0110ECAE01109F
:10159000FCAE011028AF011048AF0110110010B5CA
:1015A000002A06D1054804F0E7FC0122044B1A701A
:1015B00010BD044804F064FD0022F7E770AF01108D
:1015C000B623012098AF011010B5002900D110BD3D
:1015D000014804F055FDFAE7C4AF0110F0B5CE465E
:1015E000474680B58BB00D0012F026F9002854D183
:1015F00012F0B6F8364C3748210004F041FD2000C7
:101600003549364B364A12F0B9F8041E53D13548E5
:1016100004F0B2FC17F044FF334F3860002852D07A
:10162000324B334E18003100994611F075FE0028F8
:101630003DD003AB98461822002104A802F06CFEAE
:101640003C234246494693812A482B4A039504F09D
:1016500017FD424631003868284B01920094264A13
:1016600017F026FF0600011E29D1254D2B78002BEF
:101670000AD1642402E0013C002C14D0642001F063
:10168000DDFC2B78002BF6D01E4804F075FC3000F2
:101690000BB0C0BCB946B046F0BD1B4804F06CFCB2
:1016A00001267642F3E7194804F066FCF8E718488B
:1016B00004F062FCF4E7174804F05EFCF0E716481B
:1016C00004F0DEFCECE7154804F056FCE8E7C04601
:1016D0000CB001101CB0011040B0011030750000BA
:1016E0000400400074B0011078020120C8B001105D
:1016F000501E002000B101105B0700009D15001076
:10170000B623012060B10110E4AF011098B10110BF
:10171000D8B001104CB0011030B101109CB00110D4
:1017200070B50600101C1E4AA4B012780C1C002ACA
:101730002BD002F0F3FC02900391201C02F0EEFC8F
:10174000184D33002A0000900191802104A804F074
:1017500043FA04A818F0E0FB134A83B21068002291
:101760001249134D03920192013202910092290015
:1017700004AA17F0E1FC041E0AD129000D4804AAAE
:1017800004F07EFC200024B070BD03246442F9E71D
:1017900021000224084804F073FC6442F2E7C046CA
:1017A000B6230120B8B1011078020120C91500103C
:1017B00010A3011014B20110E8B1011030B5184A9D
:1017C0000300127895B0002A20D04021154A04A8C1
:1017D00004F002FA04A818F09FFB134A83B21068C1
:1017E00000221249124D039201920132029100929D
:1017F000290004AA17F0A0FC041E0AD129000D48F4
:1018000004AA04F03DFC200015B030BD032464425E
:10181000F9E721000224084804F032FC6442F2E7B0
:10182000B623012038B2011078020120C91500103A
:1018300040A3011014B2011048B2011030B51A498A
:10184000A5B00978002924D01849009201930A0014
:101850000300802104A804F0BFF904A818F05CFB81
:10186000134A83B2106800221249134D0392019269
:10187000013202910092290004AA17F05DFC041EB7
:101880000AD129000D4804AA04F0FAFB200025B073
:1018900030BD03246442F9E721000224084804F023
:1018A000EFFB6442F2E7C046B623012074B2011098
:1018B00078020120C915001070A3011014B20110A4
:1018C00090B2011030B51B4CC5B02478002C26D046
:1018D00000918021184C49000293019203002200DC
:1018E00004A804F079F904A818F016FB134A83B28F
:1018F000106800221249134D0392019201320291A5
:101900000092290004AA17F017FC041E0AD129002E
:101910000D4804AA04F0B4FB200045B030BD0324F8
:101920006442F9E721000224084804F0A9FB64425C
:10193000F2E7C046B6230120BCB2011078020120B4
:10194000C9150010A4A3011014B20110F8B20110BF
:1019500070B5284B284C1B78A5440400002B3CD0C4
:10196000002844D00668C06902F0D8FB08900991AD
:10197000A06902F0D3FB0690079180212269636978
:1019800004920593E3681D4D0293A3682A00019316
:101990006368890000930AA8330004F01DF90AA8BF
:1019A00018F0BAFA164A83B2106800221549164D8B
:1019B0000392019201320291009229000AAA17F0C3
:1019C000BBFB041E0CD1290010480AAA04F058FBE6
:1019D00020008A239B009D4470BD03246442F7E7E6
:1019E000210002240A4804F04BFB6442F0E704247F
:1019F0006442EDE7B6230120D8FDFFFF24B30110B8
:101A000078020120C9150010D4A3011014B20110EE
:101A100098B30110F0B5C64600B53A4B06001B78E6
:101A2000C4B0002B5AD0002868D003684021364A41
:101A300004A804F0D1F804A818F06EFA334A83B26F
:101A4000904610680022324C324F039201920132CC
:101A500000922100029704AA17F06EFB002847D1DC
:101A600021002D4804AA04F00BFB3368002B0DDD88
:101A70003500002408352800FFF76AFF0A2001F02E
:101A8000DDFA336801342035A342F4DCA221890059
:101A90008C466644306871680090019180211F4A2D
:101AA000490004A804F098F804A818F035FA424652
:101AB00083B2106800220392019201320092184909
:101AC000029704AA17F038FB041E0AD1154804F047
:101AD00053FA200044B080BCB846F0BD03246442F1
:101AE000F7E721000224104804F0CAFA6442F0E744
:101AF0000E4B0100180004F0C3FAB6E70424644258
:101B0000E7E7C046B623012038B201107802012071
:101B100040A30110C915001014B20110C4B3011084
:101B200020A4011034B4011000B4011048B2011017
:101B300030B51D4A1D4C12780300A544002A25D05B
:101B400000282DD080211A4A890004A804F044F806
:101B500004A818F0E1F9174A83B210680022164968
:101B6000164D03920192013202910092290004AABB
:101B700017F0E2FA041E0CD12900114804AA04F05F
:101B80007FFA200085239B009D4430BD03246442DE
:101B9000F7E7210002240B4804F072FA6442F0E7F0
:101BA00004246442EDE7C046B6230120ECFDFFFFAC
:101BB00064B4011078020120C915001000A40110BE
:101BC00014B2011074B40110064B10B51878002837
:101BD00000D110BD044B186818F0D6F8431E984188
:101BE000C0B2F6E7B623012078020120044B10B5FD
:101BF0001B78002B01D1002010BD11F011FEFAE777
:101C0000B6230120F8B50D000400042100F036F9D8
:101C10000421280000F032F963081F2C24D807247F
:101C20001C406B081F2D25D807221A40A3001B1942
:101C3000FA24124E12489B009919E4004C60086186
:101C40000D6801210F00AF433D000E4FBC466344B9
:101C50001D6093009B189B009A19546010611268D4
:101C6000634491431960F8BD03241C4008346B0899
:101C70001F2DD9D903221A400832D7E700000540AA
:101C8000E70300000010054030B514001300643471
:101C90003BDA64235B42DC171B1963409C00E418A9
:101CA00064004308002A5DDC33D01F2800D895E08B
:101CB00003221A40083293009B18504A9B009A183E
:101CC000C5074F481268ED17684010404D4A9446CA
:101CD000634418604A081F2900D98BE0072313408A
:101CE0009A00D218454B92009C4623006244C907D3
:101CF00000D47DE044492304106843400B40802118
:101D000049018C466244136056E0642AC3DD6423B3
:101D1000C1E71F2865D903221A40083293009B1897
:101D2000364A9B009A18364CC0071268C0176040AC
:101D300002403448844663441A604B081F2953D834
:101D400007221A4093009B182C4A9B009A182C4893
:101D5000C9071268C91741400A402A498C466344A2
:101D60001A6029E01F2828D807221A4093009B18E0
:101D7000224A9B0094466344C00729D5224A240482
:101D800018684440144080225201944663441C6009
:101D90004B081F291ED807221A4093009B18174A88
:101DA0009B009A18C80716491268C0174140114095
:101DB000144A94466344196030BD03221A40083225
:101DC00093009B180D4A9B0094466344C007D5D4EA
:101DD0000B4AD5E703221A400832DEE707221A40F1
:101DE00069E707221A4099E703221A400832A9E757
:101DF000034981E703231340083371E70C000540D2
:101E0000FFFF00000C1005400000FFFF10B5430865
:101E10001F2825D807221A4093009B18144A9B00BC
:101E20009A18144CC0071268C0176040024012484C
:101E3000844663441A604B081F2915D807221A40AC
:101E400093009B180A4A9B000A489A18C90712680F
:101E5000C91741400A4008498C4663441A6010BDC6
:101E600003221A400832D7E703221A400832E7E774
:101E70000C000540FFFF00000C100540094A8300DC
:101E80009A1810B514684022544080322240064C03
:101E9000C000A44663441A60044B9C466044416001
:101EA00010BDC04604C0014004D0014000400140C4
:101EB000074B8000C3181B68C90092000A435A40B0
:101EC0000C231340034A9446604403607047C046A5
:101ED00004C0014004D001408000002905D0064B19
:101EE0009C460223604403607047044B9C460223D7
:101EF00060440360F8E7C04604E0014004F001409C
:101F0000D0231B061B6830B50500584243412F20E3
:101F10005B4283430E48EC0884460720284080003B
:101F2000814020000B4D3C3063448000A4004151AF
:101F30001B19002A05D0802292019446634419603F
:101F400030BDC0229201944663441960F8E7C04650
:101F50003041014000400140D023F0B5C6461B0689
:101F600098461B680C4F9B001600FA5804000D00A1
:101F700000B5104209D1290014430D203200FC5055
:101F800000F092F980BCB846F0BD01F07DFB4346FD
:101F90001B689B00FA58EEE71822012010B50400D8
:101FA0000D2000F07BFAD0231B061B6802499B0022
:101FB0005A58A2435A5010BD182201200123D022A2
:101FC0008340120693629361094A83009A1811684C
:101FD0004022514080320A400649C0008C4663448A
:101FE0001A60054B9C460523604443607047C04619
:101FF00004C0014004D00140004001408023DB05C3
:102000001868000F7047C0460FB400B5084883B089
:1020100003F0B2FF049B002B07D005A91800019123
:1020200003F000FE034803F0A7FF012003F012FEB7
:10203000A0B4011020AE0110EFF3108072B6034A75
:102040001368002BFCD0BFF35F8F70472C0100D0CA
:10205000BFF35F8F0022024B1A6080F31088704735
:102060002C0100D070B5EFF3108C72B60D4D2B68BB
:10207000002BFCD0BFF35F8F0724CB08C618C05CD1
:1020800001230C40A3401C000440034207D1184325
:102090003070BFF35F8F2C608CF3108870BD100020
:1020A000FFF7B2FF2C0100D0F8B54746CE46884670
:1020B00080B5EFF3108C72B61C4D2C68002CFCD050
:1020C000BFF35F8F9A4222D807210126894602E09A
:1020D0000132934218D34D4637001540AF40D40823
:1020E0000119045D2742F3D110003C430C70BFF38B
:1020F0005F8F00220D4B1A608CF3108800280EDBD6
:10210000C0BCB946B046F8BD01204042EFE7BFF37E
:102110005F8F00232B608CF31088012040424346E0
:10212000002BEDD00898FFF76FFFC0462C0100D0C0
:1021300030B5EFF3108C72B60A4C2368002BFCD03C
:10214000BFF35F8F072301220B409A40CD08435D08
:1021500093434355BFF35F8F002323608CF31088B4
:1021600030BDC0462C0100D0044A1078431CDBB2BD
:10217000172B00D9102313707047C0469C11002004
:1021800010B5064B064C82B00100009318221F23A5
:102190002000FFF789FF02B010BDC046B0B40110A7
:1021A0006C1E00200021044B044ABFF35F8F02C362
:1021B0009342FAD17047C046000100D0800100D0A0
:1021C000054B064A1360064A136053609360D36060
:1021D00013615361936170478080808000E400E068
:1021E00004E400E01F2318401E3B8340002905D073
:1021F000C021044A490053501360704780220149AE
:102200008B50FAE700E100E001228240034B1B689B
:1022100013405A1E9341D8B27047C04600E100E017
:1022200001238340014A13607047C04600E200E08A
:10223000064B10309B688000C358054A00209B1A4B
:102240002F229A424041C0B27047C04600ED00E0E4
:10225000A011002070B50D00EFF3108672B60F4A82
:102260001368002BFCD0BFF35F8F0D4B10309B68C1
:1022700084001B590B4A934203D09D4201D001F0C8
:1022800003FA074B9B681D51BFF35F8FBFF35F8F4E
:102290000022024B1A6086F3108870BD240100D022
:1022A00000ED00E0C1010010F0B557464E46DE4695
:1022B0004546E0B585B0060000911700EFF3108B9E
:1022C00072B66A4A1368002BFCD0BFF35F8F0025FB
:1022D000674B5D579A46002D00DAA9E06B00654C0C
:1022E00001935B199B009846A146C1444B46524658
:1022F0009B7910361370604BB6009B6899590B1B85
:102300002F2B33D95D4B994200D0ACE0019B424664
:102310009C465B4B6544AD0063535A4B0232A21896
:10232000043B9B1A1B05584A5B0D651913436B80D0
:10233000564B0121AB80FF23AB71009BEF71AB606B
:102340004B460B4319004C4B9B689951BFF35F8F71
:10235000BFF35F8F0022454B1A608BF3108805B0E6
:10236000F0BCBB46B246A946A046F0BD01200A001B
:102370008243D3798C46BB4231D845461300444949
:102380001B1B5B415943090D3D4B63533D4B0235CC
:102390006519043B5B1B1B053B4D5B0D2B43AA469C
:1023A0004D466B800425AC465546E044131F44441B
:1023B0001B1B1B055B0D1D434B46997100999D80AE
:1023C00099604946DF71334B01431360BBE7580006
:1023D000C01880002018C179B9422FD90200062305
:1023E000D356002BF3DA02932B4B61460393131D54
:1023F0009A4604235B429C46E14450464B461B1AD6
:102400001B055B0D9C46204B9571984663464046E4
:1024100003439380019B5A199200039BA418A38045
:10242000029B1C4AA371009B2260E771A3608AE7AC
:1024300001F02AF9002553465D574FE79088029333
:102440004005131D9A46031561469C464046D444F8
:10245000634604302018181AE0230005400D1B02C3
:1024600018430390C5E701F00FF94FE7240100D0AE
:10247000B5230120A011002000ED00E0C1010010F3
:1024800000A1FFFFD011002000E0FFFF01BDFFFF12
:10249000AAAA00000148804701BD0000F0B5DE4651
:1024A00057464E464546E0B50C0083B0EFF3108822
:1024B00072B6634A1368002BFCD0BFF35F8F614B89
:1024C00061499A68030010339F00D55901938D42EA
:1024D00043D0A54254D05D4EAA1B2F2A3DD85C4B59
:1024E0009B461B68994601231A009C4682404B4636
:1024F00013401F2299466346024093409A46802229
:102500005B4650469850BFF35F8FEFF305839B46C1
:10251000002B37D0019B5B4501D001F0B5F80123BA
:102520002A009A439068844208D176E04B005B18F9
:102530009B00F3189868844236D01A000621515641
:102540000029F3DA844254D04B46002B27D0C02216
:1025500051463F4B5200995019603A4B9B68DD51F0
:10256000BFF35F8FBFF35F8F0022354B1A6088F394
:10257000108803B0F0BCBB46B246A946A046F0BDE9
:102580000D00EAE72A0063469A4390688442D5D159
:1025900006201056130000280ADA0D0031E08023CF
:1025A00051462B4AD150D8E706201856002821DB87
:1025B00042001118890074188B46A1689960E1796E
:1025C000D971062161569971002924DBA488F11A7A
:1025D000640524155C44091909051E4C490D214365
:1025E000998013181C4A9B001178F3189971107088
:1025F000AAE713005946002914D1FF3191711749F8
:10260000918015490A789A71154A9B1B5B415A4380
:10261000120D0A7098E71149E2E7062010561300E0
:102620000028C5DA0F4A1049D21A083A5002400D64
:10263000014399800D4952080A43DA8084E7C04675
:10264000240100D000ED00E0C1010010A011002025
:1026500000E100E000E0FFFFB523012001BDFFFF26
:10266000AAAA0000DA11002000F0FFFF00F8FFFF27
:1026700010B58308040003202040FF24054AC00051
:102680009446844081409B0063441A68A2430A43F5
:102690001A6010BD00E400E070B501240443EFF3BC
:1026A0000581EFF3108C72B6214A1368002BFCD021
:1026B000BFF35F8F1F4B05001F4AED1A6D416A4340
:1026C000120D1E4D8900AE6852B27658A6421CD03B
:1026D0000621595691421CD012215956914222D0BE
:1026E0001E215956914220D02A2159560324914245
:1026F00010D0134B19781A708171BFF35F8F0022CD
:102700000B4B1A608CF3108870BDAB680D4C5C509D
:10271000EFE700246100091989005B18FF21997116
:1027200009499980E5E70124F4E70224F2E7C0466D
:10273000240100D0A0110020AAAA000000ED00E0B2
:10274000B5230120C101001001BDFFFF1F2110B5FD
:10275000091A0248FFF7ECFC10BDC046C223012055
:1027600010B5084B084C82B00100009300220523ED
:102770002000FFF799FC002801DB1F23181A02B084
:1027800010BDC046CCB40110C223012070B50400B6
:102790000E001500FFF7E8FC0100200000F006F82D
:1027A000A680E580BFF35F8F70BDC046024B9C469C
:1027B00061448900016070474000003470B5114CDD
:1027C000114DAC420FD2FF262368002B0CD0FFF72F
:1027D000CBFC01002000FFF7E9FFA680BFF35F8F6D
:1027E0000834AC42F0D370BDFFF7BEFC01002000FE
:1027F000FFF7DCFF2671BFF35F8F0834AC42E3D3F1
:10280000F1E7C046B8120020C012002010B5040045
:10281000FFF7AAFC01002000FFF7C8FFFF23237188
:10282000BFF35F8F10BDC04610B50400FFF79CFCDE
:1028300001002000FFF7BAFFFF23A380BFF35F8FE3
:1028400010BDC04610B504000120FFF799FC034BF2
:10285000C3189B002360BFF35F8F10BD400000349E
:10286000034B9C46614489000160BFF35F8F704752
:10287000400000340A4B1968EFF3108072B60A6802
:10288000002AFCD0BFF35F8F1B68BFF35F8F00226D
:102890001A6080F3108840BF002000217047C046B6
:1028A00048230120F0B5DE4657464E464546E0B582
:1028B00087B0EFF30583032201251A40954091006C
:1028C0008846A946B34B03925C58B34B1D60B34B8B
:1028D00004934B46B24843630823E55E002D37DA84
:1028E000A3881BB2002B00DBADE0A379002B00D046
:1028F000EEE00823E05E002820DB430062691B183D
:10290000DB00D3189E68DD68731C00D111E1A44878
:1029100001004144826A0B69B71A9B1A9F4215D382
:102920000123026A039883401A420FD09C4800F0AA
:1029300093FC8D4202DCCCD18642CAD940BF07B09D
:10294000F0BCBB46B246A946A046F0BD0E61EDE71D
:1029500062696B0092465B19DB009A4453469E689D
:10296000DF6800F079FC8F42BADC00D103E1002F70
:1029700000DAE8E05246534652691B699346049ACE
:10298000934200D1D9E052460821605E528800048B
:10299000594610439847009001910099019A0B0005
:1029A0001000134300D1CEE013000A00B61A9F4175
:1029B000002806DB7A4800F04FFC009E019F361885
:1029C0004F4153469E60DF6000229A5E002A00DA83
:1029D00086E7530099186069C900411802938B6813
:1029E000C9689B46B94200DD7AE702D1B34200D9FB
:1029F00076E708239C46A444059565462281A446B3
:102A0000029B2C0006E053009918C90041188D68FC
:102A1000C968AB469B18DB00C318B94206DC00D17D
:102A2000B3E01C000023E25E002AECDA23006446D7
:102A30009C4653461A806346059D1D80A3881BB2A1
:102A4000002B00DA51E72269EFF3108172B61368A8
:102A5000002BFCD0BFF35F8F0123A7885B42A380CC
:102A60003FB22369BFF35F8F00221A6081F31088A1
:102A7000002F00DA39E72300083322009A466669FE
:102A80007B00DB19DB00F318996850468C4608245C
:102A9000115FDD68002910DB029306E0AB4244D0F1
:102AA0000023E15E2000002906DB4C006418E400EE
:102AB0003419E368AB42F1DD029B078000201F5E02
:102AC0001980002FDCDA1400A379002B00D110E765
:102AD0000023A37126000823E15E08364B1C00D1B9
:102AE0002CE70800A246656902E03E004B1C1AD0A4
:102AF0004B005B18DB00EF180A008C46E95E7B8810
:102B00001BB2002BF1DA01235B42DC17BB60FC60D7
:102B1000824205D0534631801B893B8053461A813F
:102B200060464B1CE4D15446E5E6A3686345B7D93B
:102B3000C2E76B1C00D0EAE6F8E65B4658461B6924
:102B4000984700281BD153461B8822692381EFF345
:102B5000108372B611680029FCD0BFF35F8F514615
:102B600062880A8022696580BFF35F8F002111604F
:102B700083F31088B4E6864200D8F8E6B0E65B46F8
:102B80001A685B680092019307E7B34500D848E7ED
:102B90004CE7C046AC0201203C700540A52800105F
:102BA0000040054070B52E4C2569002D04D00A2147
:102BB0002C48FFF7FBFD70BD2B4E0321300000F0C9
:102BC00041FBE660FFF7D0FA284B03229C46D02356
:102BD00022701B061B6801216370254B6044A360B3
:102BE0000F23800020610220638063694942A18035
:102BF00019800231198647311D83585218315A52B3
:102C000075325C39995218320131995218320131BA
:102C10009952183201319952083518329D520231B9
:102C200018329952183201319952183201319952A1
:102C3000183201319952183201319952183201314A
:102C400099520C4B0C49DC6001303562FFF702FBF6
:102C500001210320FFF7C6FA084B1D60A7E7C04615
:102C6000E8110020482301200040054040000034C6
:102C7000FFFF1000AC020120A528001038600540BD
:102C800000487047E8110020F8B51F0008AB1B781A
:102C900004001600002B08D100F0E6FA32003B00D9
:102CA000121A8B41002B00DA52E02269EFF31080F8
:102CB00072B61368002BFCD0BFF35F8F0223E15E76
:102CC00063694A005218D2009B182269002936DB3A
:102CD0001D886580BFF35F8F0025156080F3108825
:102CE000069A9E60DF601A61079A5A615A8801321B
:102CF0005204520C101C002A1FD082B258800804C3
:102D000010432669EFF3108772B63268002AFCD0B0
:102D1000BFF35F8FA2881A80A1802369BFF35F8F02
:102D200000221A6087F310880A4923788C46013202
:102D30009A40E36863441A60F8BD0120DDE7BFF301
:102D40005F8F0023136080F3108801204042F3E777
:102D50000020F1E73C20000070B501000469EFF3AA
:102D6000108C72B620680028FCD0BFF35F8F022061
:102D70000D5E4C6968004019C00024180869002DD8
:102D800036DB26884E80BFF35F8F002606608CF30B
:102D90001088E36063880498013320615B04059820
:102DA0005B0CA26060611A1C002B1FD093B2280438
:102DB000628018430A69EFF3108C72B61368002B17
:102DC000FCD0BFF35F8F8B8823808D800B69BFF3AE
:102DD0005F8F00221A608CF310880B7801329A40C2
:102DE000CB6808498C4663441A6070BD0122DDE758
:102DF000BFF35F8F002303608CF3108801204042F3
:102E0000F3E7C0463C20000010B543890A14934202
:102E10001ADD53009B184269DB00D3180469EFF3F5
:102E2000108C72B62268002AFCD0BFF35F8F5A88DC
:102E3000090494B2090C8A4208D00369BFF35F8F7A
:102E400000221A608CF31088002010BD802212022C
:102E500014435C80012302698371BFF35F8F0021FB
:102E600011608CF31088044902788C469340C26844
:102E7000012062441360E8E73C200000407870477E
:102E8000F0B506000F0006246442E517C646A419F3
:102E90007D4100B582B08D4214D811D000F0E4F924
:102EA00022002B00121A8B41002B15DC002B44D082
:102EB0003000390000F0E2F902B080BCB846F0BD45
:102EC0008442EBD90024002500F0CEF922002B002B
:102ED000121A8B41002BE9DD00F0C6F922002B000D
:102EE000121A8B41002B0ADB00230193144B2200A2
:102EF000009314482B00FFF72FFF0130D8D0A046D5
:102F000029000024104A1148536A994204D8956A4E
:102F10004545CDD29942CBD10568EFF3108C72B6FE
:102F20002B68002BFCD0BFF35F8F0368BFF35F8F6C
:102F30001C608CF3108820BFE6E7002AB8D0CBE7EE
:102F400075280010E81100200040054048230120AA
:102F5000F0B5C64600B582B004000D0000F084F95B
:102F600024184D41002D02DA01242F4D644206261B
:102F70007642F71736196F41AF4214D811D000F0DE
:102F800073F932003B00121A8B41002B15DC002B29
:102F900046D02000290000F071F902B080BCB8468C
:102FA000F0BDA642EBD90026002700F05DF9320003
:102FB0003B00121A8B41002BE9DD00F055F932007D
:102FC0003B00121A8B41002B0ADB00230193174BA5
:102FD0003200009316483B00FFF7BEFE0130D8D008
:102FE00000233900B0469C46124A1348536A99425E
:102FF00004D8966A4645CCD29942CAD10668EFF306
:10300000108772B63368002BFCD0BFF35F8F036864
:10301000BFF35F8F66461E6087F3108820BFE5E729
:10302000002AB6D0C9E7C046FFFFFF7F7528001011
:10303000E81100200040054048230120F0B5C646B5
:1030400000B582B0040000F00FF9FA2206000F006C
:10305000200000230021920000F0E8FF8019794150
:1030600004000D1E02DA01242E4D6442062676422B
:10307000F71736196F41AF4214D811D000F0F4F8A9
:1030800032003B00121A8B41002B15DC002B46D07E
:103090002000290000F0F2F802B080BCB846F0BD74
:1030A000A642EBD90026002700F0DEF832003B00F4
:1030B000121A8B41002BE9DD00F0D6F832003B00FC
:1030C000121A8B41002B0ADB00230193164B3200AE
:1030D000009316483B00FFF73FFE0130D8D0002395
:1030E0003900B0469C46124A1248536A994204D8A5
:1030F000966A4645CCD29942CAD10668EFF310874A
:1031000072B63368002BFCD0BFF35F8F0368BFF348
:103110005F8F66461E6087F3108820BFE5E7002AB0
:10312000B6D0C9E7FFFFFF7F75280010E811002027
:103130000040054048230120F0B557464E46DE4684
:103140004546E0B506000F0085B0EFF305839946CC
:103150008B46002B12D0384900204B6ABB4206D365
:103160008A6ADB1B591E8B41B2424041184305B0AD
:10317000F0BCBB46B246A946A046F0BD2F4B9A46CE
:10318000DB68984653461B784046039300F064F88A
:103190004246039B040004339B009B580D001B1AFE
:1031A00039003000001BA941894510DC0DD020BF3B
:1031B000214A0020536A5B45D9D3926ADB1B591E12
:1031C0008B41B24240411843D1E78342EFD900F02E
:1031D0004BF832003B00121A8B41002B1ADB002304
:1031E0000193174B3200009350463B00FFF7B4FDAC
:1031F000011E0FDD104B5A6A5A451BD39B6AB3421E
:1032000016D35046FFF700FE0B4A0020536A5B4579
:10321000ADD3D2E7084A0020536A5B45A7D300200C
:10322000926ADB1BB24240415A1E934118439EE70B
:103230005A45E6D120BFE4E700400540E8110020F0
:103240007528001010B5024A0248FEF70BFF10BDAA
:10325000E8B40110701E00200300416A0A00986A59
:10326000596A8A42FAD17047034B596A0A00986A30
:10327000596A9142FAD1704700400540064A536AA4
:103280009942FCD807D1044B02E05A6A914202D11C
:103290009A6A9042F9D8704700400540F8B5DE467A
:1032A0004E4657464546E0B58B4605000A9918003C
:1032B000160000F041FB0A9B6C001F02324B6419A0
:1032C0009C46A4006444636881469F4200D96760BD
:1032D0002B1FDBB29846012B30D9C02380229B01E3
:1032E000E31812011A60294BAD0059599A4600297A
:1032F0001BD17301E026226853401E4080234246C2
:103300005B01E3181E60012A30D9802380229B01D3
:10331000E31812011A6053464A4667605A51F0BCDE
:10332000BB46B246A946A046F8BD586900F004FB6A
:10333000013043001B18033BFDD2DAE75B46012B4B
:10334000CBD1C02303229B01E3181A60023AA36881
:103350001A42FCD07301E0262268AD0053401E40A3
:1033600080230A4A5B019246E3181E605A46216890
:10337000514003220A401A6001225B469A40A3682A
:103380001A42FCD0C1E7C04600800040781E0020F1
:10339000F0B546464F46D646C0B51F00344B4400F4
:1033A0009C462418A4006444636888461600FF2BDA
:1033B00002D880235B006360031FDBB29A46012BB7
:1033C00030D9C02380229B01E31812011A60294BD7
:1033D00085005959994600291BD17301E0262268BE
:1033E00053401E40802352465B01E3181E60012AB1
:1033F00030D9802380229B01E31812011A608023B8
:103400005B0063604B465F51E0BCBA46B146A846DC
:10341000F0BD586900F090FA013043001B18033BDF
:10342000FDD2DAE74346012BCBD1C02303229B0117
:10343000E3181A60023AA3681A42FCD07301E0262E
:103440002268850053401E4080230A4A5B01914652
:10345000E3181E6042462168514003220A401A6068
:10346000012342469340A2681342FCD0C1E7C04604
:1034700000800040781E0020014B8000C05870473B
:10348000781E0020F8B5040021481E0017000D002A
:1034900000F052FA0100380000F04EFA069B3604A4
:1034A0001B031E432368002B20DB1A4B1A49E31829
:1034B0005A1E93418022920194465B421B0B174A8D
:1034C0001B0363441360164A13601F000A68974386
:1034D000FBD1144B2560E2182123A0601360236800
:1034E000002BFCDA0823E6601360F8BD3F23226856
:1034F0001340AB42D9D1A3681B051B0D8342D4D125
:10350000EE22E368D2021340B342CED1EDE7C046CB
:10351000001BB7000040FDBF08C0004000E00040B5
:1035200000F000400430000010B580241C4BE4057E
:103530001C6000281AD001231A4C18431A4BDC6176
:103540001A4C44401C62596298628021144BC90590
:103550001960174817490860E021C9041960002A5A
:1035600007D18022144B12061A6010BD0E4BD86191
:10357000EBE753019B1A9B009A18802312015B040E
:103580009A4209D213000D490B60074B5A60802202
:10359000094BD2051A60E8E7094B1A00F3E7C04669
:1035A00000B00540D3C007B0008005402D3FF84F64
:1035B000FCFF01000820014000A005406C31002004
:1035C000FFFFFF008023024A9B000B43D36270473A
:1035D00000800540002310B50100988A1B8B984796
:1035E00010BDC046162310B50100188802331B8891
:1035F000984710BDF8B54746CE4680B50F1E18D087
:1036000014239946043304000025012698464B46AE
:103610001888434621681B88984701C4431E984177
:1036200001350640AF42F2D13000C0BCB946B046C9
:10363000F8BD0126F8E7C046002370B504000D0070
:10364000988A05491B8B984703000020002C01DB5A
:103650000130A0402900984755420000AA23064A9D
:103660001B0113608D235B00D3600449044B196078
:103670005368002BFCDA70470040024000B0FA00AB
:10368000006002407047C04610B50148FEF7BCFC20
:103690000CB5011070B5074D074EB54209D2002494
:1036A000013E761BB60808CD984723000134B3428B
:1036B000F9D170BD88A00110C4A00110054B064AC5
:1036C00006491A60064A074B1A6010000B689843B7
:1036D000FBD1704700E00040BFCDFBFE08C00040BA
:1036E000FE7F3C0000F00040044BDB6C002B03D15C
:1036F0008022034BD2021A607047C046000011506E
:103700004C201150044A054B1A60054A1368DB012E
:103710008033FBD17047C046FFFFFF0100F000403F
:1037200008C000404022034B9A675A671A67DA665E
:103730007047C04600F0014010B5FEF733FD10BDE4
:10374000F8B52749274C284D641AA6103200302EB0
:1037500000D930222800920000F0E4FDBC2C3BD8B8
:1037600030202F232C196407204A801BE40F9B1B59
:10377000052B16D93700002C02D0B300771CEA5075
:10378000001B33199B004108EB18C900C9181A60C7
:103790005A6008339942FAD1012303421CD098435E
:1037A000C619B300EA50731C2F2E15D09B00EA50A7
:1037B000B31C2E2E10D09B00EA50F31C2D2E0BD0E4
:1037C0009B00EA50331D2C2E06D09B00EA50731D3F
:1037D0002B2E01D09B00EA50054B9D60F8BDC046E2
:1037E00000010010C001001000000020C101001005
:1037F00000ED00E0002310B5294C82B0A367FFF76D
:103800002DFF0122274B1A60636C012BFCD1032290
:10381000254B1A60224A936B012BFCD10133009394
:103820000121224A22480433FFF72CFE05230121FF
:103830000093204A2048FFF725FE002202210420A1
:103840001E4BFFF7A5FD0022012105201C4BFFF7B1
:103850009FFD0022002107201A4BFFF799FD00224F
:1038600000210820174BFFF793FD8023DB00009316
:10387000002200210920134BFFF710FD0022104BFE
:1038800000210620FFF784FD0420FFF7F5FD0E4917
:1038900000F052F801000020FFF794FE02B010BDC6
:1038A000008000403CB0004030B00040002F68591C
:1038B00000800240008C864700C00240001BB70019
:1038C00040597307006CDC0240420F00014804219C
:1038D000014B184700120020F5350010014B9B6882
:1038E0001847000000120020124A936F9B0815D25F
:1038F0009066D166002905D0FFE7FFE7FFE7516F2B
:10390000106F704704B580210906C2175140002886
:1039100000D0C84316F070FB002104BDF0B5146E52
:10392000556E576F166FFFF7E3FF146655665767BE
:103930001667F0BD000000D0114A936F9B0813D2A8
:1039400010665166002905D0FFE7FFE7FFE7516FDA
:10395000106F704704B5002801D00020C04316F056
:103960004BFB002104BDC046F0B5146E556E576F79
:10397000166FFFF7E5FF1466556657671667F0BDCB
:10398000000000D094464A4A926F9208624601D2E3
:1039900028E0C046F0B5464E346E756E776F366FD0
:1039A00000F020F89446424A146655665767166739
:1039B0006246F0BD94463E4A926F9208624601D23A
:1039C00054E0C046F0B53A4E346E756E776F366F80
:1039D00000F04CF89446364A1466556657671667E9
:1039E0006246F0BD002B24DB11D000293EDA00B581
:1039F000C943404200D1013100F038F8C943404288
:103A000000D10131DB43524200D1013300BD002A15
:103A1000EBD1002801D1002905D00020C90FC9072A
:103A200001D1C043410800B516F0D6FA00220023A8
:103A300000BD00B500290ADBDB43524200D101334F
:103A400000F014F8C943404200D1013100BDC94320
:103A5000404200D10131DB43524200D1013300F03A
:103A600005F8DB43524200D1013300BD002923D1C8
:103A7000002B18D1002A0CD0BC460D4F38667A6650
:103A800000210023FFE7FFE7FFE77A6F386F674603
:103A90007047002801D00748010000B516F09CFAD5
:103AA0000022002300BD02000B000020002170470F
:103AB000000000D0FFFFFFFF002B00D0BFE0130C81
:103AC00028D1002AE7D080B4114F39667A66FFE723
:103AD000FFE730B4040C7B6F396F1B0423433B6654
:103AE0007A66FFE7FFE7FFE7C04684B27B6F3D6F72
:103AF0001B0423433B667A66FFE7FFE7C0460023CB
:103B00002C042D0C7A6F386F00196941B0BC7047D6
:103B1000000000D0F0B594460025140E01D1120229
:103B20000835140F01D112010435940F01D1920010
:103B30000235D40F01D152000135D40B0134254F89
:103B40007C66254C3C660E0C93B2FFE7FFE7FFE76F
:103B50003C6F6643360C7703BE467343DF0B5B0452
:103B6000C01AB941130C7343DB18C91ACE08664357
:103B7000360CB64493B273431F0F1B01C01AB941F0
:103B8000130C73431F0B1B05C01AB941860D8F021E
:103B90003E436643360C092D24DB520A7243801AD9
:103BA0007703460A6643360C16235B1BDE40DF4074
:103BB000BF1964466643821B704604350633010014
:103BC000D940A840C01900D30131A24206D2002337
:103BD000F0BD0000000000D0FFFFFFFF121B01300E
:103BE000F3D3F1E709277F1BFE406446A2B272437C
:103BF000801A00D20139220C7243130C1204821A6B
:103C000099410B007046043513370100F940A84074
:103C1000801900D30131002B02D1A2420AD2F0BD9B
:103C2000013000D30131121BFAD2013BF8D1A2427C
:103C300000D2F0BD013000D30131121BF7E7F0B51F
:103C40001C0C00D080E00CB400251C0A04D11B021F
:103C5000160E3343120208351C0B04D11B01160F3C
:103C60003343120104359C0B04D19B00960F334360
:103C700092000235DC0B02D192185B4101351C0029
:103C8000971864410134464F7C66464C3C660E0CE6
:103C9000FFE7FFE7FFE7C0463C6F6643360C77035C
:103CA000BE4697B27743C01B00D20139C01B00D279
:103CB00001399FB27743C91BC91B170C77437E0498
:103CC000FF0B801BB941CE086643360C0C2D33DB4D
:103CD000B644120B1F053A431B0B97B27743C01B28
:103CE00000D201399FB27743C91B170C77433E04BA
:103CF0003F0C801BB941860D8F023E436643292746
:103D00007F1BFE400C3D7746AF40BF1930BCA2B2CE
:103D1000ABB272437343801A9941220C7243130C65
:103D20001204801A994102000B000137001BA941BF
:103D3000F9D2781E0021F0BD0C277F1BFE4077468C
:103D40007F0BAF40FF19E0E700245D1C07D0144F44
:103D50007D663966FFE7FFE7FFE7FFE73C6F95B257
:103D60009EB265436643401BB141150C1E0C654372
:103D7000664336042F0C3E432D04401BB14199424B
:103D800004D202000B0020000021F0BD01D19042BE
:103D9000F7D3801A994101349942F2D3F6E7000033
:103DA000000000D0FFFFFFFF48404140484018B4EA
:103DB000134B5B68019308BD18B4114B1B6801934A
:103DC00008BD94460F4A926F920805D2624618B415
:103DD0000B4BDB68019308BD0A4AF0B5146E556EB3
:103DE000576F166F6246FFF7F2FF064A1466556674
:103DF00057671667F0BD18B4014B9B68019308BD67
:103E0000B0140020000000D0FFB5504042405040A8
:103E100059404B40594000E0FFB5154F4C00640D30
:103E200003D0BC4204D10C0314D80020090D0905AD
:103E30005C00640D03D0BC4204D11C030AD80022EC
:103E40001B0D1B0501264B4009D44B4003D58B426B
:103E500000D18242FFBD9942FCD19042FFBD0B438D
:103E6000DB1803431343F5D0C9434918FFBD0000D5
:103E7000FF07000000B5FFF7CFFF804100BDC0463F
:103E800000B5FFF7C9FF01D9002000BD012000BD2A
:103E900000B5FFF7B9FF01D9002000BD012000BD2A
:103EA00000B5FFF7B1FF804100BD012040054A0089
:103EB000121804D85A00121801D8002070470120A7
:103EC000704700000021002805D17047C117484005
:103ED000401AFAD0C90713B5064B1B6898470CBCAB
:103EE000441CA2401005120B0349091B0905194384
:103EF000114310BD442201201F04000010B54C00E6
:103F0000620D8023D218DB00D21A5B057E2A10DDF9
:103F10009E3A13DACC170903490819435242D1409B
:103F2000640001341532202A05DAD040084360438A
:103F300010BD002010BD0846604310BDC80FC0185A
:103F4000013810BD18B4024B5B6A019308BD000034
:103F5000B014002010B50148FEF756F818B501104E
:103F6000132370B51D78012D19D014DD1D48FFF7FE
:103F700039FB06001C48FFF735FB1C4C8022310042
:103F8000200000F0CFF9022D06D01948FFF722FBE0
:103F9000184B186070BD154C174BA364F5E7174B11
:103FA000124C23606360A360E36023616361A361DB
:103FB000E36123626362A362E36223636363A363D7
:103FC000E36323646364A364E36423656365A365B7
:103FD000E36523666366A366E36623676367A36797
:103FE000E367D9E75344000053460000B0140020B3
:103FF0004C3300004422012001400010553F0010C6
:1040000007B5604601880A0A0230DF2AFAD1C9B230
:10401000820804D3028840880004104300E000684E
:10402000014A5050039007BDB01400205143434350
:10403000C9188C46110C83B24B4310B4040C614375
:1040400092B280B2504362431C041B0C001910BC96
:1040500059411304120CC0185141614470470000CB
:104060004840414048400E4B5B6818470C4B1B686A
:1040700018470C4A936F9B0802D2094BDB6818471C
:10408000F0B5146E556E576F166FFFF7F6FF054AC1
:104090001466556657671667F0BD014B9B68184755
:1040A00048220120000000D0491A002808D1084603
:1040B00070470000C10FC90700D54042002817D043
:1040C000F44603B40B4B1B68984706BC81409E38EE
:1040D0004042803107D20B0607D04900490AC0058B
:1040E0001043084360470130F8E7490A8902F5E7C1
:1040F0007047000044220120014B1B6B1847000051
:1041000048220120034A10470029FBD0024B5B6E76
:1041100018470000A940001048220120014BDB6F26
:1041200018470000482201204100090E862902DAC2
:10413000044B1B6C1847044900B500F0DFF802BCC3
:104140008E46F5E748220120DB0FC94010B5014833
:10415000FDF75AFFD4AD0110132310B510481C7899
:10416000FFF740FA0100012C0AD003DD80220D4840
:1041700000F0D8F80C48FFF72DFA0C4B186010BD72
:10418000084C5422200000F0CDF82200084980326B
:104190002368002B00D1216004349442F8D1E9E770
:1041A00053460000482201204C33000044220120E5
:1041B0004D410010F0B546464F46D646C0B5FF26E5
:1041C000C50DCB0D354088461700041C1E40002A43
:1041D00001D000231360FF2D5DD0002E5BD0002D99
:1041E0005CD0201CFF2E51D03300013BB246AB42C5
:1041F0004CDC802109048946E20F6402640A0C4306
:1042000041464E464902490A0E43B146AB4247D0A9
:104210005346ED1A002A4CD06442002D58DD4B461F
:104220000120D9114042FFF787FB1D2300219C4646
:104230002A000C2D00DD0C22664663129440434395
:10424000B61A334126004C46914001335B105C4363
:104250005918341BAD1A002DEADCA1453FDC4B4652
:10426000E41AA14548DCE41A023163004B452BDC1B
:104270003DD04346002B00DA4942002F00D0396080
:10428000962153462000C91AFFF736FFE0BCBA4614
:10429000B146A846F0BDFF20C005F7E70020F5E7CE
:1042A000B442F3DD7300002A1CD1AA460121E41AAE
:1042B000DFE7002DB3DC0021B44205DBA41B0121A4
:1042C00063009E4200DBD4D14B460131E41AD0E7B3
:1042D00000214B46E4180DD54C440239C5E7002CAB
:1042E000C3DAF6E70121AA461C1B4942C1E7CB0706
:1042F000BFD5E9E70139B8E70131B6E710B50022CB
:10430000FFF758FF10BDC04601480421014B184774
:1043100010120020F5350010014B1B6818470000F3
:1043200010120020014B5B6818470000101200209B
:104330009A4200D2885470477047C046F8B5574635
:10434000DE464E464546E0B599460A9B07009A462A
:104350000D9B884693460B9C9B073BD10C9B9C4234
:104360003DD21E1B0B9415000C005E442A004B46E8
:10437000013521002020B847B542F7D1A0460B9C5B
:10438000002C20D0454636195346321B013C185D9F
:1043900029004B46B847002CF6D12B003500984633
:1043A0000D9B9B070FD55B46EC1A0C9BA3420AD9C9
:1043B000464698462A004B46310020200134B84733
:1043C00001354445F6D32800F0BCBB46B246A946A9
:1043D000A046F8BD16001500002CD3D1E0E716006A
:1043E0001500002CCED1EEE7F0B54546DE46574627
:1043F0004E46E0B585B09C4610AB1B78149F9346A3
:1044000098460F9C129E139DBB074CD4002D42D1A1
:10441000B44248D201233B4099460E9B013B9A4649
:10442000302304E0524601341355A64201D9202C12
:10443000F8D14B46002B00D183E00E9B013B9946FF
:104440003023A54205D82EE04A4601341355AC422C
:1044500029D0202CF8D1FB060CD57B0554D4A642DC
:1044600063D0A54261D0119B102B50D0022B57D0A6
:10447000202C32D1202301930E9B5A4600930397A0
:1044800063460295FFF75AFF05B0F0BCBB46B24643
:10449000A946A046F0BD01233B40994601233B427B
:1044A0002AD1B442B9D3FB061CD57B05DBD4002C42
:1044B000D5D1119B102B5BD0119B022B6BD03023DD
:1044C00001240E9A13704346002B10D17B073ED572
:1044D0002B260E9A631C1655CDE723000134302697
:1044E0000E9AD654202CC5D04346002BEED02D2654
:1044F0000E9A631C1655BEE74346002B2FD0013D94
:10450000B44200D289E798E7119B102BB2D1BB06C9
:1045100037D5202CAED058230E9A13550134A7E777
:10452000202CA7D02300013407E0631E012CC0D04B
:10453000119A102A31D0022AD1D162260E9AD6546D
:1045400096E7FB06CED57B0500D488E78BE72300F2
:104550003E0790D520260E9A013316558BE70C2383
:104560003B405A1E9341ED1AB44200D255E764E72E
:10457000BB060ED478230E9A022413703023537096
:10458000A1E7202C00D175E778230E9A135501344A
:104590006EE75823EFE76033EDE70E9AA61E9146CB
:1045A0004E44BA0602D55822327098E7782232700B
:1045B00095E7C04610B5002800D110BD01F092FC6F
:1045C000FBE7C0460B0010B5002802D049681B6805
:1045D000984710BDF0B55746DE464E464546E0B515
:1045E00095B083460F00924698461E9A1F9B100076
:1045F0001900209EFFF759FC002800D0EAE11E9820
:104600001F990122C54B5242FFF734FC002800D00D
:1046100014E11E981F990122C14B5242FFF740FC42
:10462000002800D0E9E01E981F990022BD4BFFF73B
:1046300037FC002800D0C8E01E981F990022BA4B12
:10464000FFF718FC002800D0BFE01E981F99002239
:104650000023FFF70FFC002800D0E4E000230B93B9
:10466000229B5B0500D406260024302307E0172197
:1046700006AA013452181355013E202C01D0092EF0
:10468000F5D81E981F99FFF739FCA84BF2009B182C
:104690001A685B68050008920993FFF717FC02008F
:1046A0000B001E981F99FFF782FB089A099BFFF7E2
:1046B000A2FB06900791FFF745FC8146FFF702FC3D
:1046C00002000B0006980799FFF771FB0022984B38
:1046D00006900791FFF7E4FB002800D10DE10123CC
:1046E0009C46E1444846FFF7EDFB02000B000898AA
:1046F0000999FFF7C5FB002802D000239946013530
:10470000002E00D1D9E006954D46B94614E006AA20
:10471000944617230A216344280001341F19FFF728
:104720000BF93031397028000A21013EFFF704F9F6
:10473000092D00D817E10500202CE8D14F46069D31
:1047400020240CAE06AA17239446634499465B4680
:10475000B34606930FE04B4628000A210134E618C1
:10476000FFF7C2F83031280031700A21FFF7BCF89A
:10477000051E00D1E4E0202CEDD1069B5E469B4651
:104780000323229A1340012B18D1219B002B15D013
:104790000B9B002B00D1FDE0219B013B2193202BA3
:1047A0000CD93023219A07E0172006A901340918F3
:1047B0000B55944200D3CCE0202CF5D1229B0194E0
:1047C0000393219B0096029322E0229B524604937E
:1047D000219B3900039358461E9B1F9C0296009311
:1047E0000194434600F04AF90400200015B0F0BCE3
:1047F000BB46B246A946A046F0BD229B5B070FD43C
:1048000003224C4B2299019203912199009302912A
:104810004346524639005846FFF790FD0400E4E74E
:104820000422454BEEE71E9A1F9B00200021FFF754
:10483000BEFA01231E901F910B9311E7229B544651
:104840009B0711D1219B042B0ED9219B55469C46D9
:104850005E46043C64442A0043460135390020206A
:10486000B047A542F7D1B346344D26002B1F9946D9
:104870005B46A3461C003200E87843463900013D00
:10488000A04701364D45F6D123005C469B46229B4E
:1048900004349B07A9D55346219AE31A9A42A4D916
:1048A0005E4615002200434639002020B04753469B
:1048B0000134E31A9D42F5D897E72800FFF706FB7D
:1048C00002000B001E981F99FFF771FA0022184B87
:1048D00006900791FFF7CEFA0CAE002800D031E722
:1048E000069807990022124BFFF7DAFA002800D049
:1048F00028E7012301359D4324E700220698079904
:104900000B4BFFF7B7FA002800D0F9E64B46002B17
:104910005CD101239C46E144F2E6C046FFFFEFFF75
:10492000FFFFEF7F65CDCD4165CDCDC1A8D501108D
:104930000000E03F78B5011070B5011080B501109E
:10494000069B5E469B460323229A1340012B00D10F
:1049500081E0202C00D131E70B9B002B27D02D23A9
:10496000335501342AE74F46069D202C00D1E7E657
:104970003022331907E0172006A9013409180A5517
:10498000202C00D1DCE6A342F5D12E220CAE01345E
:10499000F254D7E60C23229A134257D0219B013BB5
:1049A0002193A34200D9FCE6202C00D106E7229BEC
:1049B0005B0703D52B2333550134FFE6229B1B07EE
:1049C00000D4FBE6202333550134F7E6DB0700D49F
:1049D00096E69EE7229B55469B0711D1219B032B10
:1049E0000ED9219B54469C465E46033D65442200F9
:1049F0004346013439002020B047AC42F7D1B346DA
:104A0000B9465F461C4EEC1C2A00B0784346494626
:104A10000135B847013EAC42F6D1229BBB464F461A
:104A20009B0700D4E1E65346219AE31A9A4200D844
:104A3000DBE65E4615002200434639002020B047E1
:104A400053460134E31AAB42F5D3CEE6219BA34291
:104A500000D9A6E6B2E6219B002B00D179E70B9B9B
:104A6000002B97D0219B013B21939C4200D298E6DA
:104A7000202C00D073E7A1E67CB50110F0B5DE462E
:104A800057464E464546E0B599B081468B4692461C
:104A90009846229A239B10001900FFF706FA002877
:104AA00000D0CAE0229823990122824B5242FFF79C
:104AB000F7F9002800D0C0E02298239901227E4B0C
:104AC0005242FFF7D7F9002800D0B6E02298239988
:104AD00000220023FFF7CEF9002800D0C9E1229B75
:104AE000239C08930994089809998023269ADB004F
:104AF0001A400D928022269C1201144022000B9431
:104B0000269C07000E001C4200D0ADE00B000343C2
:104B100000D0D5E0002A00D00AE222000633249318
:104B2000022313400C930223134200D002E2259B80
:104B3000042B00D20FE2043B0B93002304250A93BD
:104B40000022229823990023FFF794F9002800D02F
:104B500003E25A4B269A134004930B9B0393249B26
:104B60000293089B099C0093019459464346524680
:104B70004846FFF72FFD02002020269B1F270340F9
:104B800059424B415B421840531C089359464346D7
:104B90004530C8470A9AD317D4185C40D30F0A93FC
:104BA0006B1E0B9308AB9C460025674401E0202D4B
:104BB0000FD020000A21FEF7BFFE01357E193031EB
:104BC000317020000A21FEF7B7FE26000400092EEE
:104BD000EDD8052306930B9B5946059300230493B8
:104BE0000A3303930A9B4846029310AB0093089A3A
:104BF00043460195FFF7F8FB0C9B002B2DD0534645
:104C0000C41A259BA34228D94D465F4681461E0003
:104C1000534639001A19202043460134A847A642BA
:104C2000F6D8534648462599C21A013200239142CC
:104C300000D386E1013018180FE0269B0493259BD2
:104C40000393249B0293229B239C0093019443464D
:104C5000524659464846FFF7BDFC19B0F0BCBB466A
:104C6000B246A946A046F0BD01432BD10B9B2200C2
:104C7000002B00D154E700230A93249B0A9A0024B6
:104C8000934200DD85E12298239900220023FFF75B
:104C9000F1F8002800D035E1269B084A02941A401A
:104CA0008023DB0013430493259B0393089B099CFB
:104CB000CBE7C046FFFFEF7FFFFFEFFFFFF7FFFFF0
:104CC00006232493B44B70009C46400D6044FFF7CC
:104CD000FDF8B24AB24BFFF78EF8B24AB24BFFF77B
:104CE0006BF83603B14B360B334304000D0038002C
:104CF00019000022AE4BFFF75AF8AE4AAE4BFFF751
:104D00007AF802000B0020002900FFF755F8FFF7A2
:104D1000F5F80A90FFF7DAF8A84AA94B04000D004D
:104D2000FFF769F80022A74BFFF746F8FFF7E6F810
:104D3000A54A0600A54B20002900FFF75CF80400F7
:104D400030000D000C96FFF7C1F8A14AA14BFFF708
:104D500052F802000B0020002900FFF728F802009B
:104D60000B0006000F00FFF746F8320004000D00AC
:104D70003B0030003900FFF71FF800220E900F9122
:104D8000954B20002900FFF71CF80022934BFFF7FA
:104D900013F802000B0020002900FFF712F8002290
:104DA0008F4BFFF709F802000B0020002900FFF7E6
:104DB00008F80D008021040032003B000020C905E6
:104DC000FEF7F5FF02000B0020002900FEF7F4FFBC
:104DD00002000B000E980F99FEF7F3FF0022734BB1
:104DE000FEF7EAFF7F4B0C9C9C466444002223059F
:104DF000FFF701F806000F0002000B000898099960
:104E0000FFF738F800280AD00A9B3000013B390030
:104E10000A930022714BFEF7D4FF06000F000A9A96
:104E2000330063323900C62A12D80222269804259C
:104E300010400B9A0C90002A25D1259B042B05D9F4
:104E4000002800D0A1E0259B043B0B93042541E002
:104E50000222269810400B9A0C90002A12D1259B12
:104E6000052B76D9002872D1259B0525053B0B9390
:104E700034E0802212069446229B0893239B6344CD
:104E8000099330E605250B4300D1F6E60898099909
:104E9000554A564BFEF7FCFF002808D008980999A0
:104EA0000022534BFEF7E6FF002800D0E5E6249BE6
:104EB000002B1CD00D9B002B19D0249B013B24936D
:104EC000259BAB4204D90C9B002B5AD002230C9398
:104ED00000230B930A9B002B00D131E60898099917
:104EE00032003B00FEF76DFF0890099128E6259BF4
:104EF000AB42EDD90C9B002B43D000230B93023324
:104F00000C93E7E78020269B3A4A00061A4080234C
:104F100084460294089C099D2900DB0013430493F6
:104F2000259B6144220003930B00009201938EE6BF
:104F30000524A8E600230B930A93023304250C935F
:104F4000FEE553468C46013B63441B1A72E602237E
:104F50000C930525C2E70423EDE58020089E099FF8
:104F6000000639008446269A224B6144134004937C
:104F70000B9B32000393249B02930B00009201933E
:104F8000F3E5259B5B1B0B93A4E7022304250C93FD
:104F9000A0E79C1A013C76E601FCFFFFFB799F50DD
:104FA0001344D33FB3C8608B288AC63F0000F03F4C
:104FB0000000F83F61436F63A787D23F71A379096F
:104FC0004F930A400000E03F1655B5BBB16B02405D
:104FD000EF39FAFE422EE63F00002C40000024404C
:104FE00000001840FF0300002D431CEBE2361A3F7F
:104FF00080842E41FFF7FFFFF0B5DE4657464E4650
:105000004546E0B5A5B01E002E9B92460C93CD4AB6
:10501000CD4B80468B461A60002900D1EAE100237F
:1050200030789946002800D1ECE1C84B4C460B93F0
:10503000C74B454657460E930AE0631C984622002C
:105040003B005946A84744463078002800D187E005
:1050500001362528F1D108239A46043B9946023BA4
:105060009846013B00229C460D943078711C030049
:10507000203BDBB2102B03D80B9C9B00E3589F46D0
:105080000300303B89460D9C092B3AD900239846F2
:105090002A2800D1C1E000239A462E284BD00300D5
:1050A000683BDBB2122B1ED80E999B00CB589F4653
:1050B00063460E001A43D8E743460E001A43D4E76E
:1050C0004B460E001A43D0E710230E001A43CCE7DC
:1050D00053460E001A43C8E780235B001A43FF3B88
:1050E0009C467078E1444E4667284FD82428A4D9BE
:1050F0000300253BDBB2422B9FD896499B00CB583F
:105100009F46002394461E0000E00131B3009B1926
:105110005B001E180878303E0300303B092BF4D9A1
:105120000123624689469C460023B0469A460E00FB
:10513000E1442E28B3D13021802049428C46C00062
:10514000024370784B4684446146092900D86CE1DB
:105150002A2800D17AE101239C464E46E1449EE78D
:10516000A146A846BA46CA4503D801235B42534428
:10517000994653464A4659460020C047200025B06C
:10518000F0BCBB46B246A946A046F0BD0300693B51
:10519000DBB20D930F2B00D94FE7012199408C46CC
:1051A0006D49894661464B4619400F916346494611
:1051B0000B4200D028E10D9B0A2B3AD0072B00D0E0
:1051C0003BE70C9B190008C98846002B00D14BE136
:1051D00021200243914614A98C461F220F216244CC
:1051E0008C4651460D950C91A24615000F9902E090
:1051F00020290CD0130064461C4020003730092CB5
:1052000000D80738013168541A090F2BF0D80C9BCD
:1052100054460D9D9A460F9133E10C9B02CB884674
:10522000002947DB0C9301239C4670784E46E144ED
:1052300031E70C9B02CB14935346002B00D138E18D
:105240009C4608780B000C908C44002801D100F09B
:1052500098FC89466146944603E05A780133002A57
:1052600001D08B42F9D1494662465B1A0C900F93EC
:10527000530500D520E10223180010400D90134281
:1052800000D1CBE30D930B1BB1469A465E460C98BA
:1052900022003B003100A84753460134185D002826
:1052A000F6D1B3464E460D9B002B00D0C7E1149BB0
:1052B0000C93C9E60C9301239C46283849420243CB
:1052C000884670784E46E144E5E670786C2800D157
:1052D0007FE180235B001A43FF3B9C46E14402E7E9
:1052E00080239B001A4301239C467078E144FAE630
:1052F0007078682800D173E180231A437F3B9C4675
:10530000E144F0E6672800D103E1472800D15AE1E3
:10531000452800D15AE10492072142460C9B039292
:10532000073352468B43190002920CC928000092A1
:1053300001930C9122003B005946FFF79FFB0400AC
:1053400082E6C046F94F0010643100200CD40110F1
:1053500050D401109CD4011041900000462800D187
:10536000DBE00492072142460C9B0392073352462E
:105370008B43190002920CC92800009201930C91F2
:1053800022003B005946FFF725F904005CE6631C48
:10539000984622003B0059462520A847444653E63C
:1053A0000C9B04330D93631C9946920700D422E1B1
:1053B0000C9B2200187859463B00A84743464444BA
:1053C000012B00D885E23300B8462E005F46250049
:1053D0004C46994622004346013439002020B0470C
:1053E000AC42F7D12C00BB46350047464E460D9BDC
:1053F0000C9329E6DB4B3078984600239946002829
:1054000000D012E60024AEE66F2800D188E000D874
:105410000BE31023782800D1CFE09A430A239C465F
:1054200000230F930A330D9380E05646B10089198B
:10543000490001330E181878303E0100303909292F
:10544000F4D9B2461E000133994628E60C9B023679
:1054500002CB8A46C9435046C917084082460C937E
:105460003078731C99461AE61023100098431133C4
:105470001843814680201300C0000340024200D13F
:10548000A9E64B460693082305935346049310233D
:105490000393002302930F9B220001931CAB009304
:1054A00059463B002800FEF79FFF434604000C933B
:1054B000CAE501235B42C3E60F9B534501D953461E
:1054C0000F930223180010400D90134200D1B7E152
:1054D0000D93D1460B1B9A463300A1442E002200A7
:1054E0004D460C98B9465F469B4608E04B4639004E
:1054F000541CB0475346185D002877D022009542CF
:10550000F4D15B46BB464F46A94635004C461E00CB
:10551000C9E680231B011A43FDE620231A4320E736
:1055200008239C4600230F9308330D93802311001A
:10553000DB0019401A4200D116E10D239A431000F6
:10554000802302009B001A401492184200D0C2E14E
:10555000802302005B001A4091460C9A04320F929D
:10556000184200D0B7E2430600D59FE1030600D4FD
:1055700019E30C9B1B880993002B00D0FCE110332E
:105580009843002900D1F7E100239946434605934B
:10559000534604930D9B069003930023D2E05828B2
:1055A00008D0622867D102239C4600230F93023360
:1055B0000D93BBE720231A43103B9C4600230F9317
:1055C00010330D93B2E780231B011A4320231A43A3
:1055D000A1E6C0239B001A43F31C9946B07882E5EC
:1055E000C0231A43F31C9946B0787CE535005E462B
:1055F000BB464F4657E64346012B00D863E1631E86
:1056000043449A463300B9462E005F4655469B46B2
:10561000A24622004B46013439002020B047AC425C
:10562000F7D135005E46BB464F46A14654460C9B1B
:105630004A46187859463B004444A847D7E6A14655
:105640000F9B984500D832E64444E41A3300B8462C
:105650002E005F4625004C46994622004346013401
:1056600039002020B047AC42F7D12C00BB463500B2
:1056700047464E461BE680231000DB0018401A42C6
:1056800000D10FE1112118008A430D920D9A802359
:1056900011009B0019408C461A4269D180231100E9
:1056A0005B00194089460C9904310F911A4200D0D1
:1056B000CAE113005B0600D5F0E013001B0600D41E
:1056C00059E20C9B00229B5ED9175A184A4092B2AD
:1056D000D90F0C91002B00D1F9E1100014AA9446C7
:1056E00042461F23149252466344A84616944D46E0
:1056F0000400B946B2461F00159201E0202D0FD0DC
:1057000020000A21FEF718F901357E193031317079
:1057100020000A21FEF710F926000400092EEDD81A
:10572000149B4F46A94645469846159B56469A46B1
:10573000169C0D9B069343460593534604930A23F8
:1057400003930C9B02934B4601931CAB22000093E6
:1057500059463B002800FEF747FE0F9B04000C93C0
:1057600072E4C046394300100C239A431000E7E668
:1057700007220C9B07339343013294469C446246B4
:105780000C920CCBD90F0F911100194300D191E06D
:10579000D9171391129151401091139959401191B9
:1057A00010981199129A139B801A99411090119197
:1057B00014AA0023944642469946149252461F3337
:1057C0006344A846B24616944E46109C119DB946B5
:1057D00015921F0001E0202E10D0200029000A227F
:1057E0000023FEF7E7F8013630322B00BA550D00E2
:1057F00022000400002BEED1092AECD8149B10944F
:10580000119545469846159B4F46B14656469A46D1
:10581000169C0D9B069343460593534604930A2317
:1058200003930F9B02934B4601931CAB2200009302
:1058300059463B002800FEF7D7FD0400FFF704FCA3
:105840000F9B984500D8C1E18023DB000D934346B0
:105850000F9A1B199B1A994633002E004D46B946E4
:105860005F469B460C9122004B46013439002020B4
:10587000B047AC42F7D143460C9901330F930B78F4
:1058800035000C935E46BB464F46002B00D10EE51B
:105890000D9B002B00D1F6E4002319E60C9B1B782E
:1058A0001A0015E710239A430D92EFE60C9B1B7824
:1058B000099361E6002399460028AAD1002200231B
:1058C0001092119374E70C9B2200187859463B0004
:1058D000A8474C468BE50C9AFA3BFF3B07329A43AC
:1058E0000133994691444B460C93136852681592C4
:1058F0001A4306D11032904300220992002900D0A9
:1059000081E06122810600D54122D2B20A9214AA16
:1059100091460A9A00210A3A149242461792524638
:1059200018925A460991B3461F311E000F9B4944F5
:10593000BA4619941A950024674698468946159DDB
:1059400016901B920AE03032D2B24B4601341A55FF
:10595000A8454AD0202C4AD006000D003A0000236A
:1059600030002900FEF726F8D2B2092AEBD9149BA1
:105970009C466244D2B2E8E76123820600D5412307
:10598000DBB20A3B0C93434614A91F228C461593A5
:1059900053466244A046B2464C461797A9461700A4
:1059A000099D0D9E1490169308E03033DBB201344C
:1059B0003B55B5420ED3202C0CD0050031002800F9
:1059C000FDF7BAFFCBB20929EFD90C9A944663448C
:1059D000DBB2ECE7159B4D46A14644469846169B24
:1059E000564614989A46179FD0E5B742B2D9179BEE
:1059F00057469846189B5E469A461B9B09949B46C1
:105A00001698199C1A9D43460593534604930D9B83
:105A10000690039300230293099B05E70F9B98458B
:105A200000D914E701330F932DE41023110099439B
:105A30000D91692800D0BAE080231000DB001840E7
:105A40001A4200D122E61DE60C9B1B68DA0F1100FA
:105A5000002B00D18CE0DA179818504014AA914618
:105A600042461F23149252464B44A046A94616971D
:105A700004006546B2461F000C91159201E0202DEE
:105A80000FD020000A21FDF757FF01357E19303174
:105A9000317020000A21FDF74FFF26000400092E77
:105AA000EDD8149B444698460C9BAC461900159BB8
:105AB00056464D469A46169F0D9B029106934346C5
:105AC0000593534604930A23039363463CE6002858
:105AD00000D02EE602E60C9B1B689946002B03D1F2
