:020000041000EA
:1000000000B5324B212058609868022188439860DF
:10001000D860186158612E4B002199600221596106
:100020000121F02299502B49196001219960352056
:1000300000F044F80222904214D00621196600F024
:1000400034F8196E01211966002018661A6600F04E
:100050002CF8196E196E196E052000F02FF8012189
:100060000842F9D1002199601B49196000215960AB
:100070001A491B48016001219960EB211966A021F2
:10008000196600F012F800219960164914480160C1
:100090000121996001BC002800D000471248134993
:1000A000086003C880F30888084703B5996A0420EC
:1000B0000142FBD001200142F8D103BD02B5186610
:1000C0001866FFF7F2FF186E186E02BD00000240BE
:1000D000000000180000070000035F00212200005C
:1000E000F4000018222000A00001001008ED00E03C
:1000F00000000000000000000000000074B24E7A12
:1001000000200420F7010010CB010010CD010010E9
:10011000C9010010C9010010C9010010C901001077
:10012000C9010010C9010010C9010010CF01001061
:10013000C9010010C9010010D1010010D301001045
:10014000C1010010C1010010C1010010C101001067
:10015000C1010010C1010010C1010010C101001057
:10016000C1010010C1010010C1010010C101001047
:10017000C1010010C1010010C1010010C101001037
:10018000C1010010C1010010C1010010C101001027
:10019000C1010010C1010010C1010010C101001017
:1001A000C1010010C1010010C1010010C101001007
:1001B000C1010010C1010010C1010010C1010010F7
:1001C000EFF30580103800BE00BE00BE00BE00BECA
:1001D00000BE00BEF2EB887120D1001040D10010AB
:1001E0003802001090A31AE71E481F49086006C88D
:1001F00081F3088810471D480068002801D019487D
:10020000F3E70DA40ECC002902D000F012F8F9E7B4
:100210001749184A002000E001C19142FCD116495B
:100220008847164988471649884700BEFDE701C937
:1002300001C29A42FBD3704740D10010C000002099
:10024000C00C002040DD001000000420000004204D
:1002500040DD001000100420001004200000000009
:10026000704700000000000008ED00E0000000D032
:10027000C00C00208CEE0020814E00103D070010C5
:10028000414E0010F8B5C04606480749091A8B10C0
:10029000C90FC91810B5491003D0044B002B00D06A
:1002A000984710BDC00C0020C00C002000000000CA
:1002B000054B10B5002B03D00449054800E000BFF2
:1002C000FFF7E2FF10BDC0460000000000EC002078
:1002D0005C9D001010B5354804F004FF344804F06C
:1002E00001FF344804F0FEFE334804F0FBFE334CBB
:1002F000200004F0F7FE324804F0F4FE31480121FA
:1003000004F020FF3048002104F01CFF2F4804F0C7
:10031000E9FE2F480F2104F015FF2E4804F0E2FEFD
:100320002D480922082104F00DFF2C480B220A2138
:1003300004F008FF200004F0D5FE29481E22022107
:1003400004F000FF27480F2104F0FCFE2648032399
:100350006E22322104F0F6FE24480A2104F0F2FE57
:10036000234804F0BFFE234804F0BCFE2249234882
:1003700004F0E8FE2249234804F0E4FE2249234821
:1003800004F0E0FE2249234804F0DCFE2249234821
:1003900004F0D8FE2249234804F0D4FE2249234821
:1003A00004F0D0FE200004F09DFE10BD609D001002
:1003B0008C9D0010B09D0010CC9D0010F49D00108D
:1003C000209E0010349E0010489E00105C9E00107D
:1003D0006C9E0010809E0010909E0010B09E001039
:1003E000D09E0010EC9E0010189F0010489F001037
:1003F000649F0010909F0010A09F0010B89F0010F5
:10040000D09F0010E89F001000A0001018A000105E
:1004100034A000104CA0001064A0001078A00010C0
:1004200090A00010A0A00010B0A00010C4A0001068
:1004300010B594B0502000F0CBFA322000F00AFB47
:1004400012AA0021012000F03FFA011E27D1129AC2
:10045000139B164804F076FE129A139B002B19D1B9
:1004600001D10F2A16D8124804F03CFE01F0E4FA3C
:10047000002801D1002016E00E4A02AC1298139910
:10048000009001914021200004F0B2FC200001F016
:1004900087FAEFE7084804F025FE012003E007484B
:1004A00004F050FE012014B010BDC046DCA00010C6
:1004B000F0A0001004A100101CA1001028A1001041
:1004C00010B50921082001F07FFB0B210A2001F063
:1004D0007BFB074B02221A70064804F003FE01F072
:1004E000ABFA002800D110BD034801F059FAFAE731
:1004F00080EE002044A100105CA1001010B51E2267
:1005000052420921082001F033FB222252420B21E2
:100510000A2001F02DFB084B01221A7007481E210A
:1005200004F010FE01F088FA002800D110BD044844
:1005300001F036FAFAE7C04680EE002080A10010F4
:10054000A4A1001070B5CE46464640B55F4CA54408
:100550000A2004F0B9FD5E4804F0C4FD5D4804F0D3
:10056000C1FD5D4804F0BEFD0A2004F0ADFD5B480E
:1005700004F0B8FD5A4804F0B5FD5A480F2104F0C4
:10058000E1FD594804F0AEFD584804F0ABFD584871
:1005900004F0A8FD574800F05DFA574804F0A2FDAA
:1005A000FFF7ACFF554804F09DFD0024312C0CDC16
:1005B00001345348210004F0C5FDFFF739FF00283E
:1005C00005D0642000F046FAF0E7002300E00123A4
:1005D000002B62D04B4804F085FDFFF771FF4A48BD
:1005E00004F080FDFA20400000F034FA474B03226B
:1005F0001A709AAC200000F0CBFAF02252009EA9AB
:10060000684603F005FB9A989B999C9A9D9B00F085
:10061000D7FDA0235B00E358002B46DD3C4804F0E7
:1006200061FD2600E06903F0D3F902000B00789227
:100630007993384804F086FD6569246936482200BC
:100640002B0004F07FFDF02252009EA9684603F0C3
:10065000DFFA9A987168B268F36800F069FE0028C2
:1006600018D12E4B984601F0E7F900281DD02C4AEE
:100670007AAB99464346049302940395789B799C00
:10068000009301948021484604F0B2FB484601F0F3
:1006900087F90AE0234B9846E5E7234804F022FD5A
:1006A000224804F01FFDFFF70BFF214804F01AFD5C
:1006B000204804F017FD204804F014FD8B23DB00D4
:1006C0009D4460BCB146A84670BDC046A8FBFFFF74
:1006D000C4A1001068A20010A4A2001048A300103A
:1006E00058A300108CA30010B8A30010E4A30010BE
:1006F00000A40010B80B00001CA4001044A40010BB
:100700007CA4001088A40010ACA4001080EE00208F
:10071000D8A40010FCA400100CA50010B4A1001077
:1007200020A50010BCA100104CA500107CA5001055
:100730009CA5001040A600107CA6001010B504F087
:10074000BFFCFFF7C7FD214804F0CCFC00F06EF9B8
:1007500000F008FA1E4804F0C5FC0921082001F049
:10076000BBF90B210A2001F0B7F91A4804F0BAFCD2
:10077000194804F0B7FC194804F0B4FC184804F018
:10078000B1FC184804F0AEFC174804F0ABFC174865
:1007900004F0A8FC164804F0A5FC164804F0A2FCDE
:1007A000154800F057F9FFF7CDFE144804F09AFC05
:1007B000134804F097FC04E001F054F9642000F0C1
:1007C00049F901F039F90028F6D1F7E720A7001020
:1007D0003CA7001054A70010609D00106CA70010EB
:1007E000649F00107CA700108CA70010C0A7001009
:1007F000E0A7001008A80010B80B000030A80010F7
:1008000050A8001070B505000C0001F001FA20009E
:1008100001F0FEF901231900A940D022120651620D
:10082000A340936270BD0000F0B5D64600B582B01B
:100830000F00924601248440D0252D066C610A20C9
:10084000002102F0B7F8AC6100240025D0231B067C
:100850005B680126BE401E420DD1012000212418F4
:100860004D4102F0A7F8002D03D1EFD1154B9C426A
:10087000ECD9012022E002F087F9009001910024D8
:100880000025D0231B065B6833420DD001200021D8
:1008900024184D4102F08EF8002D03D1F1D1094BFF
:1008A0009C42EED9012009E002F06EF9009B019C08
:1008B000C01AA141534618605960002002B080BCA4
:1008C000BA46F0BD30750000F0B583B017001D28A2
:1008D00020D81D2922D8884222D06A46FFF7A4FFDB
:1008E000061E18D1009801993A22002302F0A0FCBC
:1008F00004000D003C607D6002225242D317A41810
:100900005D41002D04D106D1C7235B009C4202D972
:10091000032600E00226300003B0F0BD0226FAE70D
:100920000226F8E783001B189B00094884466344AD
:10093000100000290AD01004064A196848401040E7
:10094000802252019446634418607047024AF4E7DB
:100950000C0005400000FFFFFFFF000070B5040021
:10096000042101F03BF91F2C20D86308072119400E
:10097000114B196001200440104B1C60104B114CAE
:100980001C608B005A1892000F4DAC4662448025C3
:10099000ED00556014615B189B0062469A1812685E
:1009A00090430A4A94466344186070BD630803216B
:1009B00019400831DCE7C04644ED002040ED00203E
:1009C00048ED00209598000000000540001005400B
:1009D00010B5041E03DBB42802DDB42400E00024BB
:1009E00063011B1B9B001B191801B42102F0BAFB09
:1009F0000300F533FF33084A10685843074902F0F3
:100A0000D9FB82B2064B1968064B1868FFF78AFFBC
:100A1000054B1C6010BDC04648ED0020204E000074
:100A200040ED002044ED0020F00B0020002207E004
:100A3000064B51008918C8001B1800211974013297
:100A4000092AF5DD024B00221A607047600E002073
:100A500064EE0020F8B5060002F096F804000D00E0
:100A6000FA22920000233000002102F039FF0E002C
:100A7000070002F089F8001BA9418E42F9D801D184
:100A80008742F6D8F8BD000070B502230AE05E1E6A
:100A9000144AF400141965682468DB00D218146045
:100AA00055603300002BF2DC0E4B186059600E4B82
:100AB0001B68022B02DC0C4A013313600024002067
:100AC000002107E0074BE2009B181A685B6880185A
:100AD00059410134044B1A68A242F3DCD31702F0E7
:100AE000A7FB70BD400E00204C160020F0B5C64696
:100AF00000B50C0090461F00503802F035FF174932
:100B000002F025FF164902F00EFF051C20005038A8
:100B100002F02AFF114902F01AFF114902F003FF07
:100B2000061C4046390002F049FF041C281C02F054
:100B300055FF011C201C02F00AFF051C301C02F0AE
:100B40004DFF011C201C02F002FF291C02F0E5FEF3
:100B50004000400880BCB846F0BDC046DB0F4940AD
:100B60000000344310B500210120FFF74BFE0F2099
:100B7000FFF7F4FE5020FFF72BFFFA204000FFF7AD
:100B800069FF024B00221A6010BDC0465C1A0020AB
:100B9000F0B5DE4657464E464546E0B5CE4CA54438
:100BA0008246F8225200002103F02CF8A2235B00B9
:100BB00001225146CA54C94804F094FAC84B1B7824
:100BC000002B03D1C74B00221A600FE000F034FF66
:100BD0000028F7D0C44800F0E3FEF3E7C34BD10090
:100BE0005B1800200021186059600132022AF5DDEF
:100BF0003224002398460026BD4B089300239B46D1
:100C00000793994606E10020002143462933DB0083
:100C100053441860596001239C46E044002D00D0E5
:100C2000EAE00A980B99FFF72FFF02900391AC4B73
:100C30001B78002B2BD102267642F717029A039BD2
:100C4000B6185F410A980B9904900591A948009243
:100C50000193049A059B210004F074FA002F47D1F8
:100C600001D11C2E44D84B46002B1AD0029A039B6C
:100C70009B4503D806D10899914203D9029A039B58
:100C800008929B469C4804F02DFA2E00BCE000F030
:100C9000D3FE0028CFD0029A039B200000F024FD51
:100CA000C9E7964804F01EFA8D4B1B789946002B35
:100CB00008D12E00029A039B08929B4607940123B9
:100CC0009946A1E000F0B8FE071E06D12E00029A58
:100CD000039B08929B46079496E0894800F060FECB
:100CE0002E00029A039B08929B460794B9468BE01C
:100CF000002F07D04B46002B09D1824804F0F2F9AF
:100D00002E0081E0002FF8D11C2EF3D8F5E7E31E6A
:100D10009946079E9F1B7C4804F0E4F9092F00DCEC
:100D20002DE1089A5B46494607963000FFF7DEFE44
:100D30007649049002F00BFE0990754E75493068B3
:100D400002F005FE011C099802F0EAFD011C099061
:100D50003060A0235B005246D658132E00DD12E10E
:100D600073010798985053444A465A609F60089A06
:100D70001A615A465A61049A9A61D961584B1B7894
:100D8000002B0AD1A022520053469B5801335146F2
:100D90008B502E000023994636E000F04DFE0028CF
:100DA000F0D05246A0235B00D058099A049900F075
:100DB0000BFC5246A0235B00D0583B004A460799E3
:100DC00000F0D6FC5246A0235B00D3580CA90C932C
:100DD0007601B3580D93564473680E93B3680F931E
:100DE0003269736910921193B3691293F369139383
:100DF000080000F003FDC5E7013647483200210036
:100E000004F0A0F9012E1ED0354B1B78002B00D02A
:100E1000C3E003346E2C00DDC7E02000FFF7D8FDEF
:100E20006420FFF717FE0AAA00210120FFF74CFDFE
:100E300005004346282B00DDF0E6002800D0E2E65E
:100E40000A980B99E1E64B46002BDDD0E71E079D83
:100E50007B1B9946314804F045F94B46092B00DCD1
:100E600095E0089A5B46390007952800FFF73EFE9B
:100E70002649049002F06BFD0990254D254928680C
:100E800002F065FD011C099802F04AFD011C099061
:100E90002860A0235B005246D558132D7ADC6B01E5
:100EA0000798985053445F604A469A60089A1A61BE
:100EB0005A465A61049A9A61D961094B1B78002BF2
:100EC0002ED1A022520053469B58013351468B50DD
:100ED0000023994698E7C0463CFDFFFF6CA8001030
:100EE00087EE00204C16002084A80010400E002041
:100EF000E703000094A80010ECA80010CCA8001094
:100F0000D8A800100CA9001000A900103333333FFB
:100F10005C1A00209A99993E18A9001038A900106F
:100F200000F08AFD0028CCD05246A0235B00D058A8
:100F3000099A049900F048FB5246A0235B00D05860
:100F40004B463A00079900F013FC5246A0235B0081
:100F5000D3580CA90C936D01AB580D9355446B6895
:100F60000E93AB680F932A696B6910921193AB696A
:100F70001293EB691393080000F040FCA1E72E00E8
:100F80000023994640E72E00002399463CE70023C2
:100F9000994639E70023994636E700F04DFD0028D1
:100FA00000D136E700F05EFD33E74B46002B3AD028
:100FB0006E240798241A092C35DD089B99461A00DF
:100FC0005B466E218046FFF791FD061C714902F0D9
:100FD000BEFC071C704D7149286802F0B8FC011C6A
:100FE000381C02F09DFC071C2860A0235B005146C2
:100FF000CD58132D17DC6B014046585053446E22D8
:101000005A609C604A461A615A465A619E61DF6185
:10101000634B1B78002B16D1A022520053469B58DD
:10102000013351468B505F4804F05CF8A0235B000D
:101030005246D1585C4804F085F8594B1B78002B78
:1010400031D100248DE000F0F7FC0028E4D0A0238B
:101050005B0098465346424698583A1C311C00F0B3
:10106000B3FA5346424698582300D23A079900F003
:101070007FFB534642469A580CAB0C926D01524688
:10108000AA580D9255446A680E92AA680F92286970
:10109000696910901191AA691292EA691392180075
:1010A00000F0ACFBB8E700F0C7FC0028C9D0A024D2
:1010B00064005346185900F0D5FA53461B590C9357
:1010C00001F062FDAE90AF910022564615E00CA8EB
:1010D0005301C1188A609C59CC60F3185C680C619C
:1010E0009C684C611C695D698C61CD619C690132B1
:1010F00051010C50DC6941184C60A0235B00F3588F
:101100009342E4DCB2460CA800F0ECFB274800F068
:1011100047FC96E7631C98462548190004F012F82E
:10112000640153461D19AB686A68514661582148ED
:1011300004F008F82A696B691F4804F003F8A869ED
:10114000ED6902F045FC06000F001C4C281C02F063
:101150003FFC0090019132003B00200003F0F2FFC1
:101160004446A0235B005246D358A342D2DC502011
:10117000FFF72EFCA2235B0000225146CA545046C2
:10118000B1239B009D44F0BCBB46B246A946A04695
:10119000F0BDC0463333333F5C1A00209A99993E24
:1011A00087EE002054A900106CA9001084A900103B
:1011B00094A90010ACA90010D0A90010ECA900104F
:1011C00084B0F0B5C64600B582B0089009910A9285
:1011D0000B93214803F086FF08AAA0235B00D15897
:1011E0001E4803F0AFFF002428E0631C98461C480B
:1011F000190003F0A7FF6401230020336B441D0096
:101200009B686A6808A90959164803F09BFF2A6978
:101210006B69154803F096FFA869ED6902F0D8FBE9
:1012200006000F00114C281C02F0D2FB0090019127
:1012300032003B00200003F085FF444608AAA023AB
:101240005B00D358A342D0DC02B080BCB846F0BCEF
:1012500008BC04B01847C04614AA00102CAA0010FD
:101260004CAA00105CAA001088AA0010A8AA0010BE
:1012700084B0F0B591B01690179118921993929E80
:10128000939F002333603B6003E06A460021D15402
:1012900001333C2BF9DD002512E003346B01583398
:1012A0006B445B68A3420ADB03212000323801F063
:1012B00059FF1428F1D86B4601221A54EDE7013585
:1012C00016AAA0235B00D358AB4203DD6B0116AA1C
:1012D0009C58E3E7322400E003344F2C0EDC03215A
:1012E0002000323801F03EFF1428F5D86B461B5C15
:1012F000002BF1D13B6803333B60EDE7502400E065
:1013000003346E2C0EDC03212000323801F02AFF5A
:101310001428F5D86B461B5C002BF1D133680333DE
:101320003360EDE711B0F0BC08BC04B01847000012
:1013300084B0F0B5DE4657464E464546E0B5884C8B
:10134000A544AA90AB91AC92AD93AAAAA0235B004E
:10135000D358002B3BD000239F939E939EAB799351
:101360009FAB7893F0225200AEA9684602F050FC81
:10137000AA98AB99AC9AAD9BFFF77AFF794803F036
:10138000B1FE9F99784803F0DDFE9E99774803F0FF
:10139000D9FE9F9A9E9B9A421EDC22DA744803F083
:1013A000A1FE0124734803F09DFE734B1B78002BB4
:1013B00000D0BDE02000A1239B009D44F0BCBB46B3
:1013C000B246A946A046F0BC08BC04B018476B481A
:1013D00003F088FE0224EDE7694803F083FE002451
:1013E000E0E7684803F07EFE002400239A469B460F
:1013F000002200237A927B930026002750237D93BE
:10140000614B7C93002398463AE07D957C92984608
:101410004F2D2EDC7A987B99801859417A907B91D8
:1014200001239C46E24403356301A62292009B18E7
:1014300004AA944663445B68AB4220DB0321280086
:10144000323801F08FFE2828EDD82930C000A623BD
:101450009B00C01804AB9C466044026843681100BE
:101460001943E0D09845D0D8D2D17C999142CFD9B8
:10147000CBE7B6185F4101239C46E344D3E7013430
:10148000AAA9A02252008A58A24203DD6201AAA999
:101490005558C9E7C1465B46002B32DDDB175A467B
:1014A0003000390001F0C4FE07000E005346002B47
:1014B0002ADDDB1752467A987B9901F0B9FE0500C8
:1014C0000C0032487C9A4B467D9903F03BFE304835
:1014D0003A00330003F036FE2E482A00230003F0C2
:1014E00031FE7D9B4F2B12DD7D9B502B15DCA642E0
:1014F00002D818D1AF4216D9274803F0F3FD0024D3
:1015000050E7214F0026D1E71F4D0024D9E723489B
:10151000190003F017FE002444E72148190003F0E6
:1015200011FE01243EE71F4803F0DCFD012439E7EA
:1015300000F082FA002800D13CE7002C0ED11A4BB3
:101540001A4A7EAD9E9901919F99009180212800B1
:1015500003F04EFC280000F023FA2BE7144BEFE7D2
:101560007CFDFFFF08AB001028AB00104CAB001057
:101570009CAB001070AD001087EE0020D0AA0010C8
:1015800070AB0010C8AB0010E70300000CAC0010FB
:1015900038AC001060AC001008AD001088AC001032
:1015A000C8AC00103CAD0010B4A1001090AD00100C
:1015B000BCA1001010B5002900D110BD014803F0F6
:1015C000C1FDFAE7B8AD0010F0B5A5B004000F1CDE
:1015D000101C1D4B1B78002B33D01C4E04AD02F0A9
:1015E000F7F902900391381C02F0F2F90090019192
:1015F000230032008021280003F0FAFB280008F0C5
:10160000F3FA83B21249134A106800220392124C73
:1016100002940192013200922A0008F02DFA041E71
:1016200007D10B490D4804AA03F08CFD200025B01A
:10163000F0BD0B4B0100180003F084FD022464424E
:10164000F4E703246442F1E782EE0020D8AD0010F5
:10165000A09F0010F0EB0020B515001034AE001074
:1016600008AE001030B595B00300184A1278002A71
:1016700028D0174A04AC4021200003F0B9FB200019
:1016800008F0B2FA83B21349134A10680022039299
:10169000124D0295019201320092220008F0ECF9FD
:1016A000041E07D10B490E4804AA03F04BFD20008D
:1016B00015B030BD0B4B0100180003F043FD0224B0
:1016C0006442F4E703246442F1E7C04682EE00205E
:1016D00058AE0010D09F0010F0EB0020B5150010A0
:1016E00034AE001068AE001030B5A5B019490978C5
:1016F00000292CD0184904AC0092019303000A0081
:101700008021200003F074FB200008F06DFA83B202
:101710001249134A106800220392124D0295019259
:1017200001320092220008F0A7F9041E07D10B49EC
:101730000D4804AA03F006FD200025B030BD0B4B78
:101740000100180003F0FEFC02246442F4E70324C5
:101750006442F1E782EE002094AE001000A0001079
:10176000F0EB0020B515001034AE0010B0AE001044
:1017700070B5C4B01A4C2478002C2ED0194D802698
:1017800004AC02930192009103002A007100200032
:1017900003F02EFB200008F027FA83B21249134A07
:1017A000106800220392124D0295019201320092BC
:1017B000220008F061F9041E07D10B490D4804AA64
:1017C00003F0C0FC200044B070BD0B4B01001800BA
:1017D00003F0B8FC02246442F4E703246442F1E716
:1017E00082EE0020DCAE001034A00010F0EB0020F0
:1017F000B515001034AE001018AF0010F0B5DE467D
:1018000057464E464546E0B52E4CA5442E4B1B7818
:10181000002B50D0002851D0056843689846836853
:101820009946C3689A460669476983699B46C069B9
:101830000AAC02F0CDF808900991584602F0C8F8B9
:101840000690079104960597534602934B460193E1
:10185000434600932B001D4A80218900200003F09D
:10186000C7FA200008F0C0F983B21949194A106874
:1018700000220392184D029501920132009222003B
:1018800008F0FAF8041E0ED1114914480AAA03F010
:1018900059FC20008B239B009D44F0BCBB46B24604
:1018A000A946A046F0BD0E4B0100180003F04AFC0B
:1018B00002246442EDE703246442EAE7042464421C
:1018C000E7E7C046D4FDFFFF82EE002044AF0010E2
:1018D00064A00010F0EB0020B515001034AE00102D
:1018E000B8AF001030B5C5B00500264B1B78002BF3
:1018F00042D0002843D00068FFF7B4FE002408E07F
:10190000600108302818FFF779FF0A2001F064F819
:1019100001342B68A342F3DCA22292009446654472
:1019200028686968184A802504AC00900191690014
:10193000200003F05DFA200008F056F983B2134945
:10194000134A106800220392124D0295019201324F
:101950000092220008F090F8041E05D10E4803F012
:10196000C1FB200045B030BD0C4B0100180003F056
:10197000E9FB02246442F4E703246442F1E704240F
:101980006442EEE782EE0020E4AF0010B0A0001049
:10199000F0EB0020B515001054B0001020B000107E
:1019A00030B51D4CA54403001C4A1278002A2DD0E6
:1019B00000282ED01A4A802104AC8900200003F0B0
:1019C00017FA200008F010F983B21649164A106879
:1019D00000220392154D02950192013200922200DD
:1019E00008F04AF8041E09D10E49114804AA03F070
:1019F000A9FB200085239B009D4430BD0D4B0100B9
:101A0000180003F09FFB02246442F2E703246442BF
:101A1000EFE704246442ECE7ECFDFFFF82EE0020D8
:101A200084B0001090A00010F0EB0020B51500105D
:101A300034AE001094B0001010B5084B1B78002B8A
:101A400001D1002010BD064B186808F0BFF800282F
:101A500001D00120F6E70020F4E7C04682EE002026
:101A6000F0EB002010B5044B1B78002B01D10020B7
:101A700010BD07F09BFEFAE782EE002083001B18E2
:101A80009B00094884466344100000290AD01004D2
:101A9000064A196848401040802252019446634427
:101AA00018607047024AF4E70C0005400000FFFF91
:101AB000FFFF000010B503000A001F2807D84108E7
:101AC0000720084001211940FFF7D8FF10BD410849
:101AD000032008400830F5E7F8B505000C000421A4
:101AE00000F07CF80421200000F078F81F2D2ED89B
:101AF0006D08072129401F2C2ED864080722224098
:101B00008B0058188000174CA4466044FA25ED005D
:101B10004560154C04615B189B0066460168012016
:101B200007008F433900114FBC466344196093008E
:101B300099188900B44661444D600C619B189B0064
:101B40000A689043094A944663441860F8BD6D08DA
:101B5000032129400831CEE76408032222400832DD
:101B6000CEE7C04600000540E70300000010054036
:101B700070B50D00642A05DC1300643303DA6422B7
:101B8000524200E06422D317D11859408B005B18F1
:101B90005C00002A08DC0FDB0021FFF78BFF00212F
:101BA0002800FFF787FF06E0A1B2FFF783FF0021BF
:101BB0002800FFF77FFF70BD0021FFF77BFFA1B278
:101BC0002800FFF777FFF6E710B50C000021FFF7BC
:101BD00071FF00212000FFF76DFF10BD10B58300DD
:101BE000084A9A1814684022544080322240064C19
:101BF000A44663441A60C000044B9C4660444160A4
:101C000010BDC04604C0014004D001400040014066
:101C100010B501238340D0221206936293610521FF
:101C2000FFF7DCFF10BD000010B58023DB0518684E
:101C300003051B0D0B4A934207D10B4B0340802237
:101C40009201934207D1000F10BD084B084A094882
:101C5000132103F0F9F8084B054A0648142103F054
:101C6000F3F8C0462709000000F0FF0FC0B00010D5
:101C70005CC80010E4B0001030B100100FB400B523
:101C800083B0084803F02EFA049B002B07D005A967
:101C90000191180003F036FA034803F023FA0120FB
:101CA00003F0CCF844B1001080A90010EFF31080CD
:101CB00072B6034B1B68002BFBD0BFF35F8F7047DE
:101CC0002C0100D0BFF35F8F024B00221A6080F31B
:101CD000108870472C0100D0F8B506000C001500E4
:101CE000FFF7E4FFE308F718F15C07222240012325
:101CF00093400B4205D1DBB20B433B70FFF7E2FF91
:101D0000F8BD21002800FFF7B9FFF0B583B0060049
:101D1000019114001F00FFF7C9FF00E00134BC422D
:101D20000CD8E308F518F35C0721214001228A4012
:101D30001A42F3D1D2B21A432A7001E0012464425C
:101D4000FFF7C0FF002C02DB200003B0F0BD019BB9
:101D5000002BF9D00898FFF791FF0000054A107892
:101D6000431CDBB21370172B02D9130010221A7018
:101D70007047C046F40B002010B582B00100054C3E
:101D8000054B00931F2318222000FFF7BEFF02B06F
:101D900010BDC046F415002054B10010002307E028
:101DA000054A9A189200BFF35F8F0021116001333A
:101DB0001F2BF5D97047C04640000034074B9B6885
:101DC000103080001950BFF35F8FBFF35F8F044B5B
:101DD0000021196082F310887047C04600ED00E0D2
:101DE000240100D00048704700E400E010B5FFF780
:101DF000F9FF002302E0034A04C00133072BFAD99C
:101E000010BDC0468080808010B50388DA0A1C2A85
:101E100005D15B055B1502335B00C01810BD034B99
:101E2000034A8E210348490003F00EF870B10010F8
:101E300098C8001088B1001010B5091A0B1F0A4A83
:101E400088180A4A904208D8C90706D45B105B0577
:101E50005B0D0748184380B210BD064B064A872128
:101E60000648490002F0F0FFFC070000FE0F0000EA
:101E700000E0FFFFD4B100108CC8001088B1001042
:101E800001238340034A10681840431E9841C0B2A2
:101E90007047C04600E100E0002A05D0044BC02294
:101EA0005200995019607047014A8023D150FAE7D7
:101EB00000E100E010B50A001F2303400121994012
:101EC0004009FFF7E9FF10BD01238340014A136079
:101ED0007047C04600E200E0024B9B681030800073
:101EE000C058704700ED00E010B5FFF7F5FF044B58
:101EF000C31A00202F229A424041C0B210BDC046F2
:101F0000F80B002070B504000D00EFF3108672B6D8
:101F10000C4B1B68002BFBD0BFF35F8F2000FFF73B
:101F2000DBFF094B984201D0A84205D132002900BD
:101F30002000FFF743FF70BD044B054A0548ED2123
:101F400002F082FF240100D0C101001004B2001091
:101F5000C0C8001088B10010F0B5DE4657464E46A6
:101F60004546E0B589B0814601911500EFF3108B2D
:101F700072B66F4B1B68002BFBD0BFF35F8F6D4BAE
:101F800000269E57002E40DB7400A419A4006A4866
:101F900024180622A256674B1A70684B9A684B4663
:101FA00010339B00D35898461B1A2F2B3BD9644BF8
:101FB000984531D105AF634B3B80634973009A4626
:101FC000981980005C4B984640440230FFF734FF7C
:101FD00078805E4BBB80FF23BB71FD71019B079333
:101FE000330053449B00434407CF07C301231C43E2
:101FF000A0465A4641464846FFF7E0FE09B0F0BC0D
:10200000BB46B246A946A046F0BD514B514ABE213F
:102010005148490002F018FF504B4E4A84214E4867
:10202000FF3102F011FF012342469A439246101AF3
:102030000C2101F0BFF800290FD153460027DA79AF
:10204000AA4212D90621595600290DDB4A0052181E
:10205000920039491F008B18F1E7414B3D4ACA21D4
:102060003D48490002F0F0FE1F00002F2ED005ABC6
:102070003C4A1A80813A5A800623FB560293002B71
:1020800017DA394805AB9A469880029A9A71DD7141
:10209000019A0792381D2100FFF7CEFEB880BE716D
:1020A000254B7200921992009B18524613CA13C313
:1020B0009FE7381DFFF7A8FE01007000801980001F
:1020C0001D4BC0180430FFF7B7FEDBE705AF1D4B13
:1020D0003B801D49730002939B199B00164A904652
:1020E0001A0042440392901CFFF7A6FE7880039AE0
:1020F000101D5146FFF7A0FEB8801C4B52464146CA
:10210000521A524153431B0DBB71FD71019A079244
:10211000029B9B199B00434407CF07C3114B5246B8
:102120001380813B538001231C43A04661E7C046D6
:10213000240100D081EE0020F80B002000ED00E02B
:10214000C101001000A1FFFF280C002001BDFFFF0E
:102150003CB20010A8C8001088B1001064B2001092
:102160008CB200100148000001BD0000AAAA0000C6
:10217000F8B5012202432C4BD31A2F2B28D8EFF3AA
:102180000583002B2AD0EFF3108472B62749096823
:102190000029FBD0BFF35F8F234D25490600761B36
:1021A00076417143090D4DB2224989689B00C95897
:1021B000914219D00021032930D81B4B4A005218F4
:1021C00092009B189B795BB2AB421DD00131F2E7C4
:1021D000194B1A4A1A481B4902F036FE1A4B174A85
:1021E00017481A4902F030FE124A92681849D15035
:1021F000184B1A7882711D70BFF35F8F0B4B002252
:102200001A6084F31088F8BD074B4A005618B600D0
:102210009E19FF27B771104AB280E9E70F4B074AB2
:1022200007480F4902F010FEF80B0020240100D0EF
:10223000AAAA000000ED00E010B3001070C8001062
:1022400088B100107F02000038B300108202000045
:10225000C101001081EE002001BDFFFF44B300105A
:102260009302000010B582B00100074C074B0093A9
:10227000052300222000FFF748FD002801DB1F2373
:10228000181A02B010BDC04688EE00204CB30010F2
:10229000024B9C4661448900016070474000003455
:1022A00010B50400FFF75AFD01002000FFF7F0FF12
:1022B000FF232371BFF35F8F10BD10B50400FFF73C
:1022C0004DFD01002000FFF7E3FFFF2323710023F2
:1022D0006371BFF35F8F10BD10B50D4C09E00D4B5E
:1022E0000D4A0E481A2102F0AFFD2000FFF7D8FF7B
:1022F00008340B4B9C4209D22368002BF5D0012BEC
:10230000EDD12000FFF7D9FF0834F2E710BDC04639
:10231000B80C002068B3001000C9001088B300108A
:10232000C00C0020034B9C46614489000160BFF350
:102330005F8F70474000003410B504000120FFF7A4
:102340001BFD01002000FFF7EDFF10BD30B5846AD2
:10235000151B0B1D9B001B581B1B9D4204D3046ABD
:1023600001238B40234202D1043189000A5030BD41
:1023700000040843704700000A4B1968EFF310830C
:1023800072B60A68002AFCD0BFF35F8F054A126854
:10239000BFF35F8F0021116083F3108840BF0020DE
:1023A0000021704750EE0020F0B5DE4657464E46FD
:1023B0004546E0B587B0EFF3058303221A40924605
:1023C000AE4B9200D7583B78534507D10123524674
:1023D00093409946AA4B4A461A6025E1A94BAA4A5E
:1023E000AA48922102F030FD7A6973009B19DB0044
:1023F0009046984443469C68DD68A54800F0AEFBD3
:10240000001BA941002900DA16E1002D74DB4346C8
:102410001B699B469F4B9B454FD00823F85E434664
:10242000598889B2FFF7A4FF43465969D8470290FB
:1024300003910299039A0B00100013435CD0130020
:102440000A00002847DAA41A9D41009401954346EA
:10245000009C019D9C60DD600021595E002900DA2E
:10246000EAE078694B005B18DB00C3189A68DB6808
:10247000A41A9D41002D00DADEE039813D000835C7
:10248000844604912A000597B346009E019F049B51
:10249000002B2ADB0023D45E63001B19DB0063449E
:1024A0009C68DD6830003900001BA94100291CDB55
:1024B0001A000021595E0491E9E743465B699B4697
:1024C0001B6958469847002816D05B461A685B6817
:1024D00002920393ADE76E4800F040FB029B039C21
:1024E0001B184C4100930194B1E70499059F5E4687
:1024F0004346198016809FE0434600229B5E3B8145
:102500003A69EFF3108372B611680029FCD0BFF36B
:102510005F8F02217A5E41460A807E803A69BFF36E
:102520005F8F0021116083F3108885E03969EFF334
:10253000108372B60A68002AFCD0BFF35F8FB88898
:1025400000B201225242BA803A69BFF35F8F002184
:10255000116083F310880500BC461CE00493002240
:102560009A5E002A0EDB049B0021595E4B005B182B
:10257000DB0063449868D96834003D00241A8D411B
:10258000002DEBDA04995D46009B9C4644460D8085
:102590000023E55E2280002D12DB634658696C0043
:1025A0006419E4000419A668E76861460831082246
:1025B0009A5EAB46049163460093A0468446D0E7FA
:1025C00067463EE00023BB71390008310823F85EFE
:1025D0000EE001246442E5179460D56008243B5F57
:1025E000834204D00E8008243B5F13803881300082
:1025F000431C29D07C6943001B18DB00E218E65E0F
:1026000053881BB2002BE4DB1100F0E722002B0003
:1026100051461F48FFF79AFE1D4800F09FFA241A02
:102620008D41002D22DC1FD0194B4A465A630823E6
:10263000FE5E002E00DBD7E6BB881BB2002B00DB62
:1026400074E7BB79002BBDD10823FA5E002A0DDBAD
:10265000796953009B18DB00CB189C68DD68631C0C
:10266000D4D16B1CD8D0D1E7002CDDD040BF07B04F
:10267000F0BCBB46B246A946A046F0BD20EC002007
:102680003C70054020B400102CC900104CB4001060
:1026900000400540A923001070B504000D00110092
:1026A0000126AE4006622800FFF72CFC012128001D
:1026B000FFF700FC024B9C466444266070BDC04698
:1026C00038200000F8B5CE46474680B5060089465A
:1026D00090461F00C160FFF741FB154B9C466044CC
:1026E0008000306143463370BBB27381D022120642
:1026F00012787270012252423281B2809B1873802C
:10270000002406E0621E736965002D19ED005A531E
:102710000134BC42F6D3074B42469200D650064ADB
:1027200041464846FFF7B8FFC0BCB946B046F8BDC1
:102730004000003420EC0020A923001010B5064B07
:102740001B69002B01D0044810BD044B044A054806
:10275000652102F079FBC046400C002090B40010C7
:1027600014C900104CB40010F8B504000569EFF36B
:10277000108072B629680029FCD0BFF35F8F022158
:10278000665E656971008919C9006D18002E02DB4B
:102790000027E95F61802169BFF35F8F00270F6029
:1027A00080F31088002E2CDB069929610799696156
:1027B000AA60EB606B8801335B04590C002B00D1DD
:1027C000012169803000FFF7D3FD2169EFF3108309
:1027D00072B60A68002AFCD0BFF35F8FA2882A80F5
:1027E000A6802269BFF35F8F0021116083F31088F8
:1027F000E368217801228A4003498C4663441A60C9
:10280000F8BD01204042FBE73C20000070B582B0DB
:10281000060014001D0008AB1B78002B07D100F048
:10282000B3F922002B00121A8B41002B0ADB079B05
:102830000193069B009322002B003000FFF794FFCA
:1028400002B070BD0020FBE7F0B5C64600B584B00D
:102850000500884616001F000AAB1C78FFF76EFFC4
:102860000294019700962A004346FFF7CFFF04B079
:1028700080BCB846F0BD000030B504000A1443899E
:102880009A422EDA406953009B18DB00C318256971
:10289000EFF3108272B628680028FCD0BFF35F8F78
:1028A000588885B20904090C884212D00020236997
:1028B000BFF35F8F0021196082F31088002811D0C8
:1028C000E368217801228A4007498C4663441A60F4
:1028D00008E00649294389B259800123A3710120E8
:1028E000E5E7002030BDC0463C2000000080FFFF2F
:1028F00010B50400FFF722FF2100FFF7BDFF10BD58
:1029000040787047F0B583B006000F00EFF3058301
:10291000002B1AD106246442E517A4197D418D428B
:1029200002D803D1844201D90024002500F02CF9FB
:1029300022002B00121A8B41002B0BDC08D0300038
:10294000390000F029F903B0F0BD1648FFF796F9F9
:10295000002AF4D0144A0023009320002900FFF736
:1029600073FF002813DAEAE7104B1968EFF31083BE
:1029700072B60A68002AFCD0BFF35F8F0B4A126858
:10298000BFF35F8F0021116083F3108820BF084BD5
:102990005B6A9D42E8D80649896AA142CFD29D422E
:1029A000CDD1E1E7B4B400107923001050EE00203F
:1029B0000040054070B504000D0000F0E5F8001976
:1029C0006941002902DBFFF79DFF70BD01204042F5
:1029D0000049F8E7FFFFFF7F10B5FA2292000023BD
:1029E000002100F07DFFFFF7E5FF10BDF0B5CE46FA
:1029F000474680B583B005000C00EFF30583002B3C
:102A000015D03F4B5B6A8B4209D33D4A926A8242A2
:102A10000BD28B4201D0012002E0002000E0002018
:102A200003B0C0BCB946B046F0BD0120F8E7FFF7DF
:102A300085FEC3689946037898462E0027004846CD
:102A400000F08CF802000B00B61A9F414346043395
:102A50009B004A469B581B1A0022BA420FDC0CD03E
:102A600020BF274B5B6A9C422DD8254A926AAA4216
:102A70002BD29C4225D00120D2E7B342F0D9214A83
:102A80000023009328002100FFF7DEFE00281EDD52
:102A90001B4B5B6A9C4205D8194A926AAA4202D231
:102AA0009C4200D120BFFFF723FF154B5B6A9C427D
:102AB00021D8134A926AAA421FD29C4219D00120FF
:102AC000AEE70020ACE70020AAE70120A8E70C4B06
:102AD0005B6A9C4209D80A4A926AAA4207D29C427F
:102AE00001D001209CE700209AE7002098E7012010
:102AF00096E7002094E7002092E7012090E7C04687
:102B00000040054079230010004870470040054010
:102B100010B50B4B1B69002B04D00A480A21FFF7A4
:102B2000B7FB10BDFFF7F0FF0400032100F00CF825
:102B30000348102303222100FFF7C4FDEDE7C04640
:102B4000400C002050EE002010B5024A0248FFF76A
:102B5000C3F810BD04B50010F81500200200436A48
:102B6000906A1900536A9942FAD17047416A00E0AD
:102B7000416A9942FCD300E0416A994202D1816ADC
:102B80009142F9D37047000010B50248FFF7E6FF05
:102B900010BDC0460040054010B502000B000248C1
:102BA000FFF7E4FF10BDC04600400540F8B5D6462B
:102BB000474680B506000D001700984644002418CB
:102BC000A400294B9C4664446368089A934200D24F
:102BD0006260331FDBB29A46012B2ED9802212018C
:102BE000C0239B01E3181A60204BB200D158002982
:102BF00007D0586900F0DEFA013043001B18033B90
:102C0000FDD27F0123685F40E0233B4080225201D8
:102C1000A21813605346012B1AD980239B01E31895
:102C2000802212011A60089B6360104BB600424676
:102C3000F250C0BCBA46B046F8BD012DCED1032239
:102C4000C0239B01E3181A60A368DB07FCD5D8E713
:102C50002168694003230B401360A3680122AA4046
:102C60001A42FAD0D9E7C04600800040FC15002087
:102C7000F0B583B005000E0017001800089900F0A9
:102C800099FA0300089A140200943A0031002800CF
:102C9000FFF78CFF03B0F0BD10B582B08024640054
:102CA0000094FFF783FF02B010BD0000014B8000CD
:102CB000C0587047FC150020F0B5C64600B50400AA
:102CC0000E0017001D00374800F074FA8046364B9E
:102CD000FA18364B9A4239D80100380000F06AFAE7
:102CE0000200103A98235B009A4235D86B1E062BDF
:102CF00038D8069B013B062B34D83F09474537D3CC
:102D00002D04069B1B031D432368002B36DB284B39
:102D10009C4244D00C2201239340264A1360264A49
:102D20001360264A1268190091430A1EF9D12660E1
:102D3000A060234BE31821321A602268002AFCDAD3
:102D4000E56008221A6080BCB846F0BD1D4B1E4AE3
:102D50001E48112102F078F81D4B1B4A1B4819210F
:102D600002F072F81B4B184A18481C2102F06CF84C
:102D7000194B154A1548232102F066F822683F23B3
:102D80001340B342C3D1A3681B051B0D8342BED1C0
:102D9000E368EE22D2021340AB42B8D1D3E70D2252
:102DA000B9E7C046001BB70080E84BD380F8A932D2
:102DB00000C0024000E0004000F0004008C00040B9
:102DC0000430000028B5001044C9001078B5001088
:102DD000C4B50010E0B500102CB60010024B1A6804
:102DE000024B5A607047C046641A002000800540BC
:102DF00010B5174B8022D2051A60164B164A1A607E
:102E000000290AD0154BE022D2041A60002809D10B
:102E1000124B802212061A6010BD0D4BE022D20424
:102E20001A60F3E743011B1A9B00181800010C4BB2
:102E3000186080235B04984202D3094B094A1A6048
:102E4000FFF7CCFF054B8022D2051A60E4E7C046AD
:102E500000B0054008200140FCFF010000A0054033
:102E6000641A0020FFFFFF0010B5030010000C4A99
:102E70008024E4051460002B0DD001221343094A7D
:102E8000094CD461094C5C40146251629362002188
:102E9000FFF7AEFF10BD034B0022DA61F7E7C04633
:102EA00000B0054000800540D3C007B02D3FF84F6B
:102EB00080239B000B43014AD3627047008005408A
:102EC00010B5010018231B8814221088984710BDE4
:102ED00010B5010018231B8816221088984710BDD2
:102EE000F0B5C64600B507000E0000250123984640
:102EF00000E00135B5420AD2AC003C192068FFF76A
:102F0000DFFF20600028F4D100239846F1E7404617
:102F100080BCB846F0BD000070B504000D00064846
:102F2000FFF7CEFF0300002C03DB0120A0402900A7
:102F300098470020FBE7C04655420000074BAA22F5
:102F400012011A608D225200DA60054B054A1A60A0
:102F5000024B5B68002BFBDA7047C0460040024022
:102F60000060024000B0FA0010B5040001E008CC97
:102F70009847024B9C42FAD310BDC046549D0010A6
:102F80007047000010B50248FFF7EEFF10BDC046C5
:102F9000189D0010054B064A1A60064B064A1A6037
:102FA000064B1A68044B9343FAD1704700E0004087
:102FB000BFCDFBFE00F00040FE7F3C0008C000409B
:102FC000044BDB6C002B03D1034B8022D2021A602E
:102FD0007047C046000011504C201150044B054A68
:102FE0001A60054B1B68DB43DB01FAD17047C04612
:102FF00000F00040FFFFFF0108C00040034B4022EB
:103000009A675A671A67DA667047C04600F001404F
:1030100010B5FEF7C3FE10BD10B50C4A0C4BD21A0A
:1030200092101400302A00D9302292000948084931
:1030300000F0EEFD04E0084A064BA100CA5001343E
:103040002F2CF8D9034B054A936010BDC001001026
:103050000001001000000020C101001000ED00E0A0
:1030600070B50420FFF722FE064900F0A3F8050022
:103070000024002C00DD70BDE0B22900FFF718FF2E
:103080000134F6E740420F0030B583B0274B0022F1
:103090009A67FFF753FF264B01221A60234B5B6CA4
:1030A000012BFBD1234B03221A60204B9B6B012B7E
:1030B000FBD10133009304331F4A01211F48FFF75E
:1030C000FBFD052300931E4A01211E48FFF7F4FD76
:1030D0001D4B002202210420FFF7DEFD1B4D2B00BB
:1030E000002201210520FFF7D7FD194C2300002203
:1030F00000210720FFF7D0FD230000220021082037
:10310000FFF7CAFD8023DB0000932300002200218B
:103110000920FFF7ADFD2B00002200210620FFF75C
:10312000BBFDFFF79DFF03B030BDC04600800040EF
:103130003CB0004030B00040002F68590080024091
:10314000008C864700C00240001BB700405973073F
:10315000006CDC0201480421014B1847600C002080
:10316000E12E0010124A936F9B0815D29066D1662B
:10317000002905D0FFE7FFE7FFE7516F106F7047A9
:1031800004B580210906C2175140002800D0C84369
:1031900006F07AFD002104BDF0B5146E556E576F30
:1031A000166FFFF7E3FF1466556657671667F0BDA5
:1031B000000000D0114A936F9B0813D2106651662D
:1031C000002905D0FFE7FFE7FFE7516F106F704759
:1031D00004B5002801D00020C04306F055FD0021B1
:1031E00004BDC046F0B5146E556E576F166FFFF7ED
:1031F000E5FF1466556657671667F0BD000000D0FE
:1032000094464A4A926F9208624601D228E0C0462C
:10321000F0B5464E346E756E776F366F00F020F85D
:103220009446424A14665566576716676246F0BD73
:1032300094463E4A926F9208624601D254E0C046DC
:10324000F0B53A4E346E756E776F366F00F04CF80D
:103250009446364A14665566576716676246F0BD4F
:10326000002B24DB11D000293EDA00B5C9434042CF
:1032700000D1013100F038F8C943404200D101319A
:10328000DB43524200D1013300BD002AEBD10028BC
:1032900001D1002905D00020C90FC90701D1C043C1
:1032A000410800B506F0E8FC0022002300BD00B58F
:1032B00000290ADBDB43524200D1013300F014F84D
:1032C000C943404200D1013100BDC943404200D151
:1032D0000131DB43524200D1013300F005F8DB43FA
:1032E000524200D1013300BD002923D1002B18D157
:1032F000002A0CD0BC460D4F38667A6600210023A8
:10330000FFE7FFE7FFE77A6F386F674670470028EF
:1033100001D00748010000B506F0AEFC00220023F2
:1033200000BD02000B00002000217047000000D00B
:10333000FFFFFFFF002B00D0BFE0130C28D1002AB5
:10334000E7D080B4114F39667A66FFE7FFE730B403
:10335000040C7B6F396F1B0423433B667A66FFE7DF
:10336000FFE7FFE7C04684B27B6F3D6F1B0423433A
:103370003B667A66FFE7FFE7C04600232C042D0C6E
:103380007A6F386F00196941B0BC7047000000D0F7
:10339000F0B594460025140E01D112020835140F21
:1033A00001D112010435940F01D192000235D40FDE
:1033B00001D152000135D40B0134254F7C66254CD8
:1033C0003C660E0C93B2FFE7FFE7FFE73C6F6643F6
:1033D000360C7703BE467343DF0B5B04C01AB9415A
:1033E000130C7343DB18C91ACE086643360CB64477
:1033F00093B273431F0F1B01C01AB941130C7343DF
:103400001F0B1B05C01AB941860D8F023E43664350
:10341000360C092D24DB520A7243801A7703460AC0
:103420006643360C16235B1BDE40DF40BF19644643
:103430006643821B7046043506330100D940A8401C
:10344000C01900D30131A24206D20023F0BD000012
:10345000000000D0FFFFFFFF121B0130F3D3F1E7A4
:1034600009277F1BFE406446A2B27243801A00D235
:103470000139220C7243130C1204821A99410B0079
:103480007046043513370100F940A840801900D375
:103490000131002B02D1A2420AD2F0BD013000D38B
:1034A0000131121BFAD2013BF8D1A24200D2F0BD89
:1034B000013000D30131121BF7E7F0B51C0C00D02E
:1034C00080E00CB400251C0A04D11B02160E334305
:1034D000120208351C0B04D11B01160F33431201D5
:1034E00004359C0B04D19B00960F334392000235A8
:1034F000DC0B02D192185B4101351C009718644126
:103500000134464F7C66464C3C660E0CFFE7FFE7F5
:10351000FFE7C0463C6F6643360C7703BE4697B262
:103520007743C01B00D20139C01B00D201399FB2C2
:103530007743C91BC91B170C77437E04FF0B801B05
:10354000B941CE086643360C0C2D33DBB644120B62
:103550001F053A431B0B97B27743C01B00D20139BA
:103560009FB27743C91B170C77433E043F0C801B67
:10357000B941860D8F023E43664329277F1BFE40DB
:103580000C3D7746AF40BF1930BCA2B2ABB272431C
:103590007343801A9941220C7243130C1204801A4F
:1035A000994102000B000137001BA941F9D2781E96
:1035B0000021F0BD0C277F1BFE4077467F0BAF40FC
:1035C000FF19E0E700245D1C07D0144F7D663966C3
:1035D000FFE7FFE7FFE7FFE73C6F95B29EB2654369
:1035E0006643401BB141150C1E0C6543664336040F
:1035F0002F0C3E432D04401BB141994204D20200DE
:103600000B0020000021F0BD01D19042F7D3801AB9
:10361000994101349942F2D3F6E70000000000D04E
:10362000FFFFFFFF48404140484018B4134B5B6820
:10363000019308BD18B4114B1B68019308BD944653
:103640000F4A926F920805D2624618B40B4BDB68A2
:10365000019308BD0A4AF0B5146E556E576F166F88
:103660006246FFF7F2FF064A14665566576716670B
:10367000F0BD18B4014B9B68019308BD40EC0020DD
:10368000000000D0FFB550404240504059404B40F0
:10369000594000E0FFB5154F4C00640D03D0BC420B
:1036A00004D10C0314D80020090D09055C00640D39
:1036B00003D0BC4204D11C030AD800221B0D1B05F9
:1036C00001264B4009D44B4003D58B4200D18242A6
:1036D000FFBD9942FCD19042FFBD0B43DB18034371
:1036E0001343F5D0C9434918FFBD0000FF07000090
:1036F00000B5FFF7CFFF804100BDC04600B5FFF722
:10370000C9FF01D9002000BD012000BD00B5FFF7B1
:10371000B9FF01D9002000BD012000BD00B5FFF7B1
:10372000B1FF804100BD012040054A00121804D8B5
:103730005A00121801D8002070470120704700007D
:103740000021002805D17047C1174840401AFAD01F
:10375000C90713B5064B1B6898470CBC441CA24014
:103760001005120B0349091B09051943114310BD2C
:103770004CED00201F04000010B54C00620D8023AA
:10378000D218DB00D21A5B057E2A10DD9E3A13DACE
:10379000CC170903490819435242D140640001344F
:1037A0001532202A05DAD0400843604310BD0020BE
:1037B00010BD0846604310BDC80FC018013810BDC9
:1037C00018B4024B5B6A019308BD000040EC002076
:1037D00010B50148FEF752FA48B6001070B5132331
:1037E0001C78012C12D0012C12DC214B214A93644D
:1037F0002148FFF765FB214B186070BD20491D4A29
:103800009800815001331F2BF8D9ECE70023FAE729
:103810001C48FFF75DFB05001B48FFF759FB02380A
:1038200003789B007F2B09DD12488022290000F0DD
:10383000EFF9022C08D0022CDADCD6E7134B144A3D
:103840001448332101F000FB134B1A88B5231B02E7
:103850009A4209D1114B1A88114B9A4204D1114B4B
:103860001A88114B9A42E6D00020FEF707FAC046AC
:10387000AD38001040EC00204C3300004CED00202F
:10388000D1370010534400005346000060B60010CA
:1038900050C90010A4B6001054380000D8380000F9
:1038A000494600009C3800005946000007B56046B4
:1038B000002800D100BE01880A0A0230DF2AFAD1AE
:1038C000C9B2820804D3028840880004104300E093
:1038D0000068024A5050039007BD000040EC0020F1
:1038E00051434343C9188C46110C83B24B4310B467
:1038F000040C614392B280B2504362431C041B0C1F
:10390000001910BC59411304120CC01851416144F4
:10391000704700004840414048400E4B5B681847E4
:103920000C4B1B6818470C4A936F9B0802D2094B3B
:10393000DB681847F0B5146E556E576F166FFFF7BA
:10394000F6FF054A1466556657671667F0BD014BCA
:103950009B68184750ED0020000000D0491A00284D
:1039600008D1084670470000C10FC90700D5404282
:10397000002817D0F44603B40B4B1B68984706BCCD
:1039800081409E384042803107D20B0607D0490063
:10399000490AC0051043084360470130F8E7490A67
:1039A0008902F5E7704700004CED0020014B1B6BCE
:1039B0001847000050ED0020034A10470029FBD0B3
:1039C000024B5B6E184700005D39001050ED00207F
:1039D000014BDB6F1847000050ED00204100090E3D
:1039E000862902DA044B1B6C1847044900B500F025
:1039F000FCF802BC8E46F5E750ED0020DB0FC94015
:103A000010B50148FEF73AF934A9001070B5132338
:103A10001E781848FFF75CFA0500012E11D0012E20
:103A200009DDAB1E1B789B007F2B1DDD1248802219
:103A3000290000F0EDF81148FFF742FA104B18602A
:103A400070BD0D485422290000F0E2F8002300E088
:103A500001331F2BE3D8084A9C00A258002AF7D153
:103A60000849054AA150F3E7074B084A0848422194
:103A700001F0EAF95346000050ED00204C330000FD
:103A80004CED0020013A001000B7001064C900108E
:103A900034B70010F0B5C64600B505000F00161E7D
:103AA00098461BDDC91101204042FFF783FB00222D
:103AB0000EE00C236C1244431D21C91A0C41013441
:103AC00064109D40210079436D1A9A401219F61A2C
:103AD000002E05DD0C2EECDC3300EBE70020E6E7E2
:103AE000BD4201DBED1B0132BD4201DBED1B0132AA
:103AF000002D07DB4346002B00D01A60280080BC55
:103B0000B846F0BD013AED19F4D5ED19013AF1E7E7
:103B1000F0B5CE46474680B583B01600C30F994630
:103B2000C30DFF24234045026D0A802212049046F3
:103B30001543CF0FCA0D14404902490A42460A43B1
:103B40009046002E01D000213160FF2B41D0002C87
:103B500042D0002B47D0FF2C40D0611E99423DDC63
:103B600023D04A46002A00D06D421A1B01AB4146C1
:103B70002800FFF78FFF4300434503DC07D1019B7B
:103B8000DB0704D54346C01A019B01330193002F84
:103B900002D0019B5B420193002E01D0019B336058
:103BA0009621091BFFF702FF18E0454516DD4B463D
:103BB000002B06D143465800281A012301930C001C
:103BC000E5E743465800401B01235B4201930C008C
:103BD000DDE7FF20C00501E0FF20C00503B0C0BC49
:103BE000B946B046F0BD0020F8E710B50022FFF757
:103BF0008FFF10BD01480421014B1847700C0020B5
:103C0000E12E0010014B1B6818470000700C0020CB
:103C1000014B5B6818470000700C00209A4200D2EC
:103C200088547047704710B5002802D00B68496867
:103C3000984710BD0100002007E083001B185B00BF
:103C4000501C08601078C01830380A681378303B70
:103C5000DBB2092BF1D97047F0B5DE4657464E4628
:103C60004546E0B583B093461F000C9B9A460D9CD9
:103C70000E9B99460F9B9B0717D0B8460F00060076
:103C800022E0551C4B4641462020B84701342A000B
:103C9000B442F6D33D004F465C46019B9B46B1467D
:103CA0004646B84637002E000EE00192A3468846ED
:103CB0004E46B9460700EBE7013C551C5346185DDC
:103CC00043463900B0472A00002CF5D135003E00AC
:103CD00047460F9B9B0711D4100003B0F0BCBB46B6
:103CE000B246A946A046F0BD541C4B464146202092
:103CF000B8472200531BB342F6D3EDE7B0464E4619
:103D0000B9462F005D46F5E7F0B5CE46474680B58B
:103D100085B0944698460C9D0D9C0EAB1B78994639
:103D2000109A119B129EB7071CD4002B0CD0F707DA
:103D30000AD54F46002F02D10C37374204D0013B41
:103D400002E030272F550134944201D21F2CF8D9BC
:103D5000F70707D59C4205D21F2C03D830272F55D3
:103D60000134F5E7F70612D5770505D4002C03D00A
:103D7000944221D09C421FD00F9A102A2FD00F9A24
:103D8000022A36D01F2C0AD830222A5501341F2C83
:103D900005D84A46002A32D02D222A5501340396EE
:103DA00002930194009543466246FFF755FF05B024
:103DB000C0BCB946B046F0BD621E012C17D00F9FA3
:103DC000102F0BD014000F9A102AD8D1B206D6D5D6
:103DD0001F2CD4D858222A550134D3E7023CB2060E
:103DE000F1D41F2CEFD878222A550134CAE71400E9
:103DF000C2E71F2CD3D860322A550134C2E77207BC
:103E000003D52B222A550134C9E73207C7D5202212
:103E10002A550134C3E7F0B5DE4657464E464546BF
:103E2000E0B593B081468A46089209931CAB10CB4B
:103E30001B789B461E9D219B9846002C03D1102386
:103E400042469A4390468023DB0046461E40424647
:103E50001A4218D0002C22D0002614E042469206C6
:103E60001BD54121C918C9B20A39C9B2771C0AAB9E
:103E7000995529002000FFF79DF9AC4210D31F2F60
:103E80000ED83E00040029002000FFF793F9CBB2C2
:103E9000092BE3D83033D9B2E8E76121E2E7270004
:103EA00043460693209B05931F9B049303955B4613
:103EB000029301970AAB0093099B089A5146484622
:103EC000FFF722FF13B0F0BCBB46B246A946A0469E
:103ED000F0BDF0B5DE4657464E464546E0B597B0D4
:103EE0000A900B910C929A46209B9946219F22AAF8
:103EF00013789B46249B0993259C289B98464A4609
:103F00003A4302D11032934398468022D20045466C
:103F10001540434613420AD04A463A4341D0002551
:103F20002E0053460D934D46099B9A4621E02E00E4
:103F300053460D934D46099B9A461AE04246920617
:103F400023D54122D218D2B20A3AD2B2731C994672
:103F50000EAB9A555246230028003900FFF768F946
:103F6000BC4220D813D04B461F2B16D84E46050016
:103F70000F005246230028003900FFF759F9D3B249
:103F8000092BDBD83033DAB2E0E76122DAE7AA4561
:103F9000E9D94E460D9B9A4608E04E460D9B9A463F
:103FA00004E0002602E04E460D9B9A4643460693E7
:103FB000279B0593269B0493099B03935B460293DF
:103FC00001960EAB009353460C9A0B990A98FFF793
:103FD0009BFE17B0F0BCBB46B246A946A046F0BD5A
:103FE000F0B5DE4657464E464546E0B591B08046B0
:103FF00089460C929A461A9C1B9D22002B00200099
:104000002900FFF790FB002800D0F2E00122524285
:10401000D54B20002900FFF781FB002800D0E8E005
:1040200001225242D14B20002900FFF761FB0028FA
:1040300000D0DEE00022002320002900FFF758FB1B
:10404000002800D0EAE0069407958023DB001E9A42
:104050001A400D921E9A1A4201D106231C9306980B
:10406000079902000B000892099303000A0002431B
:1040700000D1DFE0080D4005400DBD4EB446604460
:10408000079E3203120B1E00BA4B13431F00FFF7AB
:104090005BFBB94AB94BFFF7ECFAB94AB94BFFF7EA
:1040A000C9FA089009910022B74B30003900FFF798
:1040B000BCFAB64AB64BFFF7DCFA02000B000898D0
:1040C0000999FFF7B7FAFFF757FB8346FFF73CFB69
:1040D00006000F00AF4AB04BFFF7CBFA0022AF4B00
:1040E000FFF7A8FAFFF748FB0890AD4AAD4B300048
:1040F0003900FFF7BEFA06000F000898FFF724FB0F
:10410000A94AAA4BFFF7B5FA02000B0030003900AC
:10411000FFF78BFA06000F0002000B00FFF7A9FA69
:104120000A900B91089BA24A944663440021002206
:10413000089109921B0509930023089332003B0064
:1041400030003900FFF776FA0E900F9132003B00F5
:1041500000208021C905FFF768FA06000F00002241
:10416000944B0A980B99FFF76AFA0022924BFFF7DB
:1041700061FA02000B000A980B99FFF760FA00221F
:104180008E4BFFF757FA02000B000A980B99FFF7C6
:1041900056FA02000B0030003900FFF74BFA02001C
:1041A0000B000E980F99FFF74AFA0022714BFFF7A8
:1041B00041FA089A099BFFF75CFA06000F0008967F
:1041C0000997069A079BFFF7A9FA00280BD001234D
:1041D0005B429C46E3440022774B30003900FFF7F6
:1041E0002EFA089009915B466333C62B45D8042606
:1041F00023E01E9B04931D9B03931C9B029300943E
:10420000019553460C9A4946404600F0FBF811B020
:10421000F0BCBB46B246A946A046F0BD0021002234
:1042200006910792069480231B069C46AC44634685
:1042300007930AE700239B4604261E9B1B0528D5EF
:10424000089A099B190011430FD05D4A5D4B0698EF
:104250000799FFF75BFA00287AD000225A4B06989C
:104260000799FFF745FA002872D01C9B5B4506DDD5
:104270005A469B1A013B1C9303E00526DDE7002309
:104280001C938023DB001E9A1A431E9200260023F3
:104290009B461D9B9E4265D29F1B02231E9A1A407D
:1042A0000A921E9A134202D0002E00D000275B46CD
:1042B000002B07D0089A099B06980799FFF7BFF9CA
:1042C000069007910022002320002900FFF710FA32
:1042D000002800D07CE03D4B1E9A134004930397C6
:1042E0001C9B0293069B079C0093019453460C9AD7
:1042F0004946404600F086F8002E00D187E71E9B15
:104300009B0671D54525441C5346020049462800AA
:10431000C0475A46D317D2185A4005230593013E89
:104320000496002303930A3302935B46DB0F019349
:1043300000925346220049464046FFF76CFD0A9B17
:10434000002B00D163E7020047460C9E1D9D53E001
:104350001C9B002B9DD00D9B002B9AD01C9B013BDE
:104360001C9396E7002798E7FFFFEF7FFFFFEFFF23
:1043700001FCFFFF0000F03FFB799F501344D33F47
:10438000B3C8608B288AC63F0000F83F61436F6363
:10439000A787D23F71A379094F930A400000E03FFD
:1043A0001655B5BBB16B0240EF39FAFE422EE63F1F
:1043B000FF03000000002C400000244000001840D3
:1043C0002D431CEBE2361A3F80842E41FFF7FFFF9E
:1043D000069C079D22002900802000068446614437
:1043E0000B000692079376E765258CE7541C53462D
:1043F00049462020B8472200931BAB42F6D3100059
:1044000005E7C046F0B5DE4657464E464546E0B5A0
:1044100095B00690079193469946209F1E9A1F9B40
:1044200010001900FFF77FF9002831D10122524214
:10443000BC4B1E981F99FFF75BF9002837D101226A
:104440005242B94B1E981F99FFF768F900283DD1D9
:104450000022B64B1E981F99FFF760F900284AD139
:104460000022B34B1E981F99FFF742F9002842D152
:10447000002200231E981F99FFF73AF900284AD11D
:1044800000239846229B5B0500D4B0E0002452E054
:10449000229B0393219B029303230193A54B00933B
:1044A0004B465A4607990698FFF7D6FB08E1229B30
:1044B0000393219B0293042301939F4B00934B464C
:1044C0005A4607990698FFF7C7FBF9E0229B5B075E
:1044D0000ED59A4B042222990391219902910192BF
:1044E00000934B465A4607990698FFF7B5FBE7E05D
:1044F000934B0322EFE7229B0493219B03930297A4
:104500001E9B1F9C009301944B465A4607990698A0
:10451000FFF766FDD4E01E9A1F9B00200021FFF7E5
:1045200084F81E901F9101239846ABE70CAB302214
:104530001A55013F01341F2C01D8092FF6D81E98B7
:104540001F99FFF719F90500FFF7FEF802000B00AD
:104550001E981F99FFF769F87A4BFA009B181A68A2
:104560005B680A920B93FFF784F808900991FFF7B4
:1045700027F90600FFF7E4F802000B0008980999F4
:10458000FFF753F80890099100226F4BFFF7C6F828
:1045900000282ED001363000FFF7D2F802000B00C1
:1045A0000A980B99FFF7AAF8002801D001350026D8
:1045B000002F2CD12800FFF7C7F802000B001E982F
:1045C0001F99FFF732F806000F0000225E4BFFF73D
:1045D0008FF8002846D100225B4B30003900FFF7EE
:1045E0009DF800283ED1EB073CD501353AE006277F
:1045F0004CE70022544B08980999FFF779F80028F6
:10460000D6D1002E01D0F307D2D50136D0E7AA4685
:104610001F2C11D8013F0A213000FEF7CBFD651C8D
:1046200030310CAB19550A213000FEF7C3FD092EBD
:104630000ED906002C00EBE755461F2C0CD87B1E2C
:10464000002F09D00CAA302111551F000134F4E7C6
:104650002B0055461C00F0E71F2C03D80CAB2E2274
:104660001A5501341F2C10D80A212800FEF77AFDB4
:10467000661C30310CAB19550A212800FEF772FD7B
:10468000051E01D03400EDE734000323229A1340C5
:10469000012B1CD01F2C06D84346002B32D00CAB6C
:1046A0002D221A550134229B0393219B02930194DE
:1046B0000CAB00934B465A4607990698FFF7CCFA85
:1046C00015B0F0BCBB46B246A946A046F0BD219B42
:1046D000002B13D04346002B02D10C3313420FD0D2
:1046E000219B013B2193190003E00CAB30221A55AA
:1046F00001348C42CED21F2CF7D9CBE72199F8E7B1
:104700002199F6E7229B5B0704D50CAB2B221A55A7
:104710000134C8E7229B1B07C5D50CAB20221A55D4
:104720000134C0E7FFFFEFFFFFFFEF7F65CDCD4115
:1047300065CDCDC1DCB70010E0B70010D0B70010D8
:10474000D8B7001068CB00100000E03FF0B5DE469F
:1047500057464E464546E0B593B007008A46934615
:104760001193002900D12CE3002508E06C1C5B4666
:104770002A005146B847119B013311932500119B24
:104780001878002800D11EE32528EFD101331193BA
:104790000023180020E00123184301321192012464
:1047A00018E00223184301321192012412E004237D
:1047B00018430132119201240CE0082318430132FE
:1047C0001192012406E010231843013211920124B2
:1047D00000E00024002C09D0119A1378203BD9B2B4
:1047E0001029F6D88B00C449CB589F468146119BAF
:1047F0001A781300303BDBB2092B10D92A2A13D0C8
:104800000B94119B1A782E2A20D0119A1378683BAA
:10481000D9B2122965D88B00B849CB589F4611A848
:10482000FFF708FA0B90ECE71C9B1A1D1C921B6803
:10483000002B04DB0B93119B01331193E1E7022260
:104840000100114389465B420B93F4E78022D200BA
:104850004946114389465A1C11925A781300303B3D
:10486000DBB2092B0BD92A2ACFD11C9B1A1D1C9213
:104870001C68002C08DB119B01331193C5E711A8BC
:10488000FFF7D8F90400C0E70024F4E780235B00B9
:1048900049460B43511C119151786C2901D099461E
:1048A0001FE0C0239B0049461943894602321192FA
:1048B00017E0802349460B43511C11915178682918
:1048C00001D099460DE0C02349461943894602327A
:1048D000119206E080235B00494619438946013264
:1048E0001192119B187867281CD8252800D25EE207
:1048F0000300253BDAB2422A00D958E29300804AED
:10490000D3589F4680239B0049461943894601326C
:104910001192E6E780235B0049461943894601323C
:104920001192DEE7782800D941E2692800D23EE200
:104930000200693AD2B201239340724A134210D165
:104940001A0600D50CE25B0500D430E21C9B1A1D50
:104950001C921E68002C00D0BAE1012252423300A2
:1049600096E16F2842D005D8582841D0622803D15B
:10497000022606E078283DD010234A469A43914605
:104980000A26582838D0692805D0642803D00C227C
:104990004B46934399464B465A0502D50122934311
:1049A000994669282DD064282BD04B469A0500D50E
:1049B000AAE0DA0500D5C2E05A0600D4D3E01C9A7A
:1049C000111D1C911168FF220A404B4605930B9B59
:1049D0000493039402960023019300925B462A00FD
:1049E00051463800FFF717FA05002AE00826C8E705
:1049F0001026C6E71026C4E720224B4613439946EB
:104A0000C1E74B469A0520D4DA0551D45A0666D53B
:104A10001C9A111D1C911168FF220A40D017111811
:104A200041404B4605930B9B049303940296D20F8F
:104A3000019200915B462A0051463800FFF7EBF9DE
:104A40000500119B0133119399E61C9A0732072147
:104A50008A43110008311C91116853689C46DB178A
:104A60000C930D930C9A0D9B100048400E900D9BDB
:104A700061464B400F930E980F990C9A0D9B801A2C
:104A800099410E900F914B4608930B9B0793069408
:104A90000496002305936346DA0F02920090019179
:104AA0005B462A0051463800FFF713FA0500C8E7B5
:104AB0001C9A111D1C911268D017111841400593C2
:104AC0000B9B049303940296D20F019200915B46D4
:104AD0002A0051463800FFF79EF90500B1E71A0693
:104AE00005D51C9A111D1C910023D25E96E71C9AD5
:104AF000111D1C91126891E7CCC9001010CA00105A
:104B00005CCA0010419000001C9A073207218A43BA
:104B1000110008311C9108930B9B0793069404968F
:104B200000230593029353681268009201935B4639
:104B30002A0051463800FFF7CCF9050081E71C9A9E
:104B4000111D1C9105930B9B049303940296002363
:104B50000193136800935B462A0051463800FFF723
:104B60005AF905006DE71A0606D51C9A111D1C910D
:104B700012681204120C28E71C9A111D1C9112686D
:104B800023E746281AD01C9B0733072293431A00B9
:104B900008321C924A4604920B9A039202941A68B5
:104BA0005B68009201935B462A0051463800FFF78C
:104BB00029FC0500119B01331193E0E520234A46AF
:104BC0001A439146DFE7672801D0472804D18023A4
:104BD0001B014A461A439146452801D0472803D174
:104BE00020234A461A4391461C9B073307229343CE
:104BF0001A0008321C924A4604920B9A03920294BD
:104C00001A685B68009201935B462A00514638009F
:104C1000FFF7E6F90500119B01331193AFE502237D
:104C20004E461E404A4613421ED001241C9B1A1DAC
:104C30001C926A1C904618785B462A005146B84779
:104C4000002E14D1119B01331193454697E5551C55
:104C50005B4651462020B84723002A005C1C0B9974
:104C60009942F4D81500E1E701232A00F6E742460D
:104C700006E0561C5B4651462020B8472C00320007
:104C8000651C0B9BA342F4D89046DBE701330A0076
:104C90001978002902D0511E002AF7D19B1B8022CF
:104CA000D2004946114088464946114202D0A342EB
:104CB00000D92300022249461140109149460A4278
:104CC00008D02A00250099463B004746984626E032
:104CD000220044E6A1462A005146B2460E0006E0F4
:104CE000551C5B4631002020B84723002A005C1C7D
:104CF0000B999942F4D8150022004C4633005646D1
:104D00009A4691462A0025003B004746984606E011
:104D10001D000136541C5B465146C04722003078C6
:104D2000002804D0002FF4D06B1E002DF0D1150008
:104D30004B464746109A002A03D1119B0133119329
:104D40001DE50B9E2A0006E0551C5B4651462020BF
:104D5000B84723002A005C1C9E42F5D81500ECE7FA
:104D600021234A461A4313001C9A111D1C911268F4
:104D700005930823049303940833029300230193BB
:104D800000925B462A0051463800FFF744F80500C0
:104D9000119B01331193F2E46C1C5B462A005146CF
:104DA0002520B847119B013311932500E7E46C1CC3
:104DB0005B462A005146B847119B013311932500E9
:104DC000DDE40A4FD0E45D450DD35B465A1E5B46D9
:104DD00051460020B847280013B0F0BCBB46B2468D
:104DE000A946A046F0BD2A00F1E7C046253C0010C8
:104DF0000CB430B585B00A0008AC08CC0394054D5E
:104E0000009401002800FFF7A1FC05B030BC08BCED
:104E100002B018471D3C001010B584B00C0002A968
:104E200002904C6001240448009313006242FFF793
:104E30008DFC04B010BDC046273C001000BEFDE74D
:104E400010B5FFF7FBFF000030B583B00D0019006F
:104E5000002A0BD0074B084C019200932B00020054
:104E6000200000F06FF90120FFF7E8FF034B1A0064
:104E7000F1E7C046E8B70010F8B7001034A90010F9
:104E800010B5EFF30583002B00D000BEFEF77AF8D3
:104E9000034C01E008CC9847024B9C42FAD310BD6A
:104EA000549D00105C9D001010B503000800110017
:104EB0001B68984710BD0000F8B507000D001600EC
:104EC000437D002B02D0002400200CE00368110079
:104ED000280098472DE03B7D10E03B6815480221F3
:104EE0009847601C0134B44214DA002CF3DD2B190E
:104EF000013B1B780D3B5A425341DBB22A5D0A2A23
:104F0000F0D1002BEED1A042E7DA3B68211A281835
:104F10009847E2E7B04203DA3B68311A281898470D
:104F2000002E06DDAD19013D2B780D3B5A42534151
:104F30003B75F8BDB8CB001070B505000368002BB9
:104F400016D00C4B1C6805E0290004C92000FFF7AF
:104F5000B3FF2469002C09D02368002BF9D0064B3D
:104F60001B68002BF0D0A342F3D1EDE700232B60A8
:104F700070BDC046501600205816002070B50500C0
:104F80000C000B68802B05D023685A1C2260E418A3
:104F9000257170BD0800FFF7CFFFF5E710B5FDF7ED
:104FA000F3FD074A002312184B41002B03DB054891
:104FB00004F08AFE10BD01225242034BF7E7C046BF
:104FC00040420F00B80C0020FFFFFF7F10B50248E1
:104FD00004F042FE10BDC046B80C0020F0B5CE462D
:104FE000474680B583B006000D0090461C00FFF7D1
:104FF000D5FF81466B1C05D0002C08D0184F194BEB
:105000001C6807E0300004F0EFFD0500F4E7164FE0
:10501000F5E72469002C17D02368002BF9D0134B37
:105020001B68002B01D0A342F3D12A0031002000DD
:10503000B8474346002BECD06B46D91D0A230B70B2
:1050400001222000B847E4E74B46002B05D1280099
:1050500003B0C0BCB946B046F0BDFFF7B7FFF6E7F6
:10506000B94E001050160020A94E0010581600200E
:105070000A4A136802E01A0010321B69002B09D09B
:1050800013688342F7D1002907D103691360002315
:10509000036102E0002900D0106070475016002024
:1050A00010B5064B1C6800E02469002C04D063682E
:1050B000002BF9D09847F7E710BDC04650160020E6
:1050C00010B500F0D5F910BD10B582B004006B46E4
:1050D000D81D0470012300220121FFF77FFF20006B
:1050E00002B010BD70B5050004F07EFD0400012380
:1050F000012201002800FFF771FFFFF7D1FF200018
:1051000070BD0000F0B5A3B004000E00FFF746FF2D
:10511000050001AF00230193094833002200390044
:10512000FFF77AFE04003800FFF706FFFFF7B8FF2D
:10513000002D02D1200023B0F0BDFFF747FFF9E7B3
:105140007D4F00100FB400B583B004A901C90191CF
:10515000FFF7D8FF03B008BC04B018477047000041
:10516000014B00221A70704783EE00204B79FF2B11
:105170000CD18B79002B0BD1CB79012B0AD1082ACA
:105180000AD98A78054B1A70092000E00020704780
:105190000020FCE70020FAE70020F8E783EE00207B
:1051A0000120704710B5012927D1117953791B02CD
:1051B0000B43134909788B4201D000201EE053783D
:1051C000012B03D0022B11D0002017E09178D37867
:1051D0001B021943DB0506D5480A8A05D20F7F2337
:1051E0001940FDF799FE01204042F6E764220021B4
:1051F0000020FDF739FE012000E0012010BDC0466F
:1052000083EE00200048704784CC001010B51400D5
:10521000012910D15378012B0FD1127963791B0228
:105220001343072B01D0002006E0054A9F332100DD
:1052300001F054FB00E0012010BD0020FCE7C04657
:10524000DCCB00100123037000487047BCCB00107A
:1052500010B50A784B781B0213438A7812041A435C
:10526000CB781B0613439622D200934200D010BD88
:105270000120002211004042FDF74EFE024B186053
:10528000024B19607047C046EC150020F015002055
:1052900010B5FDF779FC0E4A002312184B41002B84
:1052A00012DB0C4804F010FD00280CD00120002176
:1052B000404201F0D9F9002001F078FC0028F5D136
:1052C000044804F0C9FC10BD01225242024BE8E739
:1052D00040420F0054EE0020FFFFFF7F10B5024B4D
:1052E0001878FCF7F1FD10BD84EE002070B5174B67
:1052F0001B68002B20D0EFF3108272B610001968E3
:105300000029FCD0BFF35F8F10494A60104B002288
:105310001A700B68BFF35F8F1A6080F31088002447
:1053200000250C4B1878FCF7ABFD002808D10024B1
:1053300000252000290070BDFA24A4000025F0E714
:10534000044B1878FCF7C0FDF3E7C04618EC0020CA
:1053500085EE002084EE0020F0B585B00600140034
:105360001D000CAB1F78FDF70FFC22002B0012185C
:105370004B41002B09DB02970B9901910A9900918F
:105380003000FDF743FA05B0F0BD01225242014B57
:10539000F1E7C046FFFFFF7FF0B5C64600B584B019
:1053A0000500884616001F000AAB1C78FDF7C6F9F9
:1053B0000294019700962A004346FFF7CDFF04B000
:1053C00080BCB846F0BD000010B582B02248002174
:1053D00004F062FC00281ED1204B1B68002B18D063
:1053E000EFF3108172B608001A68002AFCD0BFF3F0
:1053F0005F8F1A4A51601A490B78DBB201240C7096
:105400001268BFF35F8F0021116080F31088002BBA
:1054100017D002B010BD01200021404201F024F954
:10542000002001F09BFB04000B4804F015FC002C4D
:10543000EFD00C4B1B68002BEBD00B4A1068984741
:10544000E7E70A4A013300930023FA208000002195
:10545000FFF7A2FFDDE7C04654EE002018EC002065
:1054600085EE0020EC150020F0150020ED52001014
:1054700010B582B0D0231B061C68FDF75FF9FDF75D
:105480003FFAA04230D1274B1B780021002002F0C8
:105490004FF8254B1B68002B2CD00120FCF7E2FEB7
:1054A000224C20702249FF231840FCF72BFD207866
:1054B0000121FCF7FFFC0520FCF716FD041E1DD0A2
:1054C0000120FCF759FC01001A4B1800FCF72AFFD9
:1054D000194900220520FCF73FFD18480121FFF77C
:1054E000C7FD200002B010BD154B164A1648C62154
:1054F000FFF7AAFC0C48FCF7D3FECEE70D480822C4
:105500000021FEF77FFB114A012300930023FA20BC
:1055100080000021FFF740FFC043C40F0028E0DAFD
:10552000DBE7C0463CD1001054EE002084EE0020A2
:10553000C953001018EC0020DD520010800C002030
:1055400028B80010B4CC001030B80010ED52001094
:1055500010B5002001F0E6FA10BD000070B505009E
:105560000C00FFF7F5FF002834D0002001F0F6FA18
:10557000002832D0FDF708FB1B4A002312184B41CC
:10558000002B19DB194804F09FFB002828D0FFF7F7
:10559000DFFF002804D0002001F0E0FA00280FD13E
:1055A00001200021404201F05FF8032464420F48CB
:1055B00004F052FB200070BD012252420C4BE1E787
:1055C00022002900002001F0D5FA041EEFD10324A7
:1055D0006442ECE703246442ECE703246442E9E715
:1055E00003246442E6E7C04640420F0054EE002028
:1055F000FFFFFF7FF0B5C64600B580460C00FDF703
:10560000C3FA314A002312184B41002B07DB2F4805
:1056100004F05AFB002806D180BCB846F0BD012238
:1056200052422B4BF3E7FFF793FF002849D1294B58
:105630000020002118605960244804F00DFBEBE7BE
:1056400001200021404201F00FF8002001F0AEFAE5
:10565000FFF77EFF0028EFD0002001F023FB002899
:1056600020D0A542E8DA661B002001F01BFB0200F7
:10567000864200DC3200002AE2D04346591900205D
:1056800001F0ECFA060001200021404200F0ECFF9E
:10569000002001F08BFAAD19FDF776FA0D4B18607A
:1056A0005960DEE7FDF770FA0A4B1E685F680A4A28
:1056B000002392197B419942BED8D2D19042D0D9D1
:1056C000BAE70025CDE7C04640420F0054EE002067
:1056D000FFFFFF7F580E002020A107000048704701
:1056E00030CD001000487047DCCC001010B504002D
:1056F000154B1B78002B0ED0002C11D1134B144AE4
:105700005A80012301335B009BB21048C0229200F3
:105710001343038010BD0C48112100F025F8EBE77E
:10572000052C0ED80B4BA400E4580023122BE9D80B
:10573000E15C0029E6D00133044A58008152DBB213
:10574000F4E70020E6E7C04668EE002024160020BB
:1057500009040000C4CC001010B5024800F030F875
:1057600010BDC04638EC002010B5002901D0002340
:1057700008E00F4B0F4A10483B31FFF765FB37320B
:10578000C25401334A1E9A420ED90F2B0CD85A0824
:105790000A4CA45C01229A43920014410F22224039
:1057A000092AECDC3032EBE7C0180023037010BD8F
:1057B000C4B8001044CD0010CCB8001038EC002064
:1057C00070B588B0040004AD0D2200212800FEF75A
:1057D00019FA0D2200216846FEF714FA4B232B70AC
:1057E0000D226946280004F02FFA002304E05A1D18
:1057F00069468A5CE2540133072BF8DD08B070BDBE
:1058000070B582B07F230340C509274C5E0076192E
:105810007601A419A0706842684160700020E070B1
:105820002183E276012D1ED0D800204A94466044A0
:105830001D4A590049194901521890601A4A5900E5
:10584000491949015218926800211160002B10D1AA
:10585000154A5B005B195B01D31800225A60144A99
:10586000DA6002B070BDD800124A94466044A0606D
:10587000E4E7012D0BD0591EC9000F4A944661443C
:10588000094A5B005B195B01D2185160E9E7591EB8
:10589000C9000A4A94466144034A5B005B195B01F4
:1058A000D2185160DDE7C0465C160020840010501D
:1058B00000011050800010500C00105008001050D3
:1058C00010B5038B3F333F229343C27E022A08D098
:1058D00008490A68C260D3180B60074A934202D88D
:1058E00010BD5B00F4E7054B054A06485221FFF75F
:1058F000ABFAC046FCEB0020FF0F10502CBB001091
:10590000A4CD001070BB0010F8B57F250540C60976
:105910006B009B195B010E4C1C19FFF771FF002DEA
:1059200000D1F8BD0A4B6D00AD196D015D19298BD1
:105930002000FFF7C5FFEB7E9B06E968054A4A4059
:1059400013438022120613436A681360E9E7C046D6
:105950005C1600200000105010B504007F2020408D
:10596000E409400000194001024BC01800F026F97C
:1059700010BDC0465C16002010B5002804D10121DE
:105980000520FCF797FA10BD034B044A9821044800
:10599000FF31FFF759FAC046E4BB001094CD001068
:1059A00070BB001010B5002805D100220021802016
:1059B000FFF7D2FF10BD034B034AA2210348FF317A
:1059C000FFF742FAE4BB001084CD001070BB00105A
:1059D000024B80225202DA647047C0460020115008
:1059E00070B5041E27D100F0C7F8164D0C23AB6725
:1059F0001549FF220520FCF7AFFA14484022002188
:105A0000FEF700F9002240210020FFF77DFF002271
:105A100040218020FFF778FF04F076F901232B6402
:105A200080239B05EB649023094AEA502000FFF78E
:105A3000CFFF012070BD074B074A64210748FF31A3
:105A4000FFF702FA00001150BD0400205C16002090
:105A500010D00100E4BB0010B8CD001070BB0010E6
:105A6000044B1970002904D0034A90238021890235
:105A7000D15070477DEE0020002011500B785B065E
:105A800002D14B78052B00D070478A78014B1A6001
:105A9000FAE7C0460000115010B5CA789207920F7D
:105AA000012A0AD088780B794979090219434905F6
:105AB000490DFFF729FF012010BD0020FCE710B5BC
:105AC00004F022F910BD000010B504000800110018
:105AD0001A00002C03D1FFF73FFF012010BD034B3C
