:020000041000EA
:1000000000B5324B212058609868022188439860DF
:10001000D860186158612E4B002199600221596106
:100020000121F02299502B49196001219960352056
:1000300000F044F80222904214D00621196600F024
:1000400034F8196E01211966002018661A6600F04E
:100050002CF8196E196E196E052000F02FF8012189
:100060000842F9D1002199601B49196000215960AB
:100070001A491B48016001219960EB211966A021F2
:10008000196600F012F800219960164914480160C1
:100090000121996001BC002800D000471248134993
:1000A000086003C880F30888084703B5996A0420EC
:1000B0000142FBD001200142F8D103BD02B5186610
:1000C0001866FFF7F2FF186E186E02BD00000240BE
:1000D000000000180000070000035F00212200005C
:1000E000F4000018222000A00001001008ED00E03C
:1000F00000000000000000000000000074B24E7A12
:1001000000200420F7010010CB010010CD010010E9
:10011000C9010010C9010010C9010010C901001077
:10012000C9010010C9010010C9010010CF01001061
:10013000C9010010C9010010D1010010D301001045
:10014000C1010010C1010010C1010010C101001067
:10015000C1010010C1010010C1010010C101001057
:10016000C1010010C1010010C1010010C101001047
:10017000C1010010C1010010C1010010C101001037
:10018000C1010010C1010010C1010010C101001027
:10019000C1010010C1010010C1010010C101001017
:1001A000C1010010C1010010C1010010C101001007
:1001B000C1010010C1010010C1010010C1010010F7
:1001C000EFF30580103800BE00BE00BE00BE00BECA
:1001D00000BE00BEF2EB88715C8200107C820010D1
:1001E0003802001090A31AE71E481F49086006C88D
:1001F00081F3088810471D480068002801D019487D
:10020000F3E70DA40ECC002902D000F012F8F9E7B4
:100210001749184A002000E001C19142FCD116495B
:100220008847164988471649884700BEFDE701C937
:1002300001C29A42FBD370477C820010C0000020AC
:10024000B01000206C920010000004200000042078
:100250006C92001000100420001004200000000028
:10026000704700000000000008ED00E0000000D032
:10027000B0100020002000208D4C0010D50200108E
:10028000854C0010F8B5C04606480749091A8B107E
:10029000C90FC91810B5491003D0044B002B00D06A
:1002A000984710BDB0100020B010002000000000E2
:1002B000054B10B5002B03D00449054800E000BFF2
:1002C000FFF7E2FF10BDC04600000000841F0020C1
:1002D000D4790010F0B5DE4645464E465746E0B5A7
:1002E0008FB004F011FEFA20C00001F0CFFCEB4803
:1002F00004F058FEEA4804F055FEEA4804F052FEC5
:10030000E94B0022E94804F0D1FEB421E848490055
:1003100004F0CCFEE74804F045FEE74804F042FE56
:100320000921082000F0F2F90B210A2000F0EEF973
:1003300000F046FBE14804F035FEE14BE14D984604
:10034000E14B9946E14B0493E14B9B46E14B05930E
:10035000E14B0993E14B0A93E14B0B93E14B0C9377
:10036000E14B0D93E14B0893E14B0693E14B07936F
:10037000E14B039390E0FA220023920002F03CF953
:10038000040000F05DFB070000F060FB2B69060035
:10039000E31A9A466F60632B1CD92868381A02F05A
:1003A00055FFD64902F031FFD54902F042FF011C4A
:1003B0000290A86802F026FFA860504602F040FFB5
:1003C000D04902F022FF011C029802F01EFF2F60AC
:1003D000E8602C6143461F695E60E71B632F1FD9ED
:1003E0001868301A02F032FFC44902F00EFFC44907
:1003F00002F01FFF4346011C8246986802F002FF8C
:1004000043469860380002F01BFFBE4902F0FDFE33
:10041000011C504602F0F9FE4346D8601E601C6184
:100420004B46049A18681368002B40D15B46146051
:100430001C6004282DD0039B1B68E31AC72B28D906
:10044000A86802F025FF6A680600E86892460F0077
:1004500002F01EFF3B0032000090019151460698C9
:1004600004F024FE4246906802F012FF42465268B1
:10047000060092464246D0680F0002F009FF3B009A
:100480000090019132005146079804F00FFE039B43
:100490001C600A2001F0FAFB01F00EFD002900D0DB
:1004A00069E7FA21890002F069F8040069E75B4610
:1004B000954A1B68E31A9342BBD95B4605211C6031
:1004C000013002F033F84B4619600429B3D8059B7C
:1004D00089005B589F460C9804F064FD00230022BD
:1004E0002A606B600023AB60EB6001F0E5FC002943
:1004F00000D1BEE0FA220023920002F07DF84346CC
:100500002A00286143CA43C303CA03C300F08EFA1A
:100510003C2209215242082000F03AF93C220A20EC
:100520000B2100F035F94B46186882E70B9804F070
:1005300039FD002300222A606B600023AB60EB6072
:1005400001F0BAFC002900D19DE0FA2200239200BC
:1005500002F052F843462A00286143CA43C303CA43
:1005600003C300F063FA3C220921082000F010F9CF
:100570003C225242D3E7099804F014FD00230022E4
:100580002A606B600023AB60EB6001F095FC0029F2
:1005900074D0FA220023920002F02EF843462A007B
:1005A000286143CA43C303CA03C300F03FFA2822A9
:1005B0000921082000F0ECF82822B0E70A9804F09E
:1005C000F1FC002300222A606B600023AB60EB602B
:1005D00001F072FC00295BD0FA220023920002F0A5
:1005E0000BF843462A00286143CA43C303CA03C326
:1005F00000F01CFA46220921082000F0C9F8462222
:100600008DE70D9804F0CEFC0921082000F082F956
:100610000B210A2000F07EF9089804F0C3FCA868BA
:1006200002F036FE6B680600E8689A460F0002F09A
:100630002FFE32003B00009001915146069804F0D5
:1006400035FD4346986802F023FE43465B6806008A
:100650009A464346D8680F0002F01AFE3B0000900D
:10066000019132005146079804F020FD4B4618686E
:10067000DFE6FA21890001F081FF40E7FA218900D5
:1006800001F07CFF8AE7FA21890001F077FF61E73A
:10069000FA21890001F072FFA3E7C046347A001006
:1006A000607A0010847A001000405040B07A001048
:1006B000CC7A0010E87A0010147B0010387B001010
:1006C0006C1F002038120020DC1F0020E01F0020DB
:1006D000A41F0020A47D0010407B00105C7B001054
:1006E000807B0010947B0010A87B0010BC7B001066
:1006F000D8790010087A00105C1F00200000B44375
:100700000F344C4300007A44B70B0000F8B50D00DD
:100710000400042100F004FB0421280000F000FB89
:1007200063081F2C24D807241C406B081F2D25D8D4
:1007300007221A40A3001B19FA24124E12489B00EC
:100740009919E4004C6008610D6801210F00AF4366
:100750003D000E4FBC4663441D6093009B189B00F8
:100760009A19546010611268634491431960F8BD8E
:1007700003241C4008346B081F2DD9D903221A40CA
:100780000832D7E700000540E703000000100540ED
:1007900030B51400130064343BDA64235B42DC1789
:1007A0001B1963409C00E41864004308002A5DDCC8
:1007B00033D01F2800D895E003221A400832930056
:1007C0009B18504A9B009A18C5074F481268ED17AE
:1007D000684010404D4A9446634418604A081F29F7
:1007E00000D98BE0072313409A00D218454B9200A2
:1007F0009C4623006244C90700D47DE04449230499
:10080000106843400B40802149018C4662441360CC
:1008100056E0642AC3DD6423C1E71F2865D903229B
:100820001A40083293009B18364A9B009A18364C9F
:10083000C0071268C01760400240344884466344D1
:100840001A604B081F2953D807221A4093009B189F
:100850002C4A9B009A182C48C9071268C9174140B6
:100860000A402A498C4663441A6029E01F2828D888
:1008700007221A4093009B18224A9B009446634427
:10088000C00729D5224A2404186844401440802215
:100890005201944663441C604B081F291ED807224E
:1008A0001A4093009B18174A9B009A18C8071649CC
:1008B0001268C01741401140144A944663441960BD
:1008C00030BD03221A40083293009B180D4A9B004A
:1008D00094466344C007D5D40B4AD5E703221A4097
:1008E0000832DEE707221A4069E707221A4099E733
:1008F00003221A400832A9E7034981E70323134082
:10090000083371E70C000540FFFF00000C100540A4
:100910000000FFFF10B543081F2825D807221A4002
:1009200093009B18144A9B009A18144CC007126835
:10093000C017604002401248844663441A604B0866
:100940001F2915D807221A4093009B180A4A9B00BA
:100950000A489A18C9071268C91741400A4008494D
:100960008C4663441A6010BD03221A400832D7E750
:1009700003221A400832E7E70C000540FFFF0000A1
:100980000C100540032809D0052800D070470B073C
:100990000ED5094A136801331360F7E70B0704D536
:1009A000064A136801331360F0E74907EED5F7E70D
:1009B0004907EBD5EDE7C046C81F0020641F0020A3
:1009C00010B50320D02400F06DFA08232406A3629A
:1009D00000220121032000F0BDF9052000F062FA99
:1009E00020230022A3620121052000F0B3F90B4B64
:1009F00001220C21032000F0EDF901220C21052039
:100A000000F0BCF9064804F0CDFA0321054804F0D3
:100A10004DFB0521044804F049FB10BD8509001079
:100A2000D07B0010F47B0010147C00100022024BDD
:100A30001A60024B1A607047641F0020C81F002014
:100A4000014B18687047C046641F0020014B1868AE
:100A50007047C046C81F0020D0231B061B68AC4A45
:100A60009900F0B5DE468B4651585A4253412F2229
:100A700057464E4645465B4293439A46A54BE0B5E2
:100A80009C4683B000260191E244002938D0A24B55
:100A900099465246F30808339B009D5801233400C1
:100AA00098460836002D22D00F212000294001341D
:100AB0002D09002919D04B465A469A580300C240C6
:100AC000203BDB171340424613420CD107220F0094
:100AD0000240920097403A00C308904F3C339B007D
:100AE000DA51019B9847002D01D0B442DCD3202E6F
:100AF000CFD103B0F0BCBB46B246A946A046F0BD7C
:100B0000854E5F4600210F23B346CC082200504695
:100B1000083292001258002A00D1D0E0180010408C
:100B20008046100913421AD05D46ED59A94620258A
:100B30006D42AC468C446546ED17AC464D46CD4003
:100B4000A94665464E4635400126354204D1464603
:100B5000724D3C34A4006651002800D1AFE01C0067
:100B60000440A446140A03421AD0481C8046584642
:100B7000C059464681464D460800F5401F38C0170B
:100B800028400125284208D165462D01AC46F008D1
:100B90006646624D3C3080004651002C00D18EE00C
:100BA000180020408446100B234211D08C1CA04614
:100BB0005C46E4594646A1464D460C00F5401E3CB5
:100BC000E4172C4001252C4200D182E0002876D089
:100BD0001C000440A446140C034210D0C81C8046DC
:100BE0005846C059464681464D460800F5401D38D6
:100BF000C01728400125284275D0002C5FD018006E
:100C000020408046100D23420ED00C1DA4466546A0
:100C1000414CE459EC40A1460C004D461C3CE40F0D
:100C20002C426AD000284AD01C000440A446140E6E
:100C3000034218D0481D804645463748C059E84011
:100C4000814608004D461B38C00F284209D1654631
:100C50002D05AC4640466646C008304D3C3080000D
:100C60004651002C2BD0180020408446120F2342FE
:100C70002AD029488C1D8146C059E0408046080092
:100C800045461A38C00F284206D1E0086446234D75
:100C90003C30240680004451002A10D04846C059F8
:100CA000CC1DE0408446080065461938C00F284234
:100CB00005D1E0083C30194C120780000251083180
:100CC000202900D021E714E7002AF8D012488146F5
:100CD000E4E765462D02AC46F40866460F4D3C3409
:100CE000A400665172E765462D03AC46F0086646DF
:100CF0000A4D3C30800046517FE745462D04A8460A
:100D000064464646E408054D3C34A400665189E734
:100D1000E81A002030410140B81F00200040014087
:100D2000094A83009A1810B5146840225440803252
:100D30002240064CC000A44663441A60044B9C4603
:100D40006044416010BDC04604C0014004D0014071
:100D500000400140074B8000C3181B68C900920087
:100D60000A435A400C231340034A944660440360EC
:100D70007047C04604C0014004D00140D0231B0688
:100D80001B6830B50500584243412F205B42834326
:100D90000E48EC088446072028408000814020004F
:100DA0000B4D3C3063448000A40041511B19002AC4
:100DB00005D08022920194466344196030BDC02260
:100DC0009201944663441960F8E7C04630410140FF
:100DD00000400140F8B545469846D0231B06DE4644
:100DE0001C689B462B4B57469A46A3004E46994695
:100DF000E0B5534616004A469B5807000D00002BED
:100E000034D04346002B3FD053464A464146995082
:100E1000D0231B061C6863425C412F2207206342DB
:100E200093431D4A38409446FA08110080008540DB
:100E30003C311A486344890092000D509B18002EE3
:100E40000ED0802292019446634401210D201D6042
:100E500000F00AF9F0BCBB46B246A946A046F8BD70
:100E6000C0229201944663441D60F3E74346002B81
:100E7000D1D0534641460D2099500022084900F038
:100E800055F95B461C68C6E70D20054900F048FA95
:100E9000BAE7C046E81A0020304101400040014056
:100EA000590A00100123D0228340120693629361F5
:100EB000094A83009A1811684022514080320A4042
:100EC0000649C0008C4663441A60054B9C460523C6
:100ED000604443607047C04604C0014004D00140F4
:100EE000004001408023DB051868000F7047C046B2
:100EF0000FB400B5084883B004F054F8049B002BED
:100F000007D005A91800019103F0A2FE034804F0E0
:100F100049F8012003F0B4FE347C0010447C00103A
:100F200070B5EFF3108C72B60D4D2B68002BFCD012
:100F3000BFF35F8F0724CB08C618C05C01230C40A9
:100F4000A3401C000440034207D118433070BFF394
:100F50005F8F2C608CF3108870BD1000FFF7C8FF06
:100F60002C0100D0F8B54746CE46884680B5EFF351
:100F7000108C72B61C4D2C68002CFCD0BFF35F8F18
:100F80009A4222D807210126894602E00132934283
:100F900018D34D4637001540AF40D4080119045D01
:100FA0002742F3D110003C430C70BFF35F8F002247
:100FB0000D4B1A608CF3108800280EDBC0BCB946BC
:100FC000B046F8BD01204042EFE7BFF35F8F00233A
:100FD0002B608CF31088012040424346002BEDD05B
:100FE0000898FFF785FFC0462C0100D0044A10780E
:100FF000431CDBB2172B00D9102313707047C04677
:10100000E00F002010B5064B064C82B001000093A3
:1010100018221F232000FFF7A5FF02B010BDC04615
:10102000487C0010F81A00200021044B044ABFF34A
:101030005F8F02C39342FAD17047C046000100D0CF
:10104000800100D0054B064A1360064A13605360C6
:101050009360D36013615361936170478080808097
:1010600000E400E004E400E01F2318401E3B83403E
:10107000002905D0C021044A49005350136070472D
:10108000802201498B50FAE700E100E00122824012
:10109000034B1B6813405A1E9341D8B27047C04699
:1010A00000E100E001238340014A13607047C0461D
:1010B00000E200E0064B10309B688000C358054AF0
:1010C00000209B1A2F229A424041C0B27047C0466E
:1010D00000ED00E0E40F002070B50D00EFF3108686
:1010E00072B60F4A1368002BFCD0BFF35F8F0D4B15
:1010F00010309B6884001B590B4A934203D09D42D9
:1011000001D001F0E9F8074B9B681D51BFF35F8FD9
:10111000BFF35F8F0022024B1A6086F3108870BD08
:10112000240100D000ED00E0C1010010F0B55746E9
:101130004E46DE464546E0B585B0060000911700F4
:10114000EFF3108B72B66A4A1368002BFCD0BFF322
:101150005F8F0025674B5D579A46002D00DAA9E0A6
:101160006B00654C01935B199B009846A146C144F6
:101170004B4652469B7910361370604BB6009B6805
:1011800099590B1B2F2B33D95D4B994200D0ACE002
:10119000019B42469C465B4B6544AD0063535A4BF2
:1011A0000232A218043B9B1A1B05584A5B0D6519B5
:1011B00013436B80564B0121AB80FF23AB71009B27
:1011C000EF71AB604B460B4319004C4B9B68995138
:1011D000BFF35F8FBFF35F8F0022454B1A608BF325
:1011E000108805B0F0BCBB46B246A946A046F0BD8B
:1011F00001200A008243D3798C46BB4231D8454650
:10120000130044491B1B5B415943090D3D4B63537C
:101210003D4B02356519043B5B1B1B053B4D5B0DCC
:101220002B43AA464D466B800425AC465546E04408
:10123000131F44441B1B1B055B0D1D434B4699713B
:1012400000999D8099604946DF71334B01431360DB
:10125000BBE75800C01880002018C179B9422FD9C7
:1012600002000623D356002BF3DA02932B4B614680
:101270000393131D9A4604235B429C46E144504667
:101280004B461B1A1B055B0D9C46204B95719846DF
:101290006346404603439380019B5A199200039B87
:1012A000A418A380029B1C4AA371009B2260E771D3
:1012B000A3608AE701F010F8002553465D574FE719
:1012C000908802934005131D9A46031561469C467B
:1012D0004046D444634604302018181AE023000521
:1012E000400D1B0218430390C5E700F0F5FF4FE7E0
:1012F000240100D0F91F0020E40F002000ED00E0E1
:10130000C101001000A1FFFF1410002000E0FFFF4A
:1013100001BDFFFFAAAA00000148804701BD0000EF
:10132000F0B5DE4657464E464546E0B50C0083B064
:10133000EFF3108872B6634A1368002BFCD0BFF33A
:101340005F8F614B61499A68030010339F00D55944
:1013500001938D4243D0A54254D05D4EAA1B2F2A43
:101360003DD85C4B9B461B68994601231A009C465E
:1013700082404B4613401F229946634602409340E9
:101380009A4680225B4650469850BFF35F8FEFF33A
:1013900005839B46002B37D0019B5B4501D000F0B5
:1013A0009BFF01232A009A439068844208D176E08B
:1013B0004B005B189B00F3189868844236D01A00E3
:1013C000062151560029F3DA844254D04B46002BB3
:1013D00027D0C02251463F4B5200995019603A4BDA
:1013E0009B68DD51BFF35F8FBFF35F8F0022354BEA
:1013F0001A6088F3108803B0F0BCBB46B246A94619
:10140000A046F0BD0D00EAE72A0063469A439068C3
:101410008442D5D106201056130000280ADA0D00A8
:1014200031E0802351462B4AD150D8E70620185688
:10143000002821DB42001118890074188B46A1682E
:101440009960E179D971062161569971002924DBEF
:10145000A488F11A640524155C44091909051E4C79
:10146000490D2143998013181C4A9B001178F318E9
:1014700099711070AAE713005946002914D1FF3161
:1014800091711749918015490A789A71154A9B1BE9
:101490005B415A43120D0A7098E71149E2E70620B2
:1014A000105613000028C5DA0F4A1049D21A083A1C
:1014B0005002400D014399800D4952080A43DA80D9
:1014C00084E7C046240100D000ED00E0C101001017
:1014D000E40F002000E100E000E0FFFFF91F002022
:1014E00001BDFFFFAAAA00001E10002000F0FFFFB0
:1014F00000F8FFFF70B501240443EFF30581EFF31B
:10150000108C72B6214A1368002BFCD0BFF35F8F9A
:101510001F4B05001F4AED1A6D416A43120D1E4D07
:101520008900AE6852B27658A6421CD006215956A0
:1015300091421CD012215956914222D01E21595657
:10154000914220D02A2159560324914210D0134BA6
:1015500019781A708171BFF35F8F00220B4B1A60EC
:101560008CF3108870BDAB680D4C5C50EFE7002425
:101570006100091989005B18FF2199710949998057
:10158000E5E70124F4E70224F2E7C046240100D095
:10159000E40F0020AAAA000000ED00E0F91F0020DF
:1015A000C101001001BDFFFF10B5084B084C82B00F
:1015B00001000093002205232000FFF7D3FC002840
:1015C00001DB1F23181A02B010BDC046647C001056
:1015D000FD1F0020024B9C4661448900016070475A
:1015E0004000003470B5114C114DAC420FD2FF26B3
:1015F0002368002B0CD0FFF7F9FC01002000FFF757
:10160000E9FFA680BFF35F8F0834AC42F0D370BD12
:10161000FFF7ECFC01002000FFF7DCFF2671BFF3B1
:101620005F8F0834AC42E3D3F1E7C046A810002036
:10163000B010002010B50400FFF7D8FC0100200016
:10164000FFF7C8FFFF232371BFF35F8F10BDC046B4
:1016500010B504000120FFF7D5FC034BC3189B0015
:101660002360BFF35F8F10BD40000034034B9C46E6
:10167000614489000160BFF35F8F70474000003410
:101680000A4B1968EFF3108072B60A68002AFCD082
:10169000BFF35F8F1B68BFF35F8F00221A6080F378
:1016A000108840BF002000217047C046D01F002096
:1016B000F0B5DE4657464E464546E0B587B0EFF3F7
:1016C0000583032201251A40954091008846A946CA
:1016D000B34B03925C58B34B1D60B34B04934B4622
:1016E000B24843630823E55E002D37DAA3881BB2B6
:1016F000002B00DBADE0A379002B00D0EEE0082347
:10170000E05E002820DB430062691B18DB00D31871
:101710009E68DD68731C00D111E1A44801004144BA
:10172000826A0B69B71A9B1A9F4215D30123026A7A
:10173000039883401A420FD09C4800F0B5FB8D42BD
:1017400002DCCCD18642CAD940BF07B0F0BCBB4650
:10175000B246A946A046F0BD0E61EDE762696B0096
:1017600092465B19DB009A4453469E68DF6800F09E
:101770009BFB8F42BADC00D103E1002F00DAE8E0E6
:101780005246534652691B699346049A934200D1CC
:10179000D9E052460821605E528800045946104341
:1017A0009847009001910099019A0B001000134393
:1017B00000D1CEE013000A00B61A9F41002806DBD4
:1017C0007A4800F071FB009E019F36184F41534646
:1017D0009E60DF6000229A5E002A00DA86E75300EE
:1017E00099186069C900411802938B68C9689B46C3
:1017F000B94200DD7AE702D1B34200D976E7082387
:101800009C46A444059565462281A446029B2C0073
:1018100006E053009918C90041188D68C968AB46A5
:101820009B18DB00C318B94206DC00D1B3E01C00F2
:101830000023E25E002AECDA230064469C4653460D
:101840001A806346059D1D80A3881BB2002B00DA19
:1018500051E72269EFF3108172B61368002BFCD0B8
:10186000BFF35F8F0123A7885B42A3803FB2236948
:10187000BFF35F8F00221A6081F31088002F00DA17
:1018800039E72300083322009A4666697B00DB199A
:10189000DB00F318996850468C460824115FDD6818
:1018A000002910DB029306E0AB4244D00023E15E46
:1018B0002000002906DB4C006418E4003419E368BA
:1018C000AB42F1DD029B078000201F5E1980002FD4
:1018D000DCDA1400A379002B00D110E70023A371F8
:1018E00026000823E15E08364B1C00D12CE70800D7
:1018F000A246656902E03E004B1C1AD04B005B1803
:10190000DB00EF180A008C46E95E7B881BB2002BD7
:10191000F1DA01235B42DC17BB60FC60824205D038
:10192000534631801B893B8053461A8160464B1CCD
:10193000E4D15446E5E6A3686345B7D9C2E76B1C1A
:1019400000D0EAE6F8E65B4658461B69984700284F
:101950001BD153461B8822692381EFF3108372B693
:1019600011680029FCD0BFF35F8F514662880A805E
:1019700022696580BFF35F8F0021116083F31088B7
:10198000B4E6864200D8F8E6B0E65B461A685B68C3
:101990000092019307E7B34500D848E74CE7C046FB
:1019A000A81F00203C700540B11600100040054003
:1019B00070B52E4C2569002D04D00A212C48FFF764
:1019C00009FE70BD2B4E0321300000F063FAE66083
:1019D000FFF70CFB284B03229C46D02322701B06EA
:1019E0001B6801216370254B6044A3600F238000B6
:1019F00020610220638063694942A180198002311D
:101A0000198647311D83585218315A5275325C3944
:101A100099521832013199521832013199521832C3
:101A200001319952083518329D52023118329952BB
:101A3000183201319952183201319952183201315C
:101A400099521832013199521832013199520C4B86
:101A50000C49DC6001303562FFF73EFB01210320B9
:101A6000FFF702FB084B1D60A7E7C0462C100020C3
:101A7000D01F00200040054040000034FFFF100050
:101A8000A81F0020B11600103860054000487047BC
:101A90002C100020F8B51F0008AB1B7804001600BE
:101AA000002B08D100F008FA32003B00121A8B41DB
:101AB000002B00DA52E02269EFF3108072B613684F
:101AC000002BFCD0BFF35F8F0223E15E63694A0005
:101AD0005218D2009B182269002936DB1D886580C8
:101AE000BFF35F8F0025156080F31088069A9E6013
:101AF000DF601A61079A5A615A8801325204520C07
:101B0000101C002A1FD082B2588008041043266996
:101B1000EFF3108772B63268002AFCD0BFF35F8FF4
:101B2000A2881A80A1802369BFF35F8F00221A6008
:101B300087F310880A4923788C4601329A40E3687B
:101B400063441A60F8BD0120DDE7BFF35F8F002317
:101B5000136080F3108801204042F3E70020F1E792
:101B60003C20000070B501000469EFF3108C72B6E0
:101B700020680028FCD0BFF35F8F02200D5E4C6907
:101B800068004019C00024180869002D36DB26883B
:101B90004E80BFF35F8F002606608CF31088E360F1
:101BA00063880498013320615B0405985B0CA26094
:101BB00060611A1C002B1FD093B228046280184366
:101BC0000A69EFF3108C72B61368002BFCD0BFF3D8
:101BD0005F8F8B8823808D800B69BFF35F8F00221E
:101BE0001A608CF310880B7801329A40CB68084950
:101BF0008C4663441A6070BD0122DDE7BFF35F8F3E
:101C0000002303608CF3108801204042F3E7C046B4
:101C10003C20000010B543890A1493421ADD53009A
:101C20009B184269DB00D3180469EFF3108C72B67D
:101C30002268002AFCD0BFF35F8F5A88090494B24F
:101C4000090C8A4208D00369BFF35F8F00221A6033
:101C50008CF31088002010BD8022120214435C8097
:101C6000012302698371BFF35F8F002111608CF340
:101C70001088044902788C469340C268012062446F
:101C80001360E8E73C20000040787047F0B5C64696
:101C900000B582B0040000F00FF9FA2206000F0030
:101CA000200000230021920001F08CFA8019794174
:101CB00004000D1E02DA01242E4D644206267642EF
:101CC000F71736196F41AF4214D811D000F0F4F86D
:101CD00032003B00121A8B41002B15DC002B46D042
:101CE0002000290000F0F2F802B080BCB846F0BD38
:101CF000A642EBD90026002700F0DEF832003B00B8
:101D0000121A8B41002BE9DD00F0D6F832003B00BF
:101D1000121A8B41002B0ADB00230193164B320071
:101D2000009316483B00FFF71DFF0130D8D0002379
:101D30003900B0469C46124A1248536A994204D868
:101D4000966A4645CCD29942CAD10668EFF310870D
:101D500072B63368002BFCD0BFF35F8F0368BFF30C
:101D60005F8F66461E6087F3108820BFE5E7002A74
:101D7000B6D0C9E7FFFFFF7F811600102C100020AE
:101D800000400540D01F0020F0B557464E46DE46C5
:101D90004546E0B506000F0085B0EFF30583994690
:101DA0008B46002B12D0384900204B6ABB4206D329
:101DB0008A6ADB1B591E8B41B2424041184305B071
:101DC000F0BCBB46B246A946A046F0BD2F4B9A4692
:101DD000DB68984653461B784046039300F064F84E
:101DE0004246039B040004339B009B580D001B1AC2
:101DF00039003000001BA941894510DC0DD020BFFF
:101E0000214A0020536A5B45D9D3926ADB1B591ED5
:101E10008B41B24240411843D1E78342EFD900F0F1
:101E20004BF832003B00121A8B41002B1ADB0023C7
:101E30000193174B3200009350463B00FFF792FE90
:101E4000011E0FDD104B5A6A5A451BD39B6AB342E1
:101E500016D35046FFF7DEFE0B4A0020536A5B455F
:101E6000ADD3D2E7084A0020536A5B45A7D30020D0
:101E7000926ADB1BB24240415A1E934118439EE7CF
:101E80005A45E6D120BFE4E7004005402C10002071
:101E90008116001010B5024A0248FFF741F810BD44
:101EA000807C0010FC1A00200300416A0A00986A36
:101EB000596A8A42FAD17047034B596A0A00986AF4
:101EC000596A9142FAD1704700400540064A536A68
:101ED0009942FCD807D1044B02E05A6A914202D1E0
:101EE0009A6A9042F9D8704700400540F8B5DE463E
:101EF0004E4657464546E0B58B4605000A99180000
:101F0000160000F03BFB0A9B6C001F02324B641969
:101F10009C46A4006444636881469F4200D9676080
:101F20002B1FDBB29846012B30D9C02380229B01A6
:101F3000E31812011A60294BAD0059599A4600293D
:101F40001BD17301E026226853401E408023424685
:101F50005B01E3181E60012A30D9802380229B0197
:101F6000E31812011A6053464A4667605A51F0BCA2
:101F7000BB46B246A946A046F8BD586900F0FEFA35
:101F8000013043001B18033BFDD2DAE75B46012B0F
:101F9000CBD1C02303229B01E3181A60023AA36845
:101FA0001A42FCD07301E0262268AD0053401E4067
:101FB00080230A4A5B019246E3181E605A46216854
:101FC000514003220A401A6001225B469A40A368EE
:101FD0001A42FCD0C1E7C04600800040001B002030
:101FE000F0B546464F46D646C0B51F00344B4400B8
:101FF0009C462418A4006444636888461600FF2B9E
:1020000002D880235B006360031FDBB29A46012B7A
:1020100030D9C02380229B01E31812011A60294B9A
:1020200085005959994600291BD17301E026226881
:1020300053401E40802352465B01E3181E60012A74
:1020400030D9802380229B01E31812011A6080237B
:102050005B0063604B465F51E0BCBA46B146A846A0
:10206000F0BD586900F08AFA013043001B18033BA9
:10207000FDD2DAE74346012BCBD1C02303229B01DB
:10208000E3181A60023AA3681A42FCD07301E026F2
:102090002268850053401E4080230A4A5B01914616
:1020A000E3181E6042462168514003220A401A602C
:1020B000012342469340A2681342FCD0C1E7C046C8
:1020C00000800040001B0020014B8000C05870477A
:1020D000001B0020F8B5040021481E0017000D0069
:1020E00000F04CFA0100380000F048FA069B360474
:1020F0001B031E432368002B20DB1A4B1A49E318ED
:102100005A1E93418022920194465B421B0B174A50
:102110001B0363441360164A13601F000A68974349
:10212000FBD1144B2560E2182123A06013602368C3
:10213000002BFCDA0823E6601360F8BD3F23226819
:102140001340AB42D9D1A3681B051B0D8342D4D1E8
:10215000EE22E368D2021340B342CED1EDE7C0468F
:10216000001BB7000040FDBF08C0004000E0004079
:1021700000F000400430000010B580241C4BE40542
:102180001C6000281AD001231A4C18431A4BDC613A
:102190001A4C44401C62596298628021144BC90554
:1021A0001960174817490860E021C9041960002A1E
:1021B00007D18022144B12061A6010BD0E4BD86155
:1021C000EBE753019B1A9B009A18802312015B04D2
:1021D0009A4209D213000D490B60074B5A608022C6
:1021E000094BD2051A60E8E7094B1A00F3E7C0462D
:1021F00000B00540D3C007B0008005402D3FF84F28
:10220000FCFF01000820014000A00540681F0020DD
:10221000FFFFFF008023024A9B000B43D3627047FD
:1022200000800540002310B50100988A1B8B984759
:1022300010BDC046162310B50100188802331B8854
:10224000984710BDF8B54746CE4680B50F1E18D04A
:1022500014239946043304000025012698464B4672
:102260001888434621681B88984701C4431E98413B
:1022700001350640AF42F2D13000C0BCB946B0468D
:10228000F8BD0126F8E7C046002370B504000D0034
:10229000988A05491B8B984703000020002C01DB1E
:1022A0000130A0402900984755420000AA23064A61
:1022B0001B0113608D235B00D3600449044B19603C
:1022C0005368002BFCDA70470040024000B0FA006F
:1022D000006002407047C04610B50148FEF708FE96
:1022E000A47C001070B5074D074EB54209D20024FA
:1022F000013E761BB60808CD984723000134B3424F
:10230000F9D170BD90790010CC790010054B064AC8
:1023100006491A60064A074B1A6010000B6898437A
:10232000FBD1704700E00040BFCDFBFE08C000407D
:10233000FE7F3C0000F00040044BDB6C002B03D11F
:102340008022034BD2021A607047C0460000115031
:102350004C201150044A054B1A60054A1368DB01F2
:102360008033FBD17047C046FFFFFF0100F0004003
:1023700008C000404022034B9A675A671A67DA6622
:102380007047C04600F0014010B5FEF74DFE10BD8D
:10239000F8B52749274C284D641AA6103200302E74
:1023A00000D930222800920000F0EAFFBC2C3BD874
:1023B00030202F232C196407204A801BE40F9B1B1D
:1023C000052B16D93700002C02D0B300771CEA5039
:1023D000001B33199B004108EB18C900C9181A608B
:1023E0005A6008339942FAD1012303421CD0984322
:1023F000C619B300EA50731C2F2E15D09B00EA506B
:10240000B31C2E2E10D09B00EA50F31C2D2E0BD0A7
:102410009B00EA50331D2C2E06D09B00EA50731D02
:102420002B2E01D09B00EA50054B9D60F8BDC046A5
:1024300000010010C001001000000020C1010010C8
:1024400000ED00E0002310B5294C82B0A367FFF730
:102450002DFF0122274B1A60636C012BFCD1032254
:10246000254B1A60224A936B012BFCD10133009358
:102470000121224A22480433FFF72CFE05230121C3
:102480000093204A2048FFF725FE00220221042065
:102490001E4BFFF7A5FD0022012105201C4BFFF775
:1024A0009FFD0022002107201A4BFFF799FD002213
:1024B00000210820174BFFF793FD8023DB000093DA
:1024C000002200210920134BFFF710FD0022104BC2
:1024D00000210620FFF784FD0420FFF7F5FD0E49DB
:1024E00000F04CF801000020FFF794FE02B010BD90
:1024F000008000403CB0004030B00040002F6859E0
:1025000000800240008C864700C00240001BB700DC
:1025100040597307006CDC0240420F00014804215F
:10252000014B18475010002045220010124A936FAB
:102530009B0815D29066D166002905D0FFE7FFE71A
:10254000FFE7516F106F704704B580210906C2176D
:102550005140002800D0C84305F0D2F9002104BD45
:10256000F0B5146E556E576F166FFFF7E3FF1466E4
:10257000556657671667F0BD000000D0114A936F8B
:102580009B0813D210665166002905D0FFE7FFE7CC
:10259000FFE7516F106F704704B5002801D000208D
:1025A000C04305F0ADF9002104BDC046F0B5146E7E
:1025B000556E576F166FFFF7E5FF14665566576740
:1025C0001667F0BD000000D094464A4A926F920808
:1025D000624601D228E0C046F0B5464E346E756EB4
:1025E000776F366F00F020F89446424A14665566BD
:1025F000576716676246F0BD94463E4A926F92084E
:10260000624601D254E0C046F0B53A4E346E756E63
:10261000776F366F00F04CF89446364A146655666C
:10262000576716676246F0BD002B24DB11D00029E6
:102630003EDA00B5C943404200D1013100F038F81C
:10264000C943404200D10131DB43524200D1013342
:1026500000BD002AEBD1002801D1002905D00020BF
:10266000C90FC90701D1C043410800B505F040F9C1
:102670000022002300BD00B500290ADBDB435242E3
:1026800000D1013300F014F8C943404200D10131B8
:1026900000BDC943404200D10131DB43524200D169
:1026A000013300F005F8DB43524200D1013300BD95
:1026B000002923D1002B18D1002A0CD0BC460D4F85
:1026C00038667A6600210023FFE7FFE7FFE77A6FAD
:1026D000386F67467047002801D00748010000B5F1
:1026E00005F006F90022002300BD02000B000020C7
:1026F00000217047000000D0FFFFFFFF002B00D03B
:10270000BFE0130C28D1002AE7D080B4114F3966FE
:102710007A66FFE7FFE730B4040C7B6F396F1B0468
:1027200023433B667A66FFE7FFE7FFE7C04684B2D4
:102730007B6F3D6F1B0423433B667A66FFE7FFE731
:10274000C04600232C042D0C7A6F386F00196941A4
:10275000B0BC7047000000D0F0B594460025140EC0
:1027600001D112020835140F01D112010435940F62
:1027700001D192000235D40F01D152000135D40BA2
:102780000134254F7C66254C3C660E0C93B2FFE766
:10279000FFE7FFE73C6F6643360C7703BE467343A3
:1027A000DF0B5B04C01AB941130C7343DB18C91A61
:1027B000CE086643360CB64493B273431F0F1B0119
:1027C000C01AB941130C73431F0B1B05C01AB94142
:1027D000860D8F023E436643360C092D24DB520AD8
:1027E0007243801A7703460A6643360C16235B1B36
:1027F000DE40DF40BF1964466643821B70460435E5
:1028000006330100D940A840C01900D30131A242CB
:1028100006D20023F0BD0000000000D0FFFFFFFF44
:10282000121B0130F3D3F1E709277F1BFE406446FA
:10283000A2B27243801A00D20139220C7243130CE7
:102840001204821A99410B007046043513370100B7
:10285000F940A840801900D30131002B02D1A242D7
:102860000AD2F0BD013000D30131121BFAD2013B74
:10287000F8D1A24200D2F0BD013000D30131121BC9
:10288000F7E7F0B51C0C00D080E00CB400251C0A62
:1028900004D11B02160E3343120208351C0B04D15F
:1028A0001B01160F3343120104359C0B04D19B000E
:1028B000960F334392000235DC0B02D192185B4134
:1028C00001351C00971864410134464F7C66464C24
:1028D0003C660E0CFFE7FFE7FFE7C0463C6F664330
:1028E000360C7703BE4697B27743C01B00D201393E
:1028F000C01B00D201399FB27743C91BC91B170CFB
:1029000077437E04FF0B801BB941CE086643360C2B
:102910000C2D33DBB644120B1F053A431B0B97B249
:102920007743C01B00D201399FB27743C91B170CF4
:1029300077433E043F0C801BB941860D8F023E4316
:10294000664329277F1BFE400C3D7746AF40BF19E9
:1029500030BCA2B2ABB272437343801A9941220CCD
:102960007243130C1204801A994102000B000137C4
:10297000001BA941F9D2781E0021F0BD0C277F1B56
:10298000FE4077467F0BAF40FF19E0E700245D1C57
:1029900007D0144F7D663966FFE7FFE7FFE7FFE7E3
:1029A0003C6F95B29EB265436643401BB141150C26
:1029B0001E0C6543664336042F0C3E432D04401B1A
:1029C000B141994204D202000B0020000021F0BD69
:1029D00001D19042F7D3801A994101349942F2D340
:1029E000F6E70000000000D0FFFFFFFF4840414035
:1029F000484018B41B4B5B68FC46019308BD04DFDC
:102A0000972C001018B4174B1B68FC46019308BDA7
:102A100000DFA12C00109446134A926F920809D24D
:102A2000624618B40F4BDB68FC46019308BD0CDF0F
:102A3000592F00100C4AF0B5146E556E576F166F73
:102A40006246FFF7EEFF084A146655665767166739
:102A5000F0BD18B4034B9B68FC46019308BD08DF2A
:102A6000FD2D001050120020000000D0FFB5504096
:102A70004240504059404B40594000E0FFB5154F8F
:102A80004C00640D03D0BC4204D10C0314D80020C8
:102A9000090D09055C00640D03D0BC4204D11C0380
:102AA0000AD800221B0D1B0501264B4009D44B40C0
:102AB00003D58B4200D18242FFBD9942FCD19042A6
:102AC000FFBD0B43DB1803431343F5D0C94349183B
:102AD000FFBD0000FF07000000B5FFF7CFFF8041FA
:102AE00000BDC04600B5FFF7C9FF01D9002000BDF9
:102AF000012000BD00B5FFF7B9FF01D9002000BDDE
:102B0000012000BD00B5FFF7B1FF804100BD0120ED
:102B100040054A00121804D85A00121801D80020A3
:102B200070470120704700000021002805D1704740
:102B3000C1174840401AFAD0C90713B5064B1B68A5
:102B400098470CBC441CA2401005120B0349091BFA
:102B500009051943114310BDCC1F00201F040000BC
:102B600010B54C00620D8023D218DB00D21A5B0531
:102B70007E2A10DD9E3A13DACC170903490819435F
:102B80005242D140640001341532202A05DAD04087
:102B90000843604310BD002010BD0846604310BDCF
:102BA000C80FC018013810BD18B4044B5B6AFC464E
:102BB000019308BD24DF09310010000050120020ED
:102BC000132370B51D78012D19D014DD1F48FFF7B0
:102BD00031FB06001E48FFF72DFB1E4C8022310002
:102BE000200000F0CDFB022D2DD01B48FFF71AFB73
:102BF0001A4B186070BD1A4B164CA364F5E7184BBE
:102C0000144C23606360A360E36023616361A3618C
:102C1000E36123626362A362E36223636363A3638A
:102C2000E36323646364A364E36423656365A3656A
:102C3000E36523666366A366E36623676367A3674A
:102C4000E367A364D1E7064BA364CEE753440000D7
:102C500053460000501200204C330000CC1F0020CF
:102C6000652C001007B5604601880A0A0230DF2A89
:102C7000FAD1C9B2820804D3028840880004104304
:102C800000E00068014A5050039007BD5012002038
:102C90000FB403BC0CBCF0B50124E407634000E0B2
:102CA000F0B50C0DCF0F661E3605891B640503D3E6
:102CB000C943404200D30131640D03D0661CF60ABB
:102CC00007D0E41B00207F00791C89078912803C13
:102CD00024031D0DDF0F6E1E36059B1B6D0503D3F0
:102CE000DB43524200D301336D0D03D06E1CF60A54
:102CF00007D0ED1B00227F007B1C9B079B12803DB1
:102D00002D032F1B661B58D4A446202E46DA2037ED
:102D10001400BC401D00BD40F24033412A438018DE
:102D20005941CB0F05D0C943C043002264425041F2
:102D3000514162464D0D28D10D0D07D100281FD0FD
:102D4000241940414941013A0D0DF9D0640006D3E0
:102D5000013000D30131002C01D140084000013A7C
:102D60000BD4941CE40A04D112051144DB07194466
:102D7000F0BDD907204B194300E0D9070020F0BD72
:102D80000029DDD1002CDBD1F0BD0132C60740089F
:102D9000CD0728434908002EE1D0D9E73C2E29DA97
:102DA000203E40371400BC4000D00124F2401443C0
:102DB0001A00BB401C43D317ACE7AC46202F08DAFF
:102DC00020360400B4400D00B540F8403941284396
:102DD000A5E73C2F0CDA203F40360400B44000D079
:102DE0000124F84004430800B1400C43C117EAE74E
:102DF00010001900002494E70000F07FF0B50C0DDE
:102E0000661E3605891BE60A6405640D02D0651C42
:102E1000ED0A04D0002001210905803C2403A446CA
:102E20001C0D671E3F05DB1BE70A6405640D02D01D
:102E3000651CED0A04D0002201231B05803C2403FD
:102E40007740644497B484B296B27443070C7E43CF
:102E5000150C6F4380B26843361802D3012000047A
:102E60003F183004350C00197D41844688B29AB26F
:102E700050430C0C62431F0C7C438EB27E4392196C
:102E800002D301263604A4191604170C361867411C
:102E900001BC81B29AB25143040C62431B0C5C43E7
:102EA00080B25843121802D30120000424181004E1
:102EB000130C401863412D185E410020474106BCA9
:102EC00088B293B258430C0C6343120C544389B23A
:102ED00051435B1802D301210904641819041A0C28
:102EE000091862416D1856410020474118BCF9028B
:102EF000720D1143F0026A0D1043ED020A0D03D169
:102F00006D1940414941013B124E9B1B7600B34273
:102F10000ED26D0007D3013000267141664635435D
:102F200001D1400840001B05C918E4072144F0BD49
:102F30000BDA013306D1013004D101314F0D01D03C
:102F40004908F2E7E1070020F0BD01363105002015
:102F5000EBE70000FF030000F0B51C0D671E3F0506
:102F6000DB1BE70A6405640D02D0661CF60A04D078
:102F7000002201231B05803C2403D0252D060026BA
:102F8000F6432E661E096E66CE0FF619B44649004A
:102F90004F0D02D07E1CF60A03D000200021403FD6
:102FA0003F033E1BB600B444013F7F05C91B4908DF
:102FB0002E6F013676089C02950D25437543ED135F
:102FC0007543AD1301356D10F603761B0CB4CC02BE
:102FD000450D2C43A2B2B3B25A43270C7B43350CA8
:102FE0006F43A4B26C431B1902D3012424043F197C
:102FF0001C041D0CA4187D4124196D41009A91B246
:10300000ACB26143170C7C432B0C5F4392B25A4322
:10301000A41802D301221204BF182204230C521850
:103020007B41019C6C431B19520ED9010A43440198
:10303000A01A81B2B2B2514303145A43360C7343FF
:1030400087B27743D617D21900277E4136049B19E1
:103050001704160C7F185E417316ED18F301002655
:1030600080337541A90F06D16400690AE8055B0A3F
:10307000184309D22FE00422944480337541A90AF1
:10308000A8059B0A184326D3404149412404009ACD
:10309000019B0D005543641B4343E41A95B286B26D
:1030A0007543170C7E43030C5F4392B25A43B61824
:1030B00002D301221204BF183204330C52197B418F
:1030C00052429C41002C02D4002201305141400860
:1030D000CA071043490802B06246D7079210084B4E
:1030E000D218084B9A4203D212058918C919F0BDAB
:1030F0000020002A01DC3900F0BD01331905F5E795
:10310000FD030000FE070000002200B5203200F0A1
:1031100004F8080000BD000000220B150AD410B509
:10312000944600F031F81414013400DA0021CB1772
:10313000144C20470020002170476244343A0CD4DC
:103140000C2A07DA04009140904052422032D440C9
:10315000214310BDD843D94310BD203207D40C46BB
:103160009440524220321141D040204310BD08000B
:10317000C917203203D452422032104110BD18002A
:10318000190010BD3B3100100A0DCC0F531E1B055A
:10319000C91A520503D3C943404200D30131520D2D
:1031A00003D0531CDB0A07D0121B00206400611CF3
:1031B00089078912803A1203014BD21A7047000026
:1031C000FF03000051434343C9188C46110C83B2DE
:1031D0004B4310B4040C614392B280B2504362433B
:1031E0001C041B0C001910BC59411304120CC0180C
:1031F00051416144704700004840414048400E4BF7
:103200005B6818470C4B1B6818470C4A936F9B0868
:1032100002D2094BDB681847F0B5146E556E576F34
:10322000166FFFF7F6FF054A14665566576716676F
:10323000F0BD014B9B68184750130020000000D0E0
:10324000491A002808D1084670470000C10FC90775
:1032500000D54042002817D0F44603B40B4B1B683E
:10326000984706BC81409E384042803107D20B0609
:1032700007D04900490AC0051043084360470130A0
:10328000F8E7490A8902F5E770470000CC1F0020E3
:10329000034BDB6FFC4618477CDF35330010000022
:1032A00050130020132310B512481C78FEF7C2FFFC
:1032B0000100012C0AD003DD80220F4800F060F8E5
:1032C0000E48FEF7AFFF0E4B186010BD0A4C54229B
:1032D000200000F055F80B4B6365A365E36523669A
:1032E0006366A366E36623676367A367E367236296
:1032F000E361E5E753460000501300204C33000023
:10330000CC1F00200933001007B5604601880A0A67
:103310000230DF2AFAD1C9B2820804D30288408879
:103320000004104300E00068014A5050039007BDBC
:1033300050130020C30FDB0741000A0E07D0FF2AFD
:1033400008D00909054A8918194340077047190030
:10335000002070470249C918FAE700000000003851
:103360000000F07F01480421014B18476010002045
:1033700045220010014B1B68184700006010002018
:10338000014B5B6818470000601000207047C04682
:10339000F8B55746DE464E464546E0B599460A9B87
:1033A00007009A460D9B884693460B9C9B073BD192
:1033B0000C9B9C423DD21E1B0B9415000C005E44DE
:1033C0002A004B46013521002020B847B542F7D1ED
:1033D000A0460B9C002C20D0454636195346321B84
:1033E000013C185D29004B46B847002CF6D12B0054
:1033F000350098460D9B9B070FD55B46EC1A0C9B3E
:10340000A3420AD9464698462A004B46310020205E
:103410000134B84701354445F6D32800F0BCBB461B
:10342000B246A946A046F8BD16001500002CD3D11F
:10343000E0E716001500002CCED1EEE7F0B54546CA
:10344000DE4657464E46E0B585B09C4610AB1B782D
:10345000149F934698460F9C129E139DBB074CD415
:10346000002D42D1B44248D201233B4099460E9BE5
:10347000013B9A46302304E0524601341355A642DC
:1034800001D9202CF8D14B46002B00D183E00E9BB4
:10349000013B99463023A54205D82EE04A46013427
:1034A0001355AC4229D0202CF8D1FB060CD57B0556
:1034B00054D4A64263D0A54261D0119B102B50D0AA
:1034C000022B57D0202C32D1202301930E9B5A4639
:1034D0000093039763460295FFF75AFF05B0F0BCCF
:1034E000BB46B246A946A046F0BD01233B409946E3
:1034F00001233B422AD1B442B9D3FB061CD57B053C
:10350000DBD4002CD5D1119B102B5BD0119B022B4F
:103510006BD0302301240E9A13704346002B10D138
:103520007B073ED52B260E9A631C1655CDE723004C
:10353000013430260E9AD654202CC5D04346002B99
:10354000EED02D260E9A631C1655BEE74346002B7F
:103550002FD0013DB44200D289E798E7119B102B90
:10356000B2D1BB0637D5202CAED058230E9A1355B6
:103570000134A7E7202CA7D02300013407E0631E05
:10358000012CC0D0119A102A31D0022AD1D1622642
:103590000E9AD65496E7FB06CED57B0500D488E775
:1035A0008BE723003E0790D520260E9A013316554F
:1035B0008BE70C233B405A1E9341ED1AB44200D2D4
:1035C00055E764E7BB060ED478230E9A02241370E5
:1035D00030235370A1E7202C00D175E778230E9A91
:1035E000135501346EE75823EFE76033EDE70E9A89
:1035F000A61E91464E44BA0602D55822327098E76C
:103600007822327095E7C04610B5002800D110BD71
:1036100001F07EFCFBE7C0460B0010B5002802D08D
:1036200049681B68984710BDF0B55746DE464E46C0
:103630004546E0B595B083460F00924698461E9ADF
:103640001F9B10001900209EFFF761FA002800D090
:10365000EAE11E981F990122C54B5242FFF73CFA3E
:10366000002800D014E11E981F990122C14B52423C
:10367000FFF748FA002800D0E9E01E981F990022C1
:10368000BD4BFFF73FFA002800D0C8E01E981F99F5
:103690000022BA4BFFF720FA002800D0BFE01E98A6
:1036A0001F9900220023FFF717FA002800D0E4E05A
:1036B00000230B93229B5B0500D4062600243023B5
:1036C00007E0172106AA013452181355013E202C99
:1036D00001D0092EF5D81E981F99FFF741FAA84B83
:1036E000F2009B181A685B68050008920993FFF7BF
:1036F0001FFA02000B001E981F99FFF77AF9089A2B
:10370000099BFFF7A6F906900791FFF74DFA81464E
:10371000FFF70AFA02000B0006980799FFF769F90C
:103720000022984B06900791FFF7ECF9002800D192
:103730000DE101239C46E1444846FFF7F5F90200FC
:103740000B0008980999FFF7CDF9002802D0002353
:1037500099460135002E00D1D9E006954D46B9466F
:1037600014E006AA944617230A2163442800013472
:103770001F19FEF703FF3031397028000A21013E7E
:10378000FEF7FCFE092D00D817E10500202CE8D13A
:103790004F46069D20240CAE06AA17239446634488
:1037A00099465B46B34606930FE04B4628000A2134
:1037B0000134E618FEF7BAFE3031280031700A21D4
:1037C000FEF7B4FE051E00D1E4E0202CEDD1069BEF
:1037D0005E469B460323229A1340012B18D1219B5E
:1037E000002B15D00B9B002B00D1FDE0219B013B52
:1037F0002193202B0CD93023219A07E0172006A90A
:10380000013409180B55944200D3CCE0202CF5D19B
:10381000229B01940393219B0096029322E0229B1A
:1038200052460493219B3900039358461E9B1F9CCC
:10383000029600930194434600F04AF904002000E8
:1038400015B0F0BCBB46B246A946A046F0BD229BCF
:103850005B070FD403224C4B2299019203912199CB
:10386000009302914346524639005846FFF790FDB7
:103870000400E4E70422454BEEE71E9A1F9B00205C
:103880000021FFF7B6F801231E901F910B9311E75B
:10389000229B54469B0711D1219B042B0ED9219BBF
:1038A00055469C465E46043C64442A004346013526
:1038B00039002020B047A542F7D1B346344D260049
:1038C0002B1F99465B46A3461C003200E87843460E
:1038D0003900013DA04701364D45F6D123005C4635
:1038E0009B46229B04349B07A9D55346219AE31A91
:1038F0009A42A4D95E461500220043463900202092
:10390000B04753460134E31A9D42F5D897E72800A3
:10391000FFF70EF902000B001E981F99FFF769F8D8
:103920000022184B06900791FFF7D6F80CAE00283E
:1039300000D031E7069807990022124BFFF7E2F812
:10394000002800D028E7012301359D4324E7002209
:10395000069807990B4BFFF7BFF8002800D0F9E64F
:103960004B46002B5CD101239C46E144F2E6C04665
:10397000FFFFEFFFFFFFEF7F65CDCD4165CDCDC1EF
:10398000A87F00100000E03FF87C0010F07C0010E1
:10399000007D0010069B5E469B460323229A13403F
:1039A000012B00D181E0202C00D131E70B9B002BB3
:1039B00027D02D23335501342AE74F46069D202C6E
:1039C00000D1E7E63022331907E0172006A90134B9
:1039D00009180A55202C00D1DCE6A342F5D12E228D
:1039E0000CAE0134F254D7E60C23229A134257D07E
:1039F000219B013B2193A34200D9FCE6202C00D15E
:103A000006E7229B5B0703D52B2333550134FFE6E2
:103A1000229B1B0700D4FBE6202333550134F7E635
:103A2000DB0700D496E69EE7229B55469B0711D103
:103A3000219B032B0ED9219B54469C465E46033D99
:103A4000654422004346013439002020B047AC428F
:103A5000F7D1B346B9465F461C4EEC1C2A00B0783D
:103A6000434649460135B847013EAC42F6D1229B58
:103A7000BB464F469B0700D4E1E65346219AE31A22
:103A80009A4200D8DBE65E46150022004346390024
:103A90002020B04753460134E31AAB42F5D3CEE6BB
:103AA000219BA34200D9A6E6B2E6219B002B00D1C0
:103AB00079E70B9B002B97D0219B013B21939C42E4
:103AC00000D298E6202C00D073E7A1E6FC7C001021
:103AD000F0B5DE4657464E464546E0B599B08146BC
:103AE0008B4692469846229A239B10001900FFF7B6
:103AF0000EF8002800D0CAE0229823990122824BB8
:103B00005242FEF7FFFF002800D0C0E02298239920
:103B100001227E4B5242FEF7DFFF002800D0B6E0C4
:103B20002298239900220023FEF7D6FF002800D018
:103B3000C9E1229B239C0893099408980999802342
:103B4000269ADB001A400D928022269C1201144016
:103B500022000B94269C07000E001C4200D0ADE012
:103B60000B00034300D0D5E0002A00D00AE2220077
:103B700006332493022313400C930223134200D0F4
:103B800002E2259B042B00D20FE2043B0B9300239F
:103B900004250A930022229823990023FEF79CFF14
:103BA000002800D003E25A4B269A134004930B9B43
:103BB0000393249B0293089B099C0093019459460C
:103BC000434652464846FFF72FFD02002020269B21
:103BD0001F27034059424B415B421840531C089336
:103BE000594643464530C8470A9AD317D4185C4013
:103BF000D30F0A936B1E0B9308AB9C4600256744BA
:103C000001E0202D0FD020000A21FEF7B7FC01357E
:103C10007E193031317020000A21FEF7AFFC2600FA
:103C20000400092EEDD8052306930B9B59460593F6
:103C3000002304930A3303930A9B4846029310AB74
:103C40000093089A43460195FFF7F8FB0C9B002B65
:103C50002DD05346C41A259BA34228D94D465F4612
:103C600081461E00534639001A192020434601346C
:103C7000A847A642F6D8534648462599C21A0132AB
:103C80000023914200D386E1013018180FE0269BF3
:103C90000493259B0393249B0293229B239C0093D4
:103CA00001944346524659464846FFF7BDFC19B0B9
:103CB000F0BCBB46B246A946A046F0BD01432BD19D
:103CC0000B9B2200002B00D154E700230A93249B76
:103CD0000A9A0024934200DD85E12298239900226C
:103CE0000023FEF7F9FE002800D035E1269B084AA4
:103CF00002941A408023DB0013430493259B039313
:103D0000089B099CCBE7C046FFFFEF7FFFFFEFFF5B
:103D1000FFF7FFFF06232493B44B70009C46400D31
:103D20006044FEF705FFB24AB24BFEF792FEB24A7C
:103D3000B24BFEF767FE3603B14B360B334304003C
:103D40000D00380019000022AE4BFEF752FEAE4ABD
:103D5000AE4BFEF77EFE02000B0020002900FEF7AE
:103D600051FEFEF7FDFE0A90FEF7E2FEA84AA94BBF
:103D700004000D00FEF76DFE0022A74BFEF742FE89
:103D8000FEF7EEFEA54A0600A54B20002900FEF72F
:103D900060FE040030000D000C96FEF7C9FEA14A3B
:103DA000A14BFEF756FE02000B0020002900FEF793
:103DB00020FE02000B0006000F00FEF74AFE320054
:103DC00004000D003B0030003900FEF71BFE00220E
:103DD0000E900F91954B20002900FEF71CFE00224B
:103DE000934BFEF70FFE02000B0020002900FEF7A8
:103DF00012FE00228F4BFEF705FE02000B00200092
:103E00002900FEF708FE0D008021040032003B006F
:103E10000020C905FEF7EDFD02000B00200029007F
:103E2000FEF7F0FD02000B000E980F99FEF7F3FD70
:103E30000022734BFEF7E6FD7F4B0C9C9C466444CE
:103E400000222305FEF705FE06000F0002000B000E
:103E500008980999FEF740FE00280AD00A9B300016
:103E6000013B39000A930022714BFEF7D4FD060096
:103E70000F000A9A330063323900C62A12D8022290
:103E80002698042510400B9A0C90002A25D1259BDA
:103E9000042B05D9002800D0A1E0259B043B0B93FF
:103EA000042541E00222269810400B9A0C90002A2B
:103EB00012D1259B052B76D9002872D1259B05258B
:103EC000053B0B9334E0802212069446229B089314
:103ED000239B6344099330E605250B4300D1F6E6A6
:103EE00008980999554A564BFEF704FE002808D059
:103EF000089809990022534BFEF7EEFD002800D0E8
:103F0000E5E6249B002B1CD00D9B002B19D0249B95
:103F1000013B2493259BAB4204D90C9B002B5AD028
:103F200002230C9300230B930A9B002B00D131E654
:103F30000898099932003B00FEF76DFD0890099141
:103F400028E6259BAB42EDD90C9B002B43D00023E8
:103F50000B9302330C93E7E78020269B3A4A000636
:103F60001A40802384460294089C099D2900DB00A6
:103F700013430493259B6144220003930B0000929A
:103F800001938EE60524A8E600230B930A930233DF
:103F900004250C93FEE553468C46013B63441B1AF3
:103FA00072E602230C930525C2E70423EDE5802089
:103FB000089E099F000639008446269A224B6144D8
:103FC000134004930B9B32000393249B02930B003A
:103FD00000920193F3E5259B5B1B0B93A4E702235F
:103FE00004250C93A0E79C1A013C76E601FCFFFF38
:103FF000FB799F501344D33FB3C8608B288AC63FD8
:104000000000F03F0000F83F61436F63A787D23F95
:1040100071A379094F930A400000E03F1655B5BBE4
:10402000B16B0240EF39FAFE422EE63F00002C4011
:104030000000244000001840FF0300002D431CEB4B
:10404000E2361A3F80842E41FFF7FFFFF0B5DE46CF
:1040500057464E464546E0B5A5B01E002E9B9246FB
:104060000C93CD4ACD4B80468B461A60002900D177
:10407000EAE1002330789946002800D1ECE1C84BF2
:104080004C460B93C74B454657460E930AE0631CBC
:10409000984622003B005946A847444630780028FD
:1040A00000D187E001362528F1D108239A46043B48
:1040B0009946023B9846013B00229C460D9430787D
:1040C000711C0300203BDBB2102B03D80B9C9B0020
:1040D000E3589F460300303B89460D9C092B3AD993
:1040E000002398462A2800D1C1E000239A462E28B2
:1040F0004BD00300683BDBB2122B1ED80E999B00FD
:10410000CB589F4663460E001A43D8E743460E003D
:104110001A43D4E74B460E001A43D0E710230E0093
:104120001A43CCE753460E001A43C8E780235B00CE
:104130001A43FF3B9C467078E1444E4667284FD8AF
:104140002428A4D90300253BDBB2422B9FD89649F3
:104150009B00CB589F46002394461E0000E001318F
:10416000B3009B195B001E180878303E0300303BFB
:10417000092BF4D90123624689469C460023B046A8
:104180009A460E00E1442E28B3D1302180204942C6
:104190008C46C000024370784B468444614609292E
:1041A00000D86CE12A2800D17AE101239C464E46D2
:1041B000E1449EE7A146A846BA46CA4503D8012372
:1041C0005B425344994653464A4659460020C047ED
:1041D000200025B0F0BCBB46B246A946A046F0BDC3
:1041E0000300693BDBB20D930F2B00D94FE7012190
:1041F00099408C466D49894661464B4619400F915E
:10420000634649460B4200D028E10D9B0A2B3AD069
:10421000072B00D03BE70C9B190008C98846002BF0
:1042200000D14BE121200243914614A98C461F2264
:104230000F2162448C4651460D950C91A246150003
:104240000F9902E020290CD0130064461C40200086
:104250003730092C00D80738013168541A090F2B60
:10426000F0D80C9B54460D9D9A460F9133E10C9B60
:1042700002CB8846002947DB0C9301239C467078CB
:104280004E46E14431E70C9B02CB14935346002B7E
:1042900000D138E19C4608780B000C908C44002833
:1042A00001D100F098FC89466146944603E05A78B3
:1042B0000133002A01D08B42F9D1494662465B1A8C
:1042C0000C900F93530500D520E1022318001040F5
:1042D0000D90134200D1CBE30D930B1BB1469A46D0
:1042E0005E460C9822003B003100A847534601343B
:1042F000185D0028F6D1B3464E460D9B002B00D02A
:10430000C7E1149B0C93C9E60C9301239C46283803
:1043100049420243884670784E46E144E5E67078AB
:104320006C2800D17FE180235B001A43FF3B9C4651
:10433000E14402E780239B001A4301239C467078E6
:10434000E144FAE67078682800D173E180231A43CB
:104350007F3B9C46E144F0E6672800D103E1472813
:1043600000D15AE1452800D15AE104920721424682
:104370000C9B0392073352468B43190002920CC9DF
:104380002800009201930C9122003B005946FFF750
:104390009FFB040082E6C0464D400010601F0020D5
:1043A0000C7E0010507E00109C7E0010419000009A
:1043B000462800D1DBE00492072142460C9B039281
:1043C000073352468B43190002920CC92800009211
:1043D00001930C9122003B005946FFF725F9040098
:1043E0005CE6631C984622003B0059462520A847FE
:1043F000444653E60C9B04330D93631C9946920785
:1044000000D422E10C9B2200187859463B00A847B3
:1044100043464444012B00D885E23300B8462E00C1
:104420005F4625004C469946220043460134390038
:104430002020B047AC42F7D12C00BB4635004746A0
:104440004E460D9B0C9329E6DB4B307898460023B3
:104450009946002800D012E60024AEE66F2800D16D
:1044600088E000D80BE31023782800D1CFE09A43EE
:104470000A239C4600230F930A330D9380E056468F
:10448000B1008919490001330E181878303E010037
:1044900030390929F4D9B2461E000133994628E67D
:1044A0000C9B023602CB8A46C9435046C9170840C6
:1044B00082460C933078731C99461AE6102310003C
:1044C000984311331843814680201300C0000340F5
:1044D000024200D1A9E64B460693082305935346B2
:1044E000049310230393002302930F9B2200019354
:1044F0001CAB009359463B002800FEF79FFF434644
:1045000004000C93CAE501235B42C3E60F9B5345AD
:1045100001D953460F930223180010400D90134207
:1045200000D1B7E10D93D1460B1B9A463300A1444D
:104530002E0022004D460C98B9465F469B4608E087
:104540004B463900541CB0475346185D002877D0BD
:1045500022009542F4D15B46BB464F46A946350042
:104560004C461E00C9E680231B011A43FDE62023AA
:104570001A4320E708239C4600230F9308330D932A
:1045800080231100DB0019401A4200D116E10D23EF
:104590009A431000802302009B001A401492184294
:1045A00000D0C2E1802302005B001A4091460C9AC1
:1045B00004320F92184200D0B7E2430600D59FE1C3
:1045C000030600D419E30C9B1B880993002B00D031
:1045D000FCE110339843002900D1F7E1002399460C
:1045E00043460593534604930D9B06900393002383
:1045F000D2E0582808D0622867D102239C460023C5
:104600000F9302330D93BBE720231A43103B9C46C4
:1046100000230F9310330D93B2E780231B011A433D
:1046200020231A43A1E6C0239B001A43F31C99469A
:10463000B07882E5C0231A43F31C9946B0787CE534
:1046400035005E46BB464F4657E64346012B00D831
:1046500063E1631E43449A463300B9462E005F4629
:1046600055469B46A24622004B4601343900202085
:10467000B047AC42F7D135005E46BB464F46A14637
:1046800054460C9B4A46187859463B004444A84778
:10469000D7E6A1460F9B984500D832E64444E41A79
:1046A0003300B8462E005F4625004C46994622004E
:1046B0004346013439002020B047AC42F7D12C00EA
:1046C000BB46350047464E461BE680231000DB0004
:1046D00018401A4200D10FE1112118008A430D92AF
:1046E0000D9A802311009B0019408C461A4269D113
:1046F000802311005B00194089460C9904310F9109
:104700001A4200D0CAE113005B0600D5F0E01300A6
:104710001B0600D459E20C9B00229B5ED9175A1845
:104720004A4092B2D90F0C91002B00D1F9E1100050
:1047300014AA944642461F23149252466344A84644
:1047400016944D460400B946B2461F00159201E08A
:10475000202D0FD020000A21FDF710FF01357E1912
:104760003031317020000A21FDF708FF26000400D7
:10477000092EEDD8149B4F46A94645469846159BF1
:1047800056469A46169C0D9B069343460593534600
:1047900004930A2303930C9B02934B4601931CAB97
:1047A0002200009359463B002800FEF747FE0F9B6E
:1047B00004000C9372E4C0468D3300100C239A431E
:1047C0001000E7E607220C9B07339343013294461F
:1047D0009C4462460C920CCBD90F0F9111001943E7
:1047E00000D191E0D9171391129151401091139972
:1047F0005940119110981199129A139B801A99415E
:104800001090119114AA002394464246994614929E
:1048100052461F336344A846B24616944E46109C37
:10482000119DB94615921F0001E0202E10D02000E6
:1048300029000A220023FDF7DFFE013630322B006B
:10484000BA550D0022000400002BEED1092AECD845
:10485000149B1094119545469846159B4F46B146BA
:1048600056469A46169C0D9B06934346059353461F
:1048700004930A2303930F9B02934B4601931CABB3
:104880002200009359463B002800FEF7D7FD0400A4
:10489000FFF704FC0F9B984500D8C1E18023DB00A3
:1048A0000D9343460F9A1B199B1A994633002E000D
:1048B0004D46B9465F469B460C9122004B4601345B
:1048C00039002020B047AC42F7D143460C99013360
:1048D0000F930B7835000C935E46BB464F46002B7A
:1048E00000D10EE50D9B002B00D1F6E4002319E664
:1048F0000C9B1B781A0015E710239A430D92EFE6E4
:104900000C9B1B78099361E6002399460028AAD1E5
:10491000002200231092119374E70C9B2200187858
:1049200059463B00A8474C468BE50C9AFA3BFF3BA7
:1049300007329A430133994691444B460C931368CE
:10494000526815921A4306D1103290430022099200
:10495000002900D081E06122810600D54122D2B237
:104960000A9214AA91460A9A00210A3A14924246DF
:104970001792524618925A460991B3461F311E00AB
:104980000F9B4944BA4619941A95002467469846E5
:104990008946159D16901B920AE03032D2B24B46E2
:1049A00001341A55A8454AD0202C4AD006000D00E3
:1049B0003A00002330002900FDF71EFED2B2092A7A
:1049C000EBD9149B9C466244D2B2E8E7612382068D
:1049D00000D54123DBB20A3B0C93434614A91F22A6
:1049E0008C46159353466244A046B2464C461797F0
:1049F000A9461700099D0D9E1490169308E03033C8
:104A0000DBB201343B55B5420ED3202C0CD005004F
:104A100031002800FDF7B2FDCBB20929EFD90C9A7D
:104A200094466344DBB2ECE7159B4D46A1464446F1
:104A30009846169B564614989A46179FD0E5B7425B
:104A4000B2D9179B57469846189B5E469A461B9BC1
:104A500009949B461698199C1A9D43460593534604
:104A600004930D9B0690039300230293099B05E793
:104A70000F9B984500D914E701330F932DE41023C1
:104A8000110099430D91692800D0BAE080231000ED
:104A9000DB0018401A4200D122E61DE60C9B1B6881
:104AA000DA0F1100002B00D18CE0DA179818504073
:104AB00014AA914642461F23149252464B44A046E4
:104AC000A946169704006546B2461F000C91159240
:104AD00001E0202D0FD020000A21FDF74FFD013508
:104AE0007E193031317020000A21FDF747FD260084
:104AF0000400092EEDD8149B444698460C9BAC4606
:104B00001900159B56464D469A46169F0D9B0291DD
:104B1000069343460593534604930A23039363463F
:104B20003CE6002800D02EE602E60C9B1B68994666
:104B3000002B03D110339843002938D1612382061A
:104B400000D54123DBB20A3B0C93434616935346F0
:104B500014A91F228C4617932B006244A0464D4691
:104B6000B246189799461700149C0D9E159008E0C0
:104B70003033DBB201343B55B5420ED3202C0CD080
:104B8000050031002800FDF7F9FCCBB20929EFD967
:104B90000C9A94466344DBB2ECE7169B14944446AB
:104BA0009846179B56464D469A461598189F434679
:104BB0000593534604930D9B0690039300230293A1
:104BC000149BEBE50028A1D172E70C9B1B68D91759
:104BD0005A184A40A6E580231000DB0018409C4686
:104BE0000F901A420FD00220030013400F9310427F
:104BF00019D00023A1460F934CE50C9B1B68099329
:104C0000E4E40A0034E40223180010400D9013423B
:104C100000D03EE54346002B00D042E6FFF771FB93
:104C200001330F937FE463460D93F3E710B50C0057
:104C300084B00394012402A9029000930348130056
:104C40006242FFF703FA04B010BDC04619360010E7
:104C500010B5094A0300146884B0002C08D0012262
:104C600000910648524203A9A047012004B010BD9C
:104C700000F098F90020F9E7601F002009360010C5
:104C800000BEFDE710B5FFF7FBFFC04670B5FDF7AE
:104C900029FB074D074EB54209D20024013E761B81
:104CA000B60808CD984723000134B342F9D170BD4E
:104CB000CC790010D4790010030010B50800110061
:104CC0001B68984710BDC046F0B5C64600B5437D89
:104CD00007000C001600002B46D0002A17DD0B78C9
:104CE0000A2B24D000239846012E13D00125290039
:104CF000635C01350A2B26D0B542F8D1464509DC64
:104D0000A419013C23780D3B5A4253413B7580BCAA
:104D1000B846F0BD4346E018A419F11A013C3B68BF
:104D2000984723780D3B5A4253413B75EFE7037D8B
:104D3000002BD7D102210F483B689847012EDFD0C6
:104D400001239846D2E7631E5B5C0D2BD4D08845C7
:104D500004DA4346C91AE0183B689847022105481F
:104D60003B68A8469847C7E70368110020009847AA
:104D7000CDE7C046F87F0010F0B5C6460B680600C8
:104D80000C0000B5802B06D05A1C2260E418267156
:104D900080BCB846F0BD0F4B1D68002D16D00B1D12
:104DA00098460D4F02E02D69002D0FD02B68002B87
:104DB000F9D03B68002B01D0AB42F4D1280041462A
:104DC0002268FFF781FF2D69002DEFD1012200231A
:104DD000DBE7C046501B0020581B0020F0B54546BD
:104DE000DE464E465746E0B583B091461C008046ED
:104DF0000D00FDF761F80023304A12184B41002BDB
:104E000002DA01222E4B52422E4908008A4602F055
:104E10008FFD07006B1C03D1404602F027FD050003
:104E2000002C27D0284E294B1C68002C18D04B464C
:104E3000002B21D1264B994602E02469002C0FD08B
:104E40002368002BF9D04B461B68002B01D09C42F5
:104E5000F3D120002A004146B0472469002CEFD14D
:104E6000002F26D1280003B0F0BCBB46B246A946AD
:104E7000A046F0BD174ED6E7154B99460A239B4630
:104E800002E02469002CEBD02368002BF9D04B46BC
:104E90001B68002B01D0A342F3D12A004146200019
:104EA000B0476B465A462000DA71D91D0122B0473F
:104EB000E7E7504602F014FDD4E7C04640420F0039
:104EC000FFFFFF7FA8100020C94C0010501B0020DE
:104ED000581B0020B94C00100A4A1368002B05D15A
:104EE0000CE01A001B691032002B07D08342F8D166
:104EF000002902D118691060196170470029FCD09F
:104F00001060FAE7501B002010B500F0F1FA10BD58
:104F1000F0B5CE46474680B583B06B460600DD1D32
:104F20002870FCF7C9FF0023194A12184B41002BC7
:104F300002DA0122174B524217490800884602F054
:104F4000F7FC164B81461C68002C14D0144F02E06D
:104F50002469002C0FD02368002BF9D03B68002B6C
:104F600001D09C42F4D1200001222900FFF7ACFEC1
:104F70002469002CEFD14B46002B05D1300003B043
:104F8000C0BCB946B046F0BD404602F0A9FCF5E70A
:104F900040420F00FFFFFF7FA8100020501B0020A1
:104FA000581B002070B5040002F060FC01230100D2
:104FB000050001222000FFF711FF084B1C68002CA0
:104FC00006D06368002B05D098472469002CF8D1DF
:104FD000280070BD2469002CF3D1F9E7501B002094
:104FE000F0B5CE46474680B5A3B004000D00FCF7EF
:104FF00063FF0023274A12184B41002B02DA0122DB
:10500000254B5242254E300002F092FC0023220034
:10501000019307002B00224801A9FFF707FE214B4F
:10502000804699461C68019B002B1AD0002C2FD07B
:105030001D4D02E02469002C0FD02368002BF9D00D
:105040002B68002B01D0A342F4D12000019A02A9C1
:10505000FFF73AFE2469002CEFD14B461C68002371
:105060000193002C06D06368002B0BD0984724696D
:10507000002CF8D1002F07D1404623B0C0BCB94660
:10508000B046F0BD2469ECE7300002F029FCF3E7FC
:105090000194EFE740420F00FFFFFF7FA8100020C0
:1050A000794D0010501B0020581B00200FB400B594
:1050B00083B004A901C90191FFF792FF03B008BCB6
:1050C00004B018477047C0460022014B1A70704761
:1050D000FA1F00204B790020FF2B0BD18B79002B7E
:1050E00008D1CB79012B05D1082A03D9024B8A7844
:1050F00009301A707047C046FA1F0020012070471F
:1051000010B5012913D112495379107909781B027E
:1051100003430020994200D010BD5378012B08D0E2
:10512000022BF9D1642200210020FDF725F801208F
:10513000F2E7D37891781B021943480ADB0501D4C2
:10514000012040427F238A05D20F1940FDF79CF8C9
:10515000FA1F002000487047C480001070B5050099
:1051600014000120012909D153780020012B05D119
:10517000637912791B021343072B00D070BD210005
:105180002800024A9F3301F055FAF7E71C8000100F
:105190000123037000487047FC7F00104B780A78A9
:1051A0001B0213438A7810B512041A43CB781B06EE
:1051B00013439622D200934200D010BD002201205A
:1051C00011004042FDF760F8024B1860024B196075
:1051D0007047C046F01A0020F41A002010B5024BA8
:1051E0001878FBF75FFF10BDFB1F0020154B70B553
:1051F0001A68002A22D0EFF3108172B610680028D6
:10520000FCD0BFF35F8F00200F4A596010701B68FD
:10521000BFF35F8F186081F31088002400250B4EC8
:105220003078FBF733FF002804D100240025290043
:10523000200070BD3078FBF735FFF8E7FA24002531
:10524000A400ECE79C1F0020FC1F0020FB1F002097
:1052500070B5040000200E0001F00AFB002834D0D5
:10526000002001F01BFB00282FD0FCF725FE0023B7
:10527000174A12184B41002B16DB164D280002F07E
:1052800057FB002821D0002001F0F2FA00280FD1AE
:1052900001200021404200F001FD03246442280067
:1052A00002F01EFB200070BD01220B4B5242E4E7CE
:1052B000002001F0F3FA0028EAD02100320000209B
:1052C00001F0F6FA041EEAD1E7E703246442E9E7B5
:1052D00040420F00D41F0020FFFFFF7F10B5FCF7F6
:1052E000EBFD00230D4A12184B41002B02DA01227C
:1052F0000B4B52420B4C200002F01AFB00280CD042
:1053000001200021404200F0C9FC002001F014FB04
:105310000028F5D1200002F0E3FA10BD40420F0052
:10532000FFFFFF7FD41F0020F8B5DE46574680B54B
:1053300005000C00FCF7C0FD0023364A12184B4153
:10534000002B02DA0122344B5242344908008A46CB
:1053500002F0EEFA002803D1C0BCBB46B246F8BD4D
:10536000002001F085FA00284AD00026002C43DDF9
:105370002B4B9B4614E0A919002001F017FB0700F6
:1053800001200021404200F089FC002001F0D4FA05
:10539000FCF792FD224BF61918605960B4422BDDE0
:1053A000002001F023FBA71B0200B84200DD3A00F9
:1053B000002AE0D101200021404200F06FFC0020D3
:1053C00001F0BAFA002001F053FA002814D00020AE
:1053D00001F00CFB0028E1D1FCF76EFD5B460F00ED
:1053E0001A685B68002184460E4812184B419F42A0
:1053F00002D8D3D19445D1D9504602F071FAABE727
:1054000000200021064B18605960504602F068FAEF
:10541000A2E7C04640420F00FFFFFF7FD41F0020DD
:105420003012002020A1070030B52A4C85B00021A1
:10543000200002F06DFA00281CD1274B1A68002AC0
:1054400016D0EFF3108172B610680028FCD0BFF3BD
:105450005F8F01242148596002781B68D2B2047022
:10546000BFF35F8F0020186081F31088002A17D0E7
:1054700005B030BD01200021404200F00FFC0020AB
:1054800001F00CFA0500200002F02AFA002DEFD0FE
:10549000134B1B68002BEBD0124A10689847E7E7C4
:1054A000FCF7F4FA0400FCF707FDFA22002392004F
:1054B00012184B41002B02DA01220B4B5242012100
:1054C000029100210191094920000091FCF7E2FAC4
:1054D000CEE7C046D41F00209C1F0020FC1F0020E8
:1054E000F01A0020F41A0020FFFFFF7FED5100109A
:1054F000D02310B51B0684B01C68FCF7C7FAFCF774
:10550000C3FBA04202D0002004B010BD294B0021F3
:1055100000201B7801F05EFD27480368002B45D072
:105520000120FCF741F8FF23244C25492070184046
:10553000FBF7D2FD20780121FBF796FD0520FBF754
:10554000B9FD002824D1082200211E48FDF712FFD2
:10555000FCF79CFA0400FCF7AFFCFA22002392004F
:1055600012184B41002B02DA0122174B5242012143
:10557000029100210191154920000091FCF78AFA5F
:105580000028C0DB12480121FFF7A6FC0120BBE781
:105590000120FBF737FD0B4B01001800FCF766F804
:1055A000002205200B49FBF7C1FDEBE7FCF742F8B1
:1055B000B6E7C04678820010D41F0020FB1F0020F1
:1055C000295400109C1F0020FFFFFF7FED510010A9
:1055D00070100020DD5100100048704760810010FD
:1055E000004870470C81001010B50400174803787C
:1055F000002B20D0002C06D1154B16484380063BCB
:10560000FF3B038010BD052C1DD8134BA400E058B0
:1056100012490123013804E001330A800231142BBE
:105620000DD0C25C002AF7D1C022DBB25B00920031
:1056300008481343E5E7112100F01AF8DAE7CA2316
:1056400004489B00DDE70020DCE7C046E41F0020A3
:1056500009040000281B0020F48000102A1B0020F1
:1056600010B5024800F0D8F810BDC046C01F002099
:1056700030B54B1E012900D1A7E0664A11780D090B
:105680002C0030349F2900D9A2E00470012B00D1F6
:10569000BEE00F21147821400C003034092900D9D4
:1056A00098E04470022B00D1B2E05478250929001B
:1056B00030319F2C00D990E08170032B00D1A7E0FE
:1056C0000F2121400C003034092900D987E0C47033
:1056D000042B00D19CE094782509290030319F2CBF
:1056E00000D97FE00171052B00D191E00F2121400D
:1056F0000C003034092900D976E04471062B00D122
:1057000086E0D4782509290030319F2C00D96EE03D
:105710008171072B00D17BE00F2121400C00303438
:10572000092966D8C471082B00D171E014792509C4
:10573000290030319F2C5FD80172092B68D00F21CE
:1057400021400C003034092958D844720A2B5FD00C
:1057500054792509290030319F2C52D881720B2BA6
:1057600056D00F2121400C00303409294BD8C47287
:105770000C2B4DD094792509290030319F2C00D96C
:10578000073101730D2B43D00F2121400C00303421
:10579000092901D937310C0044730E2B38D0D17947
:1057A0000C09220030329F2900D9073282730F2B57
:1057B0002ED00F220A4011003731092A01D8303289
:1057C0001100C173102B23D010300023037030BDA3
:1057D00007345AE737310C0063E707316CE737319C
:1057E0000C0074E707317DE737310C0085E707319E
:1057F0008EE737310C0095E707319DE737310C0014
:10580000A3E70731AAE737310C00C4720C2BB1D1E2
:10581000C018DAE7C01F002010B588B004000D22C0
:1058200000216846FDF7A6FD0D22002104A8FDF722
:10583000A1FD4B236A466846137004A90D2202F0AD
:1058400047F81521082220006944FDF799FD08B0AA
:1058500010BDC046F8B500F047F90C23194DFF22E2
:10586000AB6705201849FBF761FC184C402200216A
:105870002000FDF77FFD4027002301262121144A47
:1058800066702783A260136063545F316184453979
:105890006354104A10496360E2602787A1620B607D
:1058A0006362E26202F06CF880239B052E64EB6475
:1058B00090230A4A0120EA508022094B5202DA64FE
:1058C000F8BDC04600001150450500205C1B0020BB
:1058D00084001050000110508000105010D00100C2
:1058E0000020115010B501210520FBF7BDFB10BDB4
:1058F00010B500220021024800F016F910BDC04684
:105900007C1B0020044B1970002904D080219023B7
:10591000024A8902D1507047F61F00200020115022
:105920000B785B0602D14B78052B00D070478A7844
:10593000014B1A60FAE7C04600001150F0B5C646A8
:10594000C87800B58007830F1800012B60D08F78CE
:105950000A794B797F213940FC091B024E00134321
:10596000334D32195201AA189770012767405770BA
:1059700000275B055B0DD7701383D076B846CA004D
:10598000012C32D02B4FBC468F016244BC46AC4444
:105990006746BA6047461760002932D0264AC900D8
:1059A00090466246414451603F223F339343022870
:1059B00037D0224937190A687F01D3180B60204974
:1059C000EF19FA608B422ED836197601AD19EB7EAD
:1059D0001C499B064A4013438022120613436A68FF
:1059E0001360012080BCB846F0BD174FBC468F0144
:1059F0006244BC46AC446746BA6247461760002919
:105A000008D1002364012C196360104BE360E8E7C0
:105A10000020E7E70B4AC9009046624641445162C4
:105A2000C2E75B00C5E7FCF757FCFA68CCE7C04665
:105A30005C1B00208400105004001050801F0020C8
:105A4000FF0F105000001050800010500001105047
:105A500010B501F095FF10BD10B57F200C0020405F
:105A60004000E409110000191A00034B4001C0185E
:105A700000F05AF8012010BD5C1B00207F231800A5
:105A800000B5084083B00B4204D14B424B41084A59
:105A9000013393668022C9094000064B401840013B
:105AA0000021C018120101F05BFF03B000BDC04629
:105AB000002011505C1B00207F22130010B50B400A
:105AC0000A4200D110BDC9095B005B1804485B01A4
:105AD000C018002300220349C37001F041FFF1E721
